{
    "_format": "hh-sol-artifact-1",
    "contractName": "TalentNFT",
    "sourceName": "contracts/talent-nft/TalentNFT.sol",
    "abi": [
        {
            "inputs": [
                {
                    "internalType": "address",
                    "name": "_owner",
                    "type": "address"
                },
                {
                    "internalType": "string",
                    "name": "_ticker",
                    "type": "string"
                }
            ],
            "stateMutability": "nonpayable",
            "type": "constructor"
        },
        {
            "anonymous": false,
            "inputs": [
                {
                    "indexed": true,
                    "internalType": "address",
                    "name": "owner",
                    "type": "address"
                },
                {
                    "indexed": true,
                    "internalType": "address",
                    "name": "approved",
                    "type": "address"
                },
                {
                    "indexed": true,
                    "internalType": "uint256",
                    "name": "tokenId",
                    "type": "uint256"
                }
            ],
            "name": "Approval",
            "type": "event"
        },
        {
            "anonymous": false,
            "inputs": [
                {
                    "indexed": true,
                    "internalType": "address",
                    "name": "owner",
                    "type": "address"
                },
                {
                    "indexed": true,
                    "internalType": "address",
                    "name": "operator",
                    "type": "address"
                },
                {
                    "indexed": false,
                    "internalType": "bool",
                    "name": "approved",
                    "type": "bool"
                }
            ],
            "name": "ApprovalForAll",
            "type": "event"
        },
        {
            "anonymous": false,
            "inputs": [
                {
                    "indexed": true,
                    "internalType": "bytes32",
                    "name": "role",
                    "type": "bytes32"
                },
                {
                    "indexed": true,
                    "internalType": "bytes32",
                    "name": "previousAdminRole",
                    "type": "bytes32"
                },
                {
                    "indexed": true,
                    "internalType": "bytes32",
                    "name": "newAdminRole",
                    "type": "bytes32"
                }
            ],
            "name": "RoleAdminChanged",
            "type": "event"
        },
        {
            "anonymous": false,
            "inputs": [
                {
                    "indexed": true,
                    "internalType": "bytes32",
                    "name": "role",
                    "type": "bytes32"
                },
                {
                    "indexed": true,
                    "internalType": "address",
                    "name": "account",
                    "type": "address"
                },
                {
                    "indexed": true,
                    "internalType": "address",
                    "name": "sender",
                    "type": "address"
                }
            ],
            "name": "RoleGranted",
            "type": "event"
        },
        {
            "anonymous": false,
            "inputs": [
                {
                    "indexed": true,
                    "internalType": "bytes32",
                    "name": "role",
                    "type": "bytes32"
                },
                {
                    "indexed": true,
                    "internalType": "address",
                    "name": "account",
                    "type": "address"
                },
                {
                    "indexed": true,
                    "internalType": "address",
                    "name": "sender",
                    "type": "address"
                }
            ],
            "name": "RoleRevoked",
            "type": "event"
        },
        {
            "anonymous": false,
            "inputs": [
                {
                    "indexed": true,
                    "internalType": "address",
                    "name": "from",
                    "type": "address"
                },
                {
                    "indexed": true,
                    "internalType": "address",
                    "name": "to",
                    "type": "address"
                },
                {
                    "indexed": true,
                    "internalType": "uint256",
                    "name": "tokenId",
                    "type": "uint256"
                }
            ],
            "name": "Transfer",
            "type": "event"
        },
        {
            "inputs": [],
            "name": "DEFAULT_ADMIN_ROLE",
            "outputs": [
                {
                    "internalType": "bytes32",
                    "name": "",
                    "type": "bytes32"
                }
            ],
            "stateMutability": "view",
            "type": "function"
        },
        {
            "inputs": [
                {
                    "internalType": "address",
                    "name": "_newOwner",
                    "type": "address"
                }
            ],
            "name": "addOwner",
            "outputs": [],
            "stateMutability": "nonpayable",
            "type": "function"
        },
        {
            "inputs": [
                {
                    "internalType": "address",
                    "name": "to",
                    "type": "address"
                },
                {
                    "internalType": "uint256",
                    "name": "tokenId",
                    "type": "uint256"
                }
            ],
            "name": "approve",
            "outputs": [],
            "stateMutability": "nonpayable",
            "type": "function"
        },
        {
            "inputs": [
                {
                    "internalType": "address",
                    "name": "owner",
                    "type": "address"
                }
            ],
            "name": "balanceOf",
            "outputs": [
                {
                    "internalType": "uint256",
                    "name": "",
                    "type": "uint256"
                }
            ],
            "stateMutability": "view",
            "type": "function"
        },
        {
            "inputs": [
                {
                    "internalType": "uint256",
                    "name": "tokenId",
                    "type": "uint256"
                }
            ],
            "name": "getApproved",
            "outputs": [
                {
                    "internalType": "address",
                    "name": "",
                    "type": "address"
                }
            ],
            "stateMutability": "view",
            "type": "function"
        },
        {
            "inputs": [],
            "name": "getPublicStageFlag",
            "outputs": [
                {
                    "internalType": "bool",
                    "name": "",
                    "type": "bool"
                }
            ],
            "stateMutability": "view",
            "type": "function"
        },
        {
            "inputs": [
                {
                    "internalType": "bytes32",
                    "name": "role",
                    "type": "bytes32"
                }
            ],
            "name": "getRoleAdmin",
            "outputs": [
                {
                    "internalType": "bytes32",
                    "name": "",
                    "type": "bytes32"
                }
            ],
            "stateMutability": "view",
            "type": "function"
        },
        {
            "inputs": [
                {
                    "internalType": "bytes32",
                    "name": "role",
                    "type": "bytes32"
                },
                {
                    "internalType": "address",
                    "name": "account",
                    "type": "address"
                }
            ],
            "name": "grantRole",
            "outputs": [],
            "stateMutability": "nonpayable",
            "type": "function"
        },
        {
            "inputs": [
                {
                    "internalType": "bytes32",
                    "name": "role",
                    "type": "bytes32"
                },
                {
                    "internalType": "address",
                    "name": "account",
                    "type": "address"
                }
            ],
            "name": "hasRole",
            "outputs": [
                {
                    "internalType": "bool",
                    "name": "",
                    "type": "bool"
                }
            ],
            "stateMutability": "view",
            "type": "function"
        },
        {
            "inputs": [
                {
                    "internalType": "address",
                    "name": "owner",
                    "type": "address"
                },
                {
                    "internalType": "address",
                    "name": "operator",
                    "type": "address"
                }
            ],
            "name": "isApprovedForAll",
            "outputs": [
                {
                    "internalType": "bool",
                    "name": "",
                    "type": "bool"
                }
            ],
            "stateMutability": "view",
            "type": "function"
        },
        {
            "inputs": [
                {
                    "internalType": "string",
                    "name": "combination",
                    "type": "string"
                }
            ],
            "name": "isCombinationaAvailable",
            "outputs": [
                {
                    "internalType": "bool",
                    "name": "",
                    "type": "bool"
                }
            ],
            "stateMutability": "view",
            "type": "function"
        },
        {
            "inputs": [
                {
                    "internalType": "address",
                    "name": "account",
                    "type": "address"
                }
            ],
            "name": "isWhitelisted",
            "outputs": [
                {
                    "internalType": "bool",
                    "name": "",
                    "type": "bool"
                }
            ],
            "stateMutability": "view",
            "type": "function"
        },
        {
            "inputs": [
                {
                    "internalType": "string",
                    "name": "combination",
                    "type": "string"
                }
            ],
            "name": "mint",
            "outputs": [],
            "stateMutability": "nonpayable",
            "type": "function"
        },
        {
            "inputs": [],
            "name": "name",
            "outputs": [
                {
                    "internalType": "string",
                    "name": "",
                    "type": "string"
                }
            ],
            "stateMutability": "view",
            "type": "function"
        },
        {
            "inputs": [
                {
                    "internalType": "uint256",
                    "name": "tokenId",
                    "type": "uint256"
                }
            ],
            "name": "ownerOf",
            "outputs": [
                {
                    "internalType": "address",
                    "name": "",
                    "type": "address"
                }
            ],
            "stateMutability": "view",
            "type": "function"
        },
        {
            "inputs": [
                {
                    "internalType": "bytes32",
                    "name": "role",
                    "type": "bytes32"
                },
                {
                    "internalType": "address",
                    "name": "account",
                    "type": "address"
                }
            ],
            "name": "renounceRole",
            "outputs": [],
            "stateMutability": "nonpayable",
            "type": "function"
        },
        {
            "inputs": [
                {
                    "internalType": "bytes32",
                    "name": "role",
                    "type": "bytes32"
                },
                {
                    "internalType": "address",
                    "name": "account",
                    "type": "address"
                }
            ],
            "name": "revokeRole",
            "outputs": [],
            "stateMutability": "nonpayable",
            "type": "function"
        },
        {
            "inputs": [
                {
                    "internalType": "address",
                    "name": "from",
                    "type": "address"
                },
                {
                    "internalType": "address",
                    "name": "to",
                    "type": "address"
                },
                {
                    "internalType": "uint256",
                    "name": "tokenId",
                    "type": "uint256"
                }
            ],
            "name": "safeTransferFrom",
            "outputs": [],
            "stateMutability": "nonpayable",
            "type": "function"
        },
        {
            "inputs": [
                {
                    "internalType": "address",
                    "name": "from",
                    "type": "address"
                },
                {
                    "internalType": "address",
                    "name": "to",
                    "type": "address"
                },
                {
                    "internalType": "uint256",
                    "name": "tokenId",
                    "type": "uint256"
                },
                {
                    "internalType": "bytes",
                    "name": "data",
                    "type": "bytes"
                }
            ],
            "name": "safeTransferFrom",
            "outputs": [],
            "stateMutability": "pure",
            "type": "function"
        },
        {
            "inputs": [
                {
                    "internalType": "address",
                    "name": "operator",
                    "type": "address"
                },
                {
                    "internalType": "bool",
                    "name": "approved",
                    "type": "bool"
                }
            ],
            "name": "setApprovalForAll",
            "outputs": [],
            "stateMutability": "nonpayable",
            "type": "function"
        },
        {
            "inputs": [
                {
                    "internalType": "string",
                    "name": "baseURI_",
                    "type": "string"
                }
            ],
            "name": "setBaseURI",
            "outputs": [],
            "stateMutability": "nonpayable",
            "type": "function"
        },
        {
            "inputs": [
                {
                    "internalType": "bool",
                    "name": "newFlagValue",
                    "type": "bool"
                }
            ],
            "name": "setPublicStageFlag",
            "outputs": [],
            "stateMutability": "nonpayable",
            "type": "function"
        },
        {
            "inputs": [
                {
                    "internalType": "uint256",
                    "name": "tokenId",
                    "type": "uint256"
                },
                {
                    "internalType": "string",
                    "name": "tokenURI_",
                    "type": "string"
                }
            ],
            "name": "setTokenURI",
            "outputs": [],
            "stateMutability": "nonpayable",
            "type": "function"
        },
        {
            "inputs": [
                {
                    "internalType": "bytes4",
                    "name": "interfaceId",
                    "type": "bytes4"
                }
            ],
            "name": "supportsInterface",
            "outputs": [
                {
                    "internalType": "bool",
                    "name": "",
                    "type": "bool"
                }
            ],
            "stateMutability": "view",
            "type": "function"
        },
        {
            "inputs": [],
            "name": "symbol",
            "outputs": [
                {
                    "internalType": "string",
                    "name": "",
                    "type": "string"
                }
            ],
            "stateMutability": "view",
            "type": "function"
        },
        {
            "inputs": [
                {
                    "internalType": "uint256",
                    "name": "index",
                    "type": "uint256"
                }
            ],
            "name": "tokenByIndex",
            "outputs": [
                {
                    "internalType": "uint256",
                    "name": "",
                    "type": "uint256"
                }
            ],
            "stateMutability": "view",
            "type": "function"
        },
        {
            "inputs": [
                {
                    "internalType": "address",
                    "name": "owner",
                    "type": "address"
                },
                {
                    "internalType": "uint256",
                    "name": "index",
                    "type": "uint256"
                }
            ],
            "name": "tokenOfOwnerByIndex",
            "outputs": [
                {
                    "internalType": "uint256",
                    "name": "",
                    "type": "uint256"
                }
            ],
            "stateMutability": "view",
            "type": "function"
        },
        {
            "inputs": [
                {
                    "internalType": "uint256",
                    "name": "tokenId",
                    "type": "uint256"
                }
            ],
            "name": "tokenURI",
            "outputs": [
                {
                    "internalType": "string",
                    "name": "",
                    "type": "string"
                }
            ],
            "stateMutability": "view",
            "type": "function"
        },
        {
            "inputs": [],
            "name": "totalSupply",
            "outputs": [
                {
                    "internalType": "uint256",
                    "name": "",
                    "type": "uint256"
                }
            ],
            "stateMutability": "view",
            "type": "function"
        },
        {
            "inputs": [
                {
                    "internalType": "address",
                    "name": "from",
                    "type": "address"
                },
                {
                    "internalType": "address",
                    "name": "to",
                    "type": "address"
                },
                {
                    "internalType": "uint256",
                    "name": "tokenId",
                    "type": "uint256"
                }
            ],
            "name": "transferFrom",
            "outputs": [],
            "stateMutability": "pure",
            "type": "function"
        },
        {
            "inputs": [
                {
                    "internalType": "address",
                    "name": "_to",
                    "type": "address"
                },
                {
                    "internalType": "enum TIERS",
                    "name": "tier",
                    "type": "uint8"
                }
            ],
            "name": "whitelistAddress",
            "outputs": [],
            "stateMutability": "nonpayable",
            "type": "function"
        }
    ],
    "bytecode": "0x6080604052600f805460ff191690553480156200001b57600080fd5b5060405162002732380380620027328339810160408190526200003e916200020f565b60408051808201909152601e8082527f54616c656e742050726f746f636f6c204e465420436f6c6c656374696f6e0000602083019081528391620000859160009162000169565b5080516200009b90600190602084019062000169565b50620000ad91506000905083620000b5565b505062000362565b620000c18282620000c5565b5050565b6000828152600a602090815260408083206001600160a01b038516845290915290205460ff16620000c1576000828152600a602090815260408083206001600160a01b03851684529091529020805460ff19166001179055620001253390565b6001600160a01b0316816001600160a01b0316837f2f8788117e7eff1d82e926ec794901d17c78024a50270940304540a733656f0d60405160405180910390a45050565b82805462000177906200030f565b90600052602060002090601f0160209004810192826200019b5760008555620001e6565b82601f10620001b657805160ff1916838001178555620001e6565b82800160010185558215620001e6579182015b82811115620001e6578251825591602001919060010190620001c9565b50620001f4929150620001f8565b5090565b5b80821115620001f45760008155600101620001f9565b600080604083850312156200022357600080fd5b82516001600160a01b03811681146200023b57600080fd5b602084810151919350906001600160401b03808211156200025b57600080fd5b818601915086601f8301126200027057600080fd5b8151818111156200028557620002856200034c565b604051601f8201601f19908116603f01168101908382118183101715620002b057620002b06200034c565b816040528281528986848701011115620002c957600080fd5b600093505b82841015620002ed5784840186015181850187015292850192620002ce565b82841115620002ff5760008684830101525b8096505050505050509250929050565b600181811c908216806200032457607f821691505b602082108114156200034657634e487b7160e01b600052602260045260246000fd5b50919050565b634e487b7160e01b600052604160045260246000fd5b6123c080620003726000396000f3fe608060405234801561001057600080fd5b50600436106101e55760003560e01c806355f804b31161010f578063a217fddf116100a2578063c87b56dd11610071578063c87b56dd1461042e578063d547741f14610441578063d85d3d2714610454578063e985e9c51461046757600080fd5b8063a217fddf146103f2578063a22cb465146103fa578063b430a5d91461040d578063b88d4fde1461042057600080fd5b806370a08231116100de57806370a082311461039357806391d14854146103a657806395d89b41146103df5780639d0234fe146103e757600080fd5b806355f804b3146103475780636352211e1461035a5780636b9a5c6c1461036d5780637065cb481461038057600080fd5b8063248a9ca31161018757806336568abe1161015657806336568abe146102fb5780633af32abf1461030e57806342842e0e146103215780634f6ccce71461033457600080fd5b8063248a9ca31461029f5780632dd98776146102c25780632f2ff15d146102d55780632f745c59146102e857600080fd5b8063095ea7b3116101c3578063095ea7b314610252578063162094c41461026757806318160ddd1461027a57806323b872dd1461028c57600080fd5b806301ffc9a7146101ea57806306fdde0314610212578063081812fc14610227575b600080fd5b6101fd6101f836600461206c565b6104a3565b60405190151581526020015b60405180910390f35b61021a6104b4565b6040516102099190612227565b61023a610235366004612030565b610546565b6040516001600160a01b039091168152602001610209565b610265610260366004611feb565b61056d565b005b6102656102753660046120db565b6106a4565b6008545b604051908152602001610209565b61026561029a366004611ece565b61075e565b61027e6102ad366004612030565b6000908152600a602052604090206001015490565b6101fd6102d03660046120a6565b6107a6565b6102656102e3366004612049565b6107cf565b61027e6102f6366004611feb565b6107f4565b610265610309366004612049565b61089c565b6101fd61031c366004611e80565b610928565b61026561032f366004611ece565b610958565b61027e610342366004612030565b610973565b6102656103553660046120a6565b610a17565b61023a610368366004612030565b610a35565b61026561037b366004611fb0565b610a9a565b61026561038e366004611e80565b610b6b565b61027e6103a1366004611e80565b610b81565b6101fd6103b4366004612049565b6000918252600a602090815260408084206001600160a01b0393909316845291905290205460ff1690565b61021a610c1b565b600f5460ff166101fd565b61027e600081565b610265610408366004611f86565b610c2a565b61026561041b366004612015565b610c35565b61026561029a366004611f0a565b61021a61043c366004612030565b610cf9565b61026561044f366004612049565b610e94565b6102656104623660046120a6565b610eb9565b6101fd610475366004611e9b565b6001600160a01b03918216600090815260056020908152604080832093909416825291909152205460ff1690565b60006104ae82611090565b92915050565b6060600080546104c3906122cb565b80601f01602080910402602001604051908101604052809291908181526020018280546104ef906122cb565b801561053c5780601f106105115761010080835404028352916020019161053c565b820191906000526020600020905b81548152906001019060200180831161051f57829003601f168201915b5050505050905090565b6000610551826110ce565b506000908152600460205260409020546001600160a01b031690565b600061057882610a35565b9050806001600160a01b0316836001600160a01b031614156106075760405162461bcd60e51b815260206004820152602160248201527f4552433732313a20617070726f76616c20746f2063757272656e74206f776e6560448201527f720000000000000000000000000000000000000000000000000000000000000060648201526084015b60405180910390fd5b336001600160a01b038216148061062357506106238133610475565b6106955760405162461bcd60e51b815260206004820152603e60248201527f4552433732313a20617070726f76652063616c6c6572206973206e6f7420746f60448201527f6b656e206f776e6572206e6f7220617070726f76656420666f7220616c6c000060648201526084016105fe565b61069f8383611132565b505050565b60006106af816111ad565b6000838152600260205260409020546001600160a01b03166107395760405162461bcd60e51b815260206004820152602f60248201527f4552433732314d657461646174613a2055524920717565727920666f72206e6f60448201527f6e6578697374656e7420746f6b656e000000000000000000000000000000000060648201526084016105fe565b6000838152600d60209081526040909120835161075892850190611d25565b50505050565b60405162461bcd60e51b815260206004820152601e60248201527f54616c656e74204e4654206973206e6f6e2d7472616e7366657261626c65000060448201526064016105fe565b6000600e826040516107b8919061214e565b908152604051908190036020019020541592915050565b6000828152600a60205260409020600101546107ea816111ad565b61069f83836111b7565b60006107ff83610b81565b82106108735760405162461bcd60e51b815260206004820152602b60248201527f455243373231456e756d657261626c653a206f776e657220696e646578206f7560448201527f74206f6620626f756e647300000000000000000000000000000000000000000060648201526084016105fe565b506001600160a01b03919091166000908152600660209081526040808320938352929052205490565b6001600160a01b038116331461091a5760405162461bcd60e51b815260206004820152602f60248201527f416363657373436f6e74726f6c3a2063616e206f6e6c792072656e6f756e636560448201527f20726f6c657320666f722073656c66000000000000000000000000000000000060648201526084016105fe565b6109248282611259565b5050565b600080610934836112dc565b60098111156109455761094561231c565b11806104ae5750600f5460ff1692915050565b61069f8383836040518060200160405280600081525061075e565b600061097e60085490565b82106109f25760405162461bcd60e51b815260206004820152602c60248201527f455243373231456e756d657261626c653a20676c6f62616c20696e646578206f60448201527f7574206f6620626f756e6473000000000000000000000000000000000000000060648201526084016105fe565b60088281548110610a0557610a05612348565b90600052602060002001549050919050565b6000610a22816111ad565b815161069f90600c906020850190611d25565b6000818152600260205260408120546001600160a01b0316806104ae5760405162461bcd60e51b815260206004820152601860248201527f4552433732313a20696e76616c696420746f6b656e204944000000000000000060448201526064016105fe565b6000610aa5816111ad565b6001826009811115610ab957610ab961231c565b11610b2c5760405162461bcd60e51b815260206004820152603a60248201527f546865207469657220676976656e206e6565647320746f20626520677265617460448201527f6572207468616e2054494552532e5055424c49435f535441474500000000000060648201526084016105fe565b6001600160a01b0383166000908152601060205260409020805483919060ff19166001836009811115610b6157610b6161231c565b0217905550505050565b6000610b76816111ad565b61092460008361134c565b60006001600160a01b038216610bff5760405162461bcd60e51b815260206004820152602960248201527f4552433732313a2061646472657373207a65726f206973206e6f74206120766160448201527f6c6964206f776e6572000000000000000000000000000000000000000000000060648201526084016105fe565b506001600160a01b031660009081526003602052604090205490565b6060600180546104c3906122cb565b610924338383611356565b6000610c40816111ad565b600f5460ff1615158215151415610ce55760405162461bcd60e51b815260206004820152605c60248201527f556e61626c6520746f206368616e6765205f7075626c69635374616765466c6160448201527f672076616c7565206265636175736520746865206e65772076616c756520697360648201527f207468652073616d65206173207468652063757272656e74206f6e6500000000608482015260a4016105fe565b50600f805460ff1916911515919091179055565b6000818152600260205260409020546060906001600160a01b0316610d865760405162461bcd60e51b815260206004820152602f60248201527f4552433732314d657461646174613a2055524920717565727920666f72206e6f60448201527f6e6578697374656e7420746f6b656e000000000000000000000000000000000060648201526084016105fe565b6000610d90611425565b9050805160001415610de45760405162461bcd60e51b815260206004820152601060248201527f4261736520555249206e6f74207365740000000000000000000000000000000060448201526064016105fe565b6000838152600d602052604081208054610dfd906122cb565b80601f0160208091040260200160405190810160405280929190818152602001828054610e29906122cb565b8015610e765780601f10610e4b57610100808354040283529160200191610e76565b820191906000526020600020905b815481529060010190602001808311610e5957829003601f168201915b505050505090508051600014610e8d579392505050565b5092915050565b6000828152600a6020526040902060010154610eaf816111ad565b61069f8383611259565b610ec233610928565b610f345760405162461bcd60e51b815260206004820152602d60248201527f4d696e74696e67206e6f7420616c6c6f77656420776974682063757272656e7460448201527f2073656e64657220726f6c65730000000000000000000000000000000000000060648201526084016105fe565b610f3d33610b81565b15610fb05760405162461bcd60e51b815260206004820152602960248201527f416464726573732068617320616c7265616479206d696e746564206f6e65205460448201527f616c656e74204e4654000000000000000000000000000000000000000000000060648201526084016105fe565b600e81604051610fc0919061214e565b9081526020016040518091039020546000141561101f57610fe5600b80546001019055565b600b54600e82604051610ff8919061214e565b908152604051908190036020019020556000611013600b5490565b90506109243382611434565b60405162461bcd60e51b815260206004820152602360248201527f5468697320636f6d62696e6174696f6e2077617320616c7265616479206d696e60448201527f746564000000000000000000000000000000000000000000000000000000000060648201526084016105fe565b50565b60006001600160e01b031982167f7965db0b0000000000000000000000000000000000000000000000000000000014806104ae57506104ae8261144e565b6000818152600260205260409020546001600160a01b031661108d5760405162461bcd60e51b815260206004820152601860248201527f4552433732313a20696e76616c696420746f6b656e204944000000000000000060448201526064016105fe565b6000818152600460205260409020805473ffffffffffffffffffffffffffffffffffffffff19166001600160a01b038416908117909155819061117482610a35565b6001600160a01b03167f8c5be1e5ebec7d5bd14f71427d1e84f3dd0314c0f7b2291e5b200ac8c7c3b92560405160405180910390a45050565b61108d813361148c565b6000828152600a602090815260408083206001600160a01b038516845290915290205460ff16610924576000828152600a602090815260408083206001600160a01b03851684529091529020805460ff191660011790556112153390565b6001600160a01b0316816001600160a01b0316837f2f8788117e7eff1d82e926ec794901d17c78024a50270940304540a733656f0d60405160405180910390a45050565b6000828152600a602090815260408083206001600160a01b038516845290915290205460ff1615610924576000828152600a602090815260408083206001600160a01b0385168085529252808320805460ff1916905551339285917ff6391f5c32d9c69d2a47ea670b442974b53935d1edc7fd64eb21e047a839171b9190a45050565b600f5460009060ff16156112f257506001919050565b6001600160a01b03821660009081526010602052604081205460ff16600981111561131f5761131f61231c565b141561132d57506000919050565b506001600160a01b031660009081526010602052604090205460ff1690565b61092482826111b7565b816001600160a01b0316836001600160a01b031614156113b85760405162461bcd60e51b815260206004820152601960248201527f4552433732313a20617070726f766520746f2063616c6c65720000000000000060448201526064016105fe565b6001600160a01b03838116600081815260056020908152604080832094871680845294825291829020805460ff191686151590811790915591519182527f17307eab39ab6107e8899845ad3d59bd9653f200f220920489ca2b5937696c31910160405180910390a3505050565b6060600c80546104c3906122cb565b61092482826040518060200160405280600081525061150c565b60006001600160e01b031982167f780e9d630000000000000000000000000000000000000000000000000000000014806104ae57506104ae82611595565b6000828152600a602090815260408083206001600160a01b038516845290915290205460ff16610924576114ca816001600160a01b03166014611630565b6114d5836020611630565b6040516020016114e692919061216a565b60408051601f198184030181529082905262461bcd60e51b82526105fe91600401612227565b6115168383611818565b6115236000848484611973565b61069f5760405162461bcd60e51b815260206004820152603260248201527f4552433732313a207472616e7366657220746f206e6f6e20455243373231526560448201527f63656976657220696d706c656d656e746572000000000000000000000000000060648201526084016105fe565b60006001600160e01b031982167f80ac58cd0000000000000000000000000000000000000000000000000000000014806115f857506001600160e01b031982167f5b5e139f00000000000000000000000000000000000000000000000000000000145b806104ae57507f01ffc9a7000000000000000000000000000000000000000000000000000000006001600160e01b03198316146104ae565b6060600061163f836002612252565b61164a90600261223a565b67ffffffffffffffff8111156116625761166261235e565b6040519080825280601f01601f19166020018201604052801561168c576020820181803683370190505b5090507f3000000000000000000000000000000000000000000000000000000000000000816000815181106116c3576116c3612348565b60200101906001600160f81b031916908160001a9053507f78000000000000000000000000000000000000000000000000000000000000008160018151811061170e5761170e612348565b60200101906001600160f81b031916908160001a9053506000611732846002612252565b61173d90600161223a565b90505b60018111156117c2577f303132333435363738396162636465660000000000000000000000000000000085600f166010811061177e5761177e612348565b1a60f81b82828151811061179457611794612348565b60200101906001600160f81b031916908160001a90535060049490941c936117bb816122b4565b9050611740565b5083156118115760405162461bcd60e51b815260206004820181905260248201527f537472696e67733a20686578206c656e67746820696e73756666696369656e7460448201526064016105fe565b9392505050565b6001600160a01b03821661186e5760405162461bcd60e51b815260206004820181905260248201527f4552433732313a206d696e7420746f20746865207a65726f206164647265737360448201526064016105fe565b6000818152600260205260409020546001600160a01b0316156118d35760405162461bcd60e51b815260206004820152601c60248201527f4552433732313a20746f6b656e20616c7265616479206d696e7465640000000060448201526064016105fe565b6118df60008383611ad7565b6001600160a01b038216600090815260036020526040812080546001929061190890849061223a565b9091555050600081815260026020526040808220805473ffffffffffffffffffffffffffffffffffffffff19166001600160a01b03861690811790915590518392907fddf252ad1be2c89b69c2b068fc378daa952ba7f163c4a11628f55a4df523b3ef908290a45050565b60006001600160a01b0384163b15611acb57604051630a85bd0160e11b81526001600160a01b0385169063150b7a02906119b79033908990889088906004016121eb565b602060405180830381600087803b1580156119d157600080fd5b505af1925050508015611a01575060408051601f3d908101601f191682019092526119fe91810190612089565b60015b611ab1573d808015611a2f576040519150601f19603f3d011682016040523d82523d6000602084013e611a34565b606091505b508051611aa95760405162461bcd60e51b815260206004820152603260248201527f4552433732313a207472616e7366657220746f206e6f6e20455243373231526560448201527f63656976657220696d706c656d656e746572000000000000000000000000000060648201526084016105fe565b805181602001fd5b6001600160e01b031916630a85bd0160e11b149050611acf565b5060015b949350505050565b61069f8383836001600160a01b038316611b3857611b3381600880546000838152600960205260408120829055600182018355919091527ff3f7a9fe364faab93b216da50a3214154f22a0a2b415b23a84c8169e8b636ee30155565b611b5b565b816001600160a01b0316836001600160a01b031614611b5b57611b5b8382611b95565b6001600160a01b038216611b725761069f81611c32565b826001600160a01b0316826001600160a01b03161461069f5761069f8282611ce1565b60006001611ba284610b81565b611bac9190612271565b600083815260076020526040902054909150808214611bff576001600160a01b03841660009081526006602090815260408083208584528252808320548484528184208190558352600790915290208190555b5060009182526007602090815260408084208490556001600160a01b039094168352600681528383209183525290812055565b600854600090611c4490600190612271565b60008381526009602052604081205460088054939450909284908110611c6c57611c6c612348565b906000526020600020015490508060088381548110611c8d57611c8d612348565b6000918252602080832090910192909255828152600990915260408082208490558582528120556008805480611cc557611cc5612332565b6001900381819060005260206000200160009055905550505050565b6000611cec83610b81565b6001600160a01b039093166000908152600660209081526040808320868452825280832085905593825260079052919091209190915550565b828054611d31906122cb565b90600052602060002090601f016020900481019282611d535760008555611d99565b82601f10611d6c57805160ff1916838001178555611d99565b82800160010185558215611d99579182015b82811115611d99578251825591602001919060010190611d7e565b50611da5929150611da9565b5090565b5b80821115611da55760008155600101611daa565b600067ffffffffffffffff80841115611dd957611dd961235e565b604051601f8501601f19908116603f01168101908282118183101715611e0157611e0161235e565b81604052809350858152868686011115611e1a57600080fd5b858560208301376000602087830101525050509392505050565b80356001600160a01b0381168114611e4b57600080fd5b919050565b80358015158114611e4b57600080fd5b600082601f830112611e7157600080fd5b61181183833560208501611dbe565b600060208284031215611e9257600080fd5b61181182611e34565b60008060408385031215611eae57600080fd5b611eb783611e34565b9150611ec560208401611e34565b90509250929050565b600080600060608486031215611ee357600080fd5b611eec84611e34565b9250611efa60208501611e34565b9150604084013590509250925092565b60008060008060808587031215611f2057600080fd5b611f2985611e34565b9350611f3760208601611e34565b925060408501359150606085013567ffffffffffffffff811115611f5a57600080fd5b8501601f81018713611f6b57600080fd5b611f7a87823560208401611dbe565b91505092959194509250565b60008060408385031215611f9957600080fd5b611fa283611e34565b9150611ec560208401611e50565b60008060408385031215611fc357600080fd5b611fcc83611e34565b91506020830135600a8110611fe057600080fd5b809150509250929050565b60008060408385031215611ffe57600080fd5b61200783611e34565b946020939093013593505050565b60006020828403121561202757600080fd5b61181182611e50565b60006020828403121561204257600080fd5b5035919050565b6000806040838503121561205c57600080fd5b82359150611ec560208401611e34565b60006020828403121561207e57600080fd5b813561181181612374565b60006020828403121561209b57600080fd5b815161181181612374565b6000602082840312156120b857600080fd5b813567ffffffffffffffff8111156120cf57600080fd5b611acf84828501611e60565b600080604083850312156120ee57600080fd5b82359150602083013567ffffffffffffffff81111561210c57600080fd5b61211885828601611e60565b9150509250929050565b6000815180845261213a816020860160208601612288565b601f01601f19169290920160200192915050565b60008251612160818460208701612288565b9190910192915050565b7f416363657373436f6e74726f6c3a206163636f756e74200000000000000000008152600083516121a2816017850160208801612288565b7f206973206d697373696e6720726f6c652000000000000000000000000000000060179184019182015283516121df816028840160208801612288565b01602801949350505050565b60006001600160a01b0380871683528086166020840152508360408301526080606083015261221d6080830184612122565b9695505050505050565b6020815260006118116020830184612122565b6000821982111561224d5761224d612306565b500190565b600081600019048311821515161561226c5761226c612306565b500290565b60008282101561228357612283612306565b500390565b60005b838110156122a357818101518382015260200161228b565b838111156107585750506000910152565b6000816122c3576122c3612306565b506000190190565b600181811c908216806122df57607f821691505b6020821081141561230057634e487b7160e01b600052602260045260246000fd5b50919050565b634e487b7160e01b600052601160045260246000fd5b634e487b7160e01b600052602160045260246000fd5b634e487b7160e01b600052603160045260246000fd5b634e487b7160e01b600052603260045260246000fd5b634e487b7160e01b600052604160045260246000fd5b6001600160e01b03198116811461108d57600080fdfea26469706673582212205a1b721c711d87fe4e91324d717d101f2044146da56d9acb868a3d8d9932744964736f6c63430008070033",
    "linkReferences": {},
    "deployedLinkReferences": {}
}