{
  "_format": "hh-sol-artifact-1",
  "contractName": "TalentNFT",
  "sourceName": "contracts/talent-nft/TalentNFT.sol",
  "abi": [
    {
      "inputs": [
        {
          "internalType": "address",
          "name": "_owner",
          "type": "address"
        },
        {
          "internalType": "string",
          "name": "_ticker",
          "type": "string"
        }
      ],
      "stateMutability": "nonpayable",
      "type": "constructor"
    },
    {
      "anonymous": false,
      "inputs": [
        {
          "indexed": true,
          "internalType": "address",
          "name": "owner",
          "type": "address"
        },
        {
          "indexed": true,
          "internalType": "address",
          "name": "approved",
          "type": "address"
        },
        {
          "indexed": true,
          "internalType": "uint256",
          "name": "tokenId",
          "type": "uint256"
        }
      ],
      "name": "Approval",
      "type": "event"
    },
    {
      "anonymous": false,
      "inputs": [
        {
          "indexed": true,
          "internalType": "address",
          "name": "owner",
          "type": "address"
        },
        {
          "indexed": true,
          "internalType": "address",
          "name": "operator",
          "type": "address"
        },
        {
          "indexed": false,
          "internalType": "bool",
          "name": "approved",
          "type": "bool"
        }
      ],
      "name": "ApprovalForAll",
      "type": "event"
    },
    {
      "anonymous": false,
      "inputs": [
        {
          "indexed": true,
          "internalType": "bytes32",
          "name": "role",
          "type": "bytes32"
        },
        {
          "indexed": true,
          "internalType": "bytes32",
          "name": "previousAdminRole",
          "type": "bytes32"
        },
        {
          "indexed": true,
          "internalType": "bytes32",
          "name": "newAdminRole",
          "type": "bytes32"
        }
      ],
      "name": "RoleAdminChanged",
      "type": "event"
    },
    {
      "anonymous": false,
      "inputs": [
        {
          "indexed": true,
          "internalType": "bytes32",
          "name": "role",
          "type": "bytes32"
        },
        {
          "indexed": true,
          "internalType": "address",
          "name": "account",
          "type": "address"
        },
        {
          "indexed": true,
          "internalType": "address",
          "name": "sender",
          "type": "address"
        }
      ],
      "name": "RoleGranted",
      "type": "event"
    },
    {
      "anonymous": false,
      "inputs": [
        {
          "indexed": true,
          "internalType": "bytes32",
          "name": "role",
          "type": "bytes32"
        },
        {
          "indexed": true,
          "internalType": "address",
          "name": "account",
          "type": "address"
        },
        {
          "indexed": true,
          "internalType": "address",
          "name": "sender",
          "type": "address"
        }
      ],
      "name": "RoleRevoked",
      "type": "event"
    },
    {
      "anonymous": false,
      "inputs": [
        {
          "indexed": true,
          "internalType": "address",
          "name": "from",
          "type": "address"
        },
        {
          "indexed": true,
          "internalType": "address",
          "name": "to",
          "type": "address"
        },
        {
          "indexed": true,
          "internalType": "uint256",
          "name": "tokenId",
          "type": "uint256"
        }
      ],
      "name": "Transfer",
      "type": "event"
    },
    {
      "inputs": [],
      "name": "DEFAULT_ADMIN_ROLE",
      "outputs": [
        {
          "internalType": "bytes32",
          "name": "",
          "type": "bytes32"
        }
      ],
      "stateMutability": "view",
      "type": "function"
    },
    {
      "inputs": [
        {
          "internalType": "address",
          "name": "_newOwner",
          "type": "address"
        }
      ],
      "name": "addOwner",
      "outputs": [],
      "stateMutability": "nonpayable",
      "type": "function"
    },
    {
      "inputs": [
        {
          "internalType": "address",
          "name": "to",
          "type": "address"
        },
        {
          "internalType": "uint256",
          "name": "tokenId",
          "type": "uint256"
        }
      ],
      "name": "approve",
      "outputs": [],
      "stateMutability": "nonpayable",
      "type": "function"
    },
    {
      "inputs": [
        {
          "internalType": "address",
          "name": "owner",
          "type": "address"
        }
      ],
      "name": "balanceOf",
      "outputs": [
        {
          "internalType": "uint256",
          "name": "",
          "type": "uint256"
        }
      ],
      "stateMutability": "view",
      "type": "function"
    },
    {
      "inputs": [
        {
          "internalType": "address",
          "name": "account",
          "type": "address"
        }
      ],
      "name": "checkAccountTier",
      "outputs": [
        {
          "internalType": "enum TIERS",
          "name": "",
          "type": "uint8"
        }
      ],
      "stateMutability": "view",
      "type": "function"
    },
    {
      "inputs": [
        {
          "internalType": "uint256",
          "name": "tokenId",
          "type": "uint256"
        }
      ],
      "name": "getApproved",
      "outputs": [
        {
          "internalType": "address",
          "name": "",
          "type": "address"
        }
      ],
      "stateMutability": "view",
      "type": "function"
    },
    {
      "inputs": [],
      "name": "getPublicStageFlag",
      "outputs": [
        {
          "internalType": "bool",
          "name": "",
          "type": "bool"
        }
      ],
      "stateMutability": "view",
      "type": "function"
    },
    {
      "inputs": [
        {
          "internalType": "bytes32",
          "name": "role",
          "type": "bytes32"
        }
      ],
      "name": "getRoleAdmin",
      "outputs": [
        {
          "internalType": "bytes32",
          "name": "",
          "type": "bytes32"
        }
      ],
      "stateMutability": "view",
      "type": "function"
    },
    {
      "inputs": [
        {
          "internalType": "bytes32",
          "name": "role",
          "type": "bytes32"
        },
        {
          "internalType": "address",
          "name": "account",
          "type": "address"
        }
      ],
      "name": "grantRole",
      "outputs": [],
      "stateMutability": "nonpayable",
      "type": "function"
    },
    {
      "inputs": [
        {
          "internalType": "bytes32",
          "name": "role",
          "type": "bytes32"
        },
        {
          "internalType": "address",
          "name": "account",
          "type": "address"
        }
      ],
      "name": "hasRole",
      "outputs": [
        {
          "internalType": "bool",
          "name": "",
          "type": "bool"
        }
      ],
      "stateMutability": "view",
      "type": "function"
    },
    {
      "inputs": [
        {
          "internalType": "address",
          "name": "owner",
          "type": "address"
        },
        {
          "internalType": "address",
          "name": "operator",
          "type": "address"
        }
      ],
      "name": "isApprovedForAll",
      "outputs": [
        {
          "internalType": "bool",
          "name": "",
          "type": "bool"
        }
      ],
      "stateMutability": "view",
      "type": "function"
    },
    {
      "inputs": [
        {
          "internalType": "string",
          "name": "combination",
          "type": "string"
        }
      ],
      "name": "isCombinationAvailable",
      "outputs": [
        {
          "internalType": "bool",
          "name": "",
          "type": "bool"
        }
      ],
      "stateMutability": "view",
      "type": "function"
    },
    {
      "inputs": [
        {
          "internalType": "address",
          "name": "account",
          "type": "address"
        }
      ],
      "name": "isWhitelisted",
      "outputs": [
        {
          "internalType": "bool",
          "name": "",
          "type": "bool"
        }
      ],
      "stateMutability": "view",
      "type": "function"
    },
    {
      "inputs": [],
      "name": "mint",
      "outputs": [],
      "stateMutability": "nonpayable",
      "type": "function"
    },
    {
      "inputs": [],
      "name": "name",
      "outputs": [
        {
          "internalType": "string",
          "name": "",
          "type": "string"
        }
      ],
      "stateMutability": "view",
      "type": "function"
    },
    {
      "inputs": [
        {
          "internalType": "uint256",
          "name": "tokenId",
          "type": "uint256"
        }
      ],
      "name": "ownerOf",
      "outputs": [
        {
          "internalType": "address",
          "name": "",
          "type": "address"
        }
      ],
      "stateMutability": "view",
      "type": "function"
    },
    {
      "inputs": [
        {
          "internalType": "bytes32",
          "name": "role",
          "type": "bytes32"
        },
        {
          "internalType": "address",
          "name": "account",
          "type": "address"
        }
      ],
      "name": "renounceRole",
      "outputs": [],
      "stateMutability": "nonpayable",
      "type": "function"
    },
    {
      "inputs": [
        {
          "internalType": "bytes32",
          "name": "role",
          "type": "bytes32"
        },
        {
          "internalType": "address",
          "name": "account",
          "type": "address"
        }
      ],
      "name": "revokeRole",
      "outputs": [],
      "stateMutability": "nonpayable",
      "type": "function"
    },
    {
      "inputs": [
        {
          "internalType": "address",
          "name": "from",
          "type": "address"
        },
        {
          "internalType": "address",
          "name": "to",
          "type": "address"
        },
        {
          "internalType": "uint256",
          "name": "tokenId",
          "type": "uint256"
        }
      ],
      "name": "safeTransferFrom",
      "outputs": [],
      "stateMutability": "nonpayable",
      "type": "function"
    },
    {
      "inputs": [
        {
          "internalType": "address",
          "name": "from",
          "type": "address"
        },
        {
          "internalType": "address",
          "name": "to",
          "type": "address"
        },
        {
          "internalType": "uint256",
          "name": "tokenId",
          "type": "uint256"
        },
        {
          "internalType": "bytes",
          "name": "data",
          "type": "bytes"
        }
      ],
      "name": "safeTransferFrom",
      "outputs": [],
      "stateMutability": "pure",
      "type": "function"
    },
    {
      "inputs": [
        {
          "internalType": "address",
          "name": "operator",
          "type": "address"
        },
        {
          "internalType": "bool",
          "name": "approved",
          "type": "bool"
        }
      ],
      "name": "setApprovalForAll",
      "outputs": [],
      "stateMutability": "nonpayable",
      "type": "function"
    },
    {
      "inputs": [
        {
          "internalType": "string",
          "name": "baseURI_",
          "type": "string"
        }
      ],
      "name": "setBaseURI",
      "outputs": [],
      "stateMutability": "nonpayable",
      "type": "function"
    },
    {
      "inputs": [
        {
          "internalType": "bool",
          "name": "newFlagValue",
          "type": "bool"
        }
      ],
      "name": "setPublicStageFlag",
      "outputs": [],
      "stateMutability": "nonpayable",
      "type": "function"
    },
    {
      "inputs": [
        {
          "internalType": "uint256",
          "name": "tokenId",
          "type": "uint256"
        },
        {
          "internalType": "string",
          "name": "tokenMetadataURI",
          "type": "string"
        },
        {
          "internalType": "string",
          "name": "combination",
          "type": "string"
        }
      ],
      "name": "setTokenURI",
      "outputs": [],
      "stateMutability": "nonpayable",
      "type": "function"
    },
    {
      "inputs": [
        {
          "internalType": "bytes4",
          "name": "interfaceId",
          "type": "bytes4"
        }
      ],
      "name": "supportsInterface",
      "outputs": [
        {
          "internalType": "bool",
          "name": "",
          "type": "bool"
        }
      ],
      "stateMutability": "view",
      "type": "function"
    },
    {
      "inputs": [],
      "name": "symbol",
      "outputs": [
        {
          "internalType": "string",
          "name": "",
          "type": "string"
        }
      ],
      "stateMutability": "view",
      "type": "function"
    },
    {
      "inputs": [
        {
          "internalType": "uint256",
          "name": "index",
          "type": "uint256"
        }
      ],
      "name": "tokenByIndex",
      "outputs": [
        {
          "internalType": "uint256",
          "name": "",
          "type": "uint256"
        }
      ],
      "stateMutability": "view",
      "type": "function"
    },
    {
      "inputs": [
        {
          "internalType": "address",
          "name": "owner",
          "type": "address"
        },
        {
          "internalType": "uint256",
          "name": "index",
          "type": "uint256"
        }
      ],
      "name": "tokenOfOwnerByIndex",
      "outputs": [
        {
          "internalType": "uint256",
          "name": "",
          "type": "uint256"
        }
      ],
      "stateMutability": "view",
      "type": "function"
    },
    {
      "inputs": [
        {
          "internalType": "uint256",
          "name": "tokenId",
          "type": "uint256"
        }
      ],
      "name": "tokenURI",
      "outputs": [
        {
          "internalType": "string",
          "name": "",
          "type": "string"
        }
      ],
      "stateMutability": "view",
      "type": "function"
    },
    {
      "inputs": [],
      "name": "totalSupply",
      "outputs": [
        {
          "internalType": "uint256",
          "name": "",
          "type": "uint256"
        }
      ],
      "stateMutability": "view",
      "type": "function"
    },
    {
      "inputs": [
        {
          "internalType": "address",
          "name": "from",
          "type": "address"
        },
        {
          "internalType": "address",
          "name": "to",
          "type": "address"
        },
        {
          "internalType": "uint256",
          "name": "tokenId",
          "type": "uint256"
        }
      ],
      "name": "transferFrom",
      "outputs": [],
      "stateMutability": "pure",
      "type": "function"
    },
    {
      "inputs": [
        {
          "internalType": "address",
          "name": "_to",
          "type": "address"
        },
        {
          "internalType": "enum TIERS",
          "name": "tier",
          "type": "uint8"
        }
      ],
      "name": "whitelistAddress",
      "outputs": [],
      "stateMutability": "nonpayable",
      "type": "function"
    }
  ],
  "bytecode": "0x6080604052600f805460ff191690553480156200001b57600080fd5b506040516200281a3803806200281a8339810160408190526200003e916200020f565b60408051808201909152601e8082527f54616c656e742050726f746f636f6c204e465420436f6c6c656374696f6e0000602083019081528391620000859160009162000169565b5080516200009b90600190602084019062000169565b50620000ad91506000905083620000b5565b505062000362565b620000c18282620000c5565b5050565b6000828152600a602090815260408083206001600160a01b038516845290915290205460ff16620000c1576000828152600a602090815260408083206001600160a01b03851684529091529020805460ff19166001179055620001253390565b6001600160a01b0316816001600160a01b0316837f2f8788117e7eff1d82e926ec794901d17c78024a50270940304540a733656f0d60405160405180910390a45050565b82805462000177906200030f565b90600052602060002090601f0160209004810192826200019b5760008555620001e6565b82601f10620001b657805160ff1916838001178555620001e6565b82800160010185558215620001e6579182015b82811115620001e6578251825591602001919060010190620001c9565b50620001f4929150620001f8565b5090565b5b80821115620001f45760008155600101620001f9565b600080604083850312156200022357600080fd5b82516001600160a01b03811681146200023b57600080fd5b602084810151919350906001600160401b03808211156200025b57600080fd5b818601915086601f8301126200027057600080fd5b8151818111156200028557620002856200034c565b604051601f8201601f19908116603f01168101908382118183101715620002b057620002b06200034c565b816040528281528986848701011115620002c957600080fd5b600093505b82841015620002ed5784840186015181850187015292850192620002ce565b82841115620002ff5760008684830101525b8096505050505050509250929050565b600181811c908216806200032457607f821691505b602082108114156200034657634e487b7160e01b600052602260045260246000fd5b50919050565b634e487b7160e01b600052604160045260246000fd5b6124a880620003726000396000f3fe608060405234801561001057600080fd5b50600436106101f05760003560e01c80636352211e1161010f5780639d0234fe116100a2578063b88d4fde11610071578063b88d4fde14610453578063c87b56dd14610461578063d547741f14610474578063e985e9c51461048757600080fd5b80639d0234fe1461041a578063a217fddf14610425578063a22cb4651461042d578063b430a5d91461044057600080fd5b806377f06adf116100de57806377f06adf146103a6578063884ac400146103b957806391d14854146103d957806395d89b411461041257600080fd5b80636352211e1461035a5780636b9a5c6c1461036d5780637065cb481461038057806370a082311461039357600080fd5b80632f2ff15d116101875780633af32abf116101565780633af32abf1461030e57806342842e0e146103215780634f6ccce71461033457806355f804b31461034757600080fd5b80632f2ff15d146102c25780632f745c59146102d557806336568abe146102e857806339a95a0f146102fb57600080fd5b80631249c58b116101c35780631249c58b1461027257806318160ddd1461027a57806323b872dd1461028c578063248a9ca31461029f57600080fd5b806301ffc9a7146101f557806306fdde031461021d578063081812fc14610232578063095ea7b31461025d575b600080fd5b610208610203366004612106565b6104c3565b60405190151581526020015b60405180910390f35b6102256104d4565b604051610214919061230f565b6102456102403660046120ca565b610566565b6040516001600160a01b039091168152602001610214565b61027061026b366004612085565b61058d565b005b6102706106c4565b6008545b604051908152602001610214565b61027061029a366004611f68565b6107e3565b61027e6102ad3660046120ca565b6000908152600a602052604090206001015490565b6102706102d03660046120e3565b61082b565b61027e6102e3366004612085565b610850565b6102706102f63660046120e3565b6108f8565b610208610309366004612140565b610984565b61020861031c366004611f1a565b6109ad565b61027061032f366004611f68565b6109dd565b61027e6103423660046120ca565b6109f8565b610270610355366004612140565b610a9c565b6102456103683660046120ca565b610aba565b61027061037b36600461204a565b610b1f565b61027061038e366004611f1a565b610bf0565b61027e6103a1366004611f1a565b610c06565b6102706103b4366004612175565b610ca0565b6103cc6103c7366004611f1a565b610e86565b60405161021491906122e7565b6102086103e73660046120e3565b6000918252600a602090815260408084206001600160a01b0393909316845291905290205460ff1690565b610225610ef6565b600f5460ff16610208565b61027e600081565b61027061043b366004612020565b610f05565b61027061044e3660046120af565b610f10565b61027061029a366004611fa4565b61022561046f3660046120ca565b610fda565b6102706104823660046120e3565b611175565b610208610495366004611f35565b6001600160a01b03918216600090815260056020908152604080832093909416825291909152205460ff1690565b60006104ce8261119a565b92915050565b6060600080546104e3906123b3565b80601f016020809104026020016040519081016040528092919081815260200182805461050f906123b3565b801561055c5780601f106105315761010080835404028352916020019161055c565b820191906000526020600020905b81548152906001019060200180831161053f57829003601f168201915b5050505050905090565b6000610571826111d8565b506000908152600460205260409020546001600160a01b031690565b600061059882610aba565b9050806001600160a01b0316836001600160a01b031614156106275760405162461bcd60e51b815260206004820152602160248201527f4552433732313a20617070726f76616c20746f2063757272656e74206f776e6560448201527f720000000000000000000000000000000000000000000000000000000000000060648201526084015b60405180910390fd5b336001600160a01b038216148061064357506106438133610495565b6106b55760405162461bcd60e51b815260206004820152603e60248201527f4552433732313a20617070726f76652063616c6c6572206973206e6f7420746f60448201527f6b656e206f776e6572206e6f7220617070726f76656420666f7220616c6c0000606482015260840161061e565b6106bf838361123c565b505050565b6106cd336109ad565b61073f5760405162461bcd60e51b815260206004820152602d60248201527f4d696e74696e67206e6f7420616c6c6f77656420776974682063757272656e7460448201527f2073656e64657220726f6c657300000000000000000000000000000000000000606482015260840161061e565b61074833610c06565b156107bb5760405162461bcd60e51b815260206004820152602960248201527f416464726573732068617320616c7265616479206d696e746564206f6e65205460448201527f616c656e74204e46540000000000000000000000000000000000000000000000606482015260840161061e565b6107c9600b80546001019055565b60006107d4600b5490565b90506107e033826112b7565b50565b60405162461bcd60e51b815260206004820152601e60248201527f54616c656e74204e4654206973206e6f6e2d7472616e7366657261626c650000604482015260640161061e565b6000828152600a6020526040902060010154610846816112d1565b6106bf83836112db565b600061085b83610c06565b82106108cf5760405162461bcd60e51b815260206004820152602b60248201527f455243373231456e756d657261626c653a206f776e657220696e646578206f7560448201527f74206f6620626f756e6473000000000000000000000000000000000000000000606482015260840161061e565b506001600160a01b03919091166000908152600660209081526040808320938352929052205490565b6001600160a01b03811633146109765760405162461bcd60e51b815260206004820152602f60248201527f416363657373436f6e74726f6c3a2063616e206f6e6c792072656e6f756e636560448201527f20726f6c657320666f722073656c660000000000000000000000000000000000606482015260840161061e565b610980828261137d565b5050565b6000600e82604051610996919061220e565b908152604051908190036020019020541592915050565b6000806109b983610e86565b60098111156109ca576109ca612404565b11806104ce5750600f5460ff1692915050565b6106bf838383604051806020016040528060008152506107e3565b6000610a0360085490565b8210610a775760405162461bcd60e51b815260206004820152602c60248201527f455243373231456e756d657261626c653a20676c6f62616c20696e646578206f60448201527f7574206f6620626f756e64730000000000000000000000000000000000000000606482015260840161061e565b60088281548110610a8a57610a8a612430565b90600052602060002001549050919050565b6000610aa7816112d1565b81516106bf90600c906020850190611dbf565b6000818152600260205260408120546001600160a01b0316806104ce5760405162461bcd60e51b815260206004820152601860248201527f4552433732313a20696e76616c696420746f6b656e2049440000000000000000604482015260640161061e565b6000610b2a816112d1565b6001826009811115610b3e57610b3e612404565b11610bb15760405162461bcd60e51b815260206004820152603a60248201527f546865207469657220676976656e206e6565647320746f20626520677265617460448201527f6572207468616e2054494552532e5055424c49435f5354414745000000000000606482015260840161061e565b6001600160a01b0383166000908152601060205260409020805483919060ff19166001836009811115610be657610be6612404565b0217905550505050565b6000610bfb816112d1565b610980600083611400565b60006001600160a01b038216610c845760405162461bcd60e51b815260206004820152602960248201527f4552433732313a2061646472657373207a65726f206973206e6f74206120766160448201527f6c6964206f776e65720000000000000000000000000000000000000000000000606482015260840161061e565b506001600160a01b031660009081526003602052604090205490565b6000610cab816112d1565b6000848152600260205260409020546001600160a01b0316610d355760405162461bcd60e51b815260206004820152602f60248201527f4552433732314d657461646174613a2055524920717565727920666f72206e6f60448201527f6e6578697374656e7420746f6b656e0000000000000000000000000000000000606482015260840161061e565b6000848152600d602052604090208054610d4e906123b3565b159050610dc35760405162461bcd60e51b815260206004820152602b60248201527f4d657461646174612077617320616c726561647920646566696e656420666f7260448201527f207468697320746f6b656e000000000000000000000000000000000000000000606482015260840161061e565b610dcc82610984565b610e3e5760405162461bcd60e51b815260206004820152602360248201527f5468697320636f6d62696e6174696f6e2077617320616c7265616479206d696e60448201527f7465640000000000000000000000000000000000000000000000000000000000606482015260840161061e565b83600e83604051610e4f919061220e565b9081526040805160209281900383019020929092556000868152600d8252919091208451610e7f92860190611dbf565b5050505050565b600f5460009060ff1615610e9c57506001919050565b6001600160a01b03821660009081526010602052604081205460ff166009811115610ec957610ec9612404565b1415610ed757506000919050565b506001600160a01b031660009081526010602052604090205460ff1690565b6060600180546104e3906123b3565b61098033838361140a565b6000610f1b816112d1565b600f5460ff1615158215151415610fc05760405162461bcd60e51b815260206004820152605c60248201527f556e61626c6520746f206368616e6765205f7075626c69635374616765466c6160448201527f672076616c7565206265636175736520746865206e65772076616c756520697360648201527f207468652073616d65206173207468652063757272656e74206f6e6500000000608482015260a40161061e565b50600f805460ff1916911515919091179055565b50505050565b6000818152600260205260409020546060906001600160a01b03166110675760405162461bcd60e51b815260206004820152602f60248201527f4552433732314d657461646174613a2055524920717565727920666f72206e6f60448201527f6e6578697374656e7420746f6b656e0000000000000000000000000000000000606482015260840161061e565b60006110716114d9565b90508051600014156110c55760405162461bcd60e51b815260206004820152601060248201527f4261736520555249206e6f742073657400000000000000000000000000000000604482015260640161061e565b6000838152600d6020526040812080546110de906123b3565b80601f016020809104026020016040519081016040528092919081815260200182805461110a906123b3565b80156111575780601f1061112c57610100808354040283529160200191611157565b820191906000526020600020905b81548152906001019060200180831161113a57829003601f168201915b50505050509050805160001461116e579392505050565b5092915050565b6000828152600a6020526040902060010154611190816112d1565b6106bf838361137d565b60006001600160e01b031982167f7965db0b0000000000000000000000000000000000000000000000000000000014806104ce57506104ce826114e8565b6000818152600260205260409020546001600160a01b03166107e05760405162461bcd60e51b815260206004820152601860248201527f4552433732313a20696e76616c696420746f6b656e2049440000000000000000604482015260640161061e565b6000818152600460205260409020805473ffffffffffffffffffffffffffffffffffffffff19166001600160a01b038416908117909155819061127e82610aba565b6001600160a01b03167f8c5be1e5ebec7d5bd14f71427d1e84f3dd0314c0f7b2291e5b200ac8c7c3b92560405160405180910390a45050565b610980828260405180602001604052806000815250611526565b6107e081336115af565b6000828152600a602090815260408083206001600160a01b038516845290915290205460ff16610980576000828152600a602090815260408083206001600160a01b03851684529091529020805460ff191660011790556113393390565b6001600160a01b0316816001600160a01b0316837f2f8788117e7eff1d82e926ec794901d17c78024a50270940304540a733656f0d60405160405180910390a45050565b6000828152600a602090815260408083206001600160a01b038516845290915290205460ff1615610980576000828152600a602090815260408083206001600160a01b0385168085529252808320805460ff1916905551339285917ff6391f5c32d9c69d2a47ea670b442974b53935d1edc7fd64eb21e047a839171b9190a45050565b61098082826112db565b816001600160a01b0316836001600160a01b0316141561146c5760405162461bcd60e51b815260206004820152601960248201527f4552433732313a20617070726f766520746f2063616c6c657200000000000000604482015260640161061e565b6001600160a01b03838116600081815260056020908152604080832094871680845294825291829020805460ff191686151590811790915591519182527f17307eab39ab6107e8899845ad3d59bd9653f200f220920489ca2b5937696c31910160405180910390a3505050565b6060600c80546104e3906123b3565b60006001600160e01b031982167f780e9d630000000000000000000000000000000000000000000000000000000014806104ce57506104ce8261162f565b61153083836116ca565b61153d6000848484611825565b6106bf5760405162461bcd60e51b815260206004820152603260248201527f4552433732313a207472616e7366657220746f206e6f6e20455243373231526560448201527f63656976657220696d706c656d656e7465720000000000000000000000000000606482015260840161061e565b6000828152600a602090815260408083206001600160a01b038516845290915290205460ff16610980576115ed816001600160a01b03166014611989565b6115f8836020611989565b60405160200161160992919061222a565b60408051601f198184030181529082905262461bcd60e51b825261061e9160040161230f565b60006001600160e01b031982167f80ac58cd00000000000000000000000000000000000000000000000000000000148061169257506001600160e01b031982167f5b5e139f00000000000000000000000000000000000000000000000000000000145b806104ce57507f01ffc9a7000000000000000000000000000000000000000000000000000000006001600160e01b03198316146104ce565b6001600160a01b0382166117205760405162461bcd60e51b815260206004820181905260248201527f4552433732313a206d696e7420746f20746865207a65726f2061646472657373604482015260640161061e565b6000818152600260205260409020546001600160a01b0316156117855760405162461bcd60e51b815260206004820152601c60248201527f4552433732313a20746f6b656e20616c7265616479206d696e74656400000000604482015260640161061e565b61179160008383611b71565b6001600160a01b03821660009081526003602052604081208054600192906117ba908490612322565b9091555050600081815260026020526040808220805473ffffffffffffffffffffffffffffffffffffffff19166001600160a01b03861690811790915590518392907fddf252ad1be2c89b69c2b068fc378daa952ba7f163c4a11628f55a4df523b3ef908290a45050565b60006001600160a01b0384163b1561197d57604051630a85bd0160e11b81526001600160a01b0385169063150b7a02906118699033908990889088906004016122ab565b602060405180830381600087803b15801561188357600080fd5b505af19250505080156118b3575060408051601f3d908101601f191682019092526118b091810190612123565b60015b611963573d8080156118e1576040519150601f19603f3d011682016040523d82523d6000602084013e6118e6565b606091505b50805161195b5760405162461bcd60e51b815260206004820152603260248201527f4552433732313a207472616e7366657220746f206e6f6e20455243373231526560448201527f63656976657220696d706c656d656e7465720000000000000000000000000000606482015260840161061e565b805181602001fd5b6001600160e01b031916630a85bd0160e11b149050611981565b5060015b949350505050565b6060600061199883600261233a565b6119a3906002612322565b67ffffffffffffffff8111156119bb576119bb612446565b6040519080825280601f01601f1916602001820160405280156119e5576020820181803683370190505b5090507f300000000000000000000000000000000000000000000000000000000000000081600081518110611a1c57611a1c612430565b60200101906001600160f81b031916908160001a9053507f780000000000000000000000000000000000000000000000000000000000000081600181518110611a6757611a67612430565b60200101906001600160f81b031916908160001a9053506000611a8b84600261233a565b611a96906001612322565b90505b6001811115611b1b577f303132333435363738396162636465660000000000000000000000000000000085600f1660108110611ad757611ad7612430565b1a60f81b828281518110611aed57611aed612430565b60200101906001600160f81b031916908160001a90535060049490941c93611b148161239c565b9050611a99565b508315611b6a5760405162461bcd60e51b815260206004820181905260248201527f537472696e67733a20686578206c656e67746820696e73756666696369656e74604482015260640161061e565b9392505050565b6106bf8383836001600160a01b038316611bd257611bcd81600880546000838152600960205260408120829055600182018355919091527ff3f7a9fe364faab93b216da50a3214154f22a0a2b415b23a84c8169e8b636ee30155565b611bf5565b816001600160a01b0316836001600160a01b031614611bf557611bf58382611c2f565b6001600160a01b038216611c0c576106bf81611ccc565b826001600160a01b0316826001600160a01b0316146106bf576106bf8282611d7b565b60006001611c3c84610c06565b611c469190612359565b600083815260076020526040902054909150808214611c99576001600160a01b03841660009081526006602090815260408083208584528252808320548484528184208190558352600790915290208190555b5060009182526007602090815260408084208490556001600160a01b039094168352600681528383209183525290812055565b600854600090611cde90600190612359565b60008381526009602052604081205460088054939450909284908110611d0657611d06612430565b906000526020600020015490508060088381548110611d2757611d27612430565b6000918252602080832090910192909255828152600990915260408082208490558582528120556008805480611d5f57611d5f61241a565b6001900381819060005260206000200160009055905550505050565b6000611d8683610c06565b6001600160a01b039093166000908152600660209081526040808320868452825280832085905593825260079052919091209190915550565b828054611dcb906123b3565b90600052602060002090601f016020900481019282611ded5760008555611e33565b82601f10611e0657805160ff1916838001178555611e33565b82800160010185558215611e33579182015b82811115611e33578251825591602001919060010190611e18565b50611e3f929150611e43565b5090565b5b80821115611e3f5760008155600101611e44565b600067ffffffffffffffff80841115611e7357611e73612446565b604051601f8501601f19908116603f01168101908282118183101715611e9b57611e9b612446565b81604052809350858152868686011115611eb457600080fd5b858560208301376000602087830101525050509392505050565b80356001600160a01b0381168114611ee557600080fd5b919050565b80358015158114611ee557600080fd5b600082601f830112611f0b57600080fd5b611b6a83833560208501611e58565b600060208284031215611f2c57600080fd5b611b6a82611ece565b60008060408385031215611f4857600080fd5b611f5183611ece565b9150611f5f60208401611ece565b90509250929050565b600080600060608486031215611f7d57600080fd5b611f8684611ece565b9250611f9460208501611ece565b9150604084013590509250925092565b60008060008060808587031215611fba57600080fd5b611fc385611ece565b9350611fd160208601611ece565b925060408501359150606085013567ffffffffffffffff811115611ff457600080fd5b8501601f8101871361200557600080fd5b61201487823560208401611e58565b91505092959194509250565b6000806040838503121561203357600080fd5b61203c83611ece565b9150611f5f60208401611eea565b6000806040838503121561205d57600080fd5b61206683611ece565b91506020830135600a811061207a57600080fd5b809150509250929050565b6000806040838503121561209857600080fd5b6120a183611ece565b946020939093013593505050565b6000602082840312156120c157600080fd5b611b6a82611eea565b6000602082840312156120dc57600080fd5b5035919050565b600080604083850312156120f657600080fd5b82359150611f5f60208401611ece565b60006020828403121561211857600080fd5b8135611b6a8161245c565b60006020828403121561213557600080fd5b8151611b6a8161245c565b60006020828403121561215257600080fd5b813567ffffffffffffffff81111561216957600080fd5b61198184828501611efa565b60008060006060848603121561218a57600080fd5b83359250602084013567ffffffffffffffff808211156121a957600080fd5b6121b587838801611efa565b935060408601359150808211156121cb57600080fd5b506121d886828701611efa565b9150509250925092565b600081518084526121fa816020860160208601612370565b601f01601f19169290920160200192915050565b60008251612220818460208701612370565b9190910192915050565b7f416363657373436f6e74726f6c3a206163636f756e7420000000000000000000815260008351612262816017850160208801612370565b7f206973206d697373696e6720726f6c6520000000000000000000000000000000601791840191820152835161229f816028840160208801612370565b01602801949350505050565b60006001600160a01b038087168352808616602084015250836040830152608060608301526122dd60808301846121e2565b9695505050505050565b60208101600a831061230957634e487b7160e01b600052602160045260246000fd5b91905290565b602081526000611b6a60208301846121e2565b60008219821115612335576123356123ee565b500190565b6000816000190483118215151615612354576123546123ee565b500290565b60008282101561236b5761236b6123ee565b500390565b60005b8381101561238b578181015183820152602001612373565b83811115610fd45750506000910152565b6000816123ab576123ab6123ee565b506000190190565b600181811c908216806123c757607f821691505b602082108114156123e857634e487b7160e01b600052602260045260246000fd5b50919050565b634e487b7160e01b600052601160045260246000fd5b634e487b7160e01b600052602160045260246000fd5b634e487b7160e01b600052603160045260246000fd5b634e487b7160e01b600052603260045260246000fd5b634e487b7160e01b600052604160045260246000fd5b6001600160e01b0319811681146107e057600080fdfea2646970667358221220e725eaf5674179c8e2d3a5c1a016d3fa189812c69452b335817eca7d89f6c3bd64736f6c63430008070033",
  "linkReferences": {},
  "deployedLinkReferences": {}
}