{
  "_format": "hh-sol-artifact-1",
  "contractName": "TalentNFT",
  "sourceName": "contracts/talent-nft/TalentNFT.sol",
  "abi": [
    {
      "inputs": [
        {
          "internalType": "address",
          "name": "_owner",
          "type": "address"
        },
        {
          "internalType": "string",
          "name": "_ticker",
          "type": "string"
        }
      ],
      "stateMutability": "nonpayable",
      "type": "constructor"
    },
    {
      "anonymous": false,
      "inputs": [
        {
          "indexed": true,
          "internalType": "address",
          "name": "owner",
          "type": "address"
        },
        {
          "indexed": true,
          "internalType": "address",
          "name": "approved",
          "type": "address"
        },
        {
          "indexed": true,
          "internalType": "uint256",
          "name": "tokenId",
          "type": "uint256"
        }
      ],
      "name": "Approval",
      "type": "event"
    },
    {
      "anonymous": false,
      "inputs": [
        {
          "indexed": true,
          "internalType": "address",
          "name": "owner",
          "type": "address"
        },
        {
          "indexed": true,
          "internalType": "address",
          "name": "operator",
          "type": "address"
        },
        {
          "indexed": false,
          "internalType": "bool",
          "name": "approved",
          "type": "bool"
        }
      ],
      "name": "ApprovalForAll",
      "type": "event"
    },
    {
      "anonymous": false,
      "inputs": [
        {
          "indexed": true,
          "internalType": "bytes32",
          "name": "role",
          "type": "bytes32"
        },
        {
          "indexed": true,
          "internalType": "bytes32",
          "name": "previousAdminRole",
          "type": "bytes32"
        },
        {
          "indexed": true,
          "internalType": "bytes32",
          "name": "newAdminRole",
          "type": "bytes32"
        }
      ],
      "name": "RoleAdminChanged",
      "type": "event"
    },
    {
      "anonymous": false,
      "inputs": [
        {
          "indexed": true,
          "internalType": "bytes32",
          "name": "role",
          "type": "bytes32"
        },
        {
          "indexed": true,
          "internalType": "address",
          "name": "account",
          "type": "address"
        },
        {
          "indexed": true,
          "internalType": "address",
          "name": "sender",
          "type": "address"
        }
      ],
      "name": "RoleGranted",
      "type": "event"
    },
    {
      "anonymous": false,
      "inputs": [
        {
          "indexed": true,
          "internalType": "bytes32",
          "name": "role",
          "type": "bytes32"
        },
        {
          "indexed": true,
          "internalType": "address",
          "name": "account",
          "type": "address"
        },
        {
          "indexed": true,
          "internalType": "address",
          "name": "sender",
          "type": "address"
        }
      ],
      "name": "RoleRevoked",
      "type": "event"
    },
    {
      "anonymous": false,
      "inputs": [
        {
          "indexed": true,
          "internalType": "address",
          "name": "from",
          "type": "address"
        },
        {
          "indexed": true,
          "internalType": "address",
          "name": "to",
          "type": "address"
        },
        {
          "indexed": true,
          "internalType": "uint256",
          "name": "tokenId",
          "type": "uint256"
        }
      ],
      "name": "Transfer",
      "type": "event"
    },
    {
      "inputs": [],
      "name": "DEFAULT_ADMIN_ROLE",
      "outputs": [
        {
          "internalType": "bytes32",
          "name": "",
          "type": "bytes32"
        }
      ],
      "stateMutability": "view",
      "type": "function"
    },
    {
      "inputs": [
        {
          "internalType": "address",
          "name": "_newOwner",
          "type": "address"
        }
      ],
      "name": "addOwner",
      "outputs": [],
      "stateMutability": "nonpayable",
      "type": "function"
    },
    {
      "inputs": [
        {
          "internalType": "address",
          "name": "to",
          "type": "address"
        },
        {
          "internalType": "uint256",
          "name": "tokenId",
          "type": "uint256"
        }
      ],
      "name": "approve",
      "outputs": [],
      "stateMutability": "nonpayable",
      "type": "function"
    },
    {
      "inputs": [
        {
          "internalType": "address",
          "name": "owner",
          "type": "address"
        }
      ],
      "name": "balanceOf",
      "outputs": [
        {
          "internalType": "uint256",
          "name": "",
          "type": "uint256"
        }
      ],
      "stateMutability": "view",
      "type": "function"
    },
    {
      "inputs": [
        {
          "internalType": "uint256",
          "name": "tokenId",
          "type": "uint256"
        }
      ],
      "name": "getApproved",
      "outputs": [
        {
          "internalType": "address",
          "name": "",
          "type": "address"
        }
      ],
      "stateMutability": "view",
      "type": "function"
    },
    {
      "inputs": [],
      "name": "getPublicStageFlag",
      "outputs": [
        {
          "internalType": "bool",
          "name": "",
          "type": "bool"
        }
      ],
      "stateMutability": "view",
      "type": "function"
    },
    {
      "inputs": [
        {
          "internalType": "bytes32",
          "name": "role",
          "type": "bytes32"
        }
      ],
      "name": "getRoleAdmin",
      "outputs": [
        {
          "internalType": "bytes32",
          "name": "",
          "type": "bytes32"
        }
      ],
      "stateMutability": "view",
      "type": "function"
    },
    {
      "inputs": [
        {
          "internalType": "bytes32",
          "name": "role",
          "type": "bytes32"
        },
        {
          "internalType": "address",
          "name": "account",
          "type": "address"
        }
      ],
      "name": "grantRole",
      "outputs": [],
      "stateMutability": "nonpayable",
      "type": "function"
    },
    {
      "inputs": [
        {
          "internalType": "bytes32",
          "name": "role",
          "type": "bytes32"
        },
        {
          "internalType": "address",
          "name": "account",
          "type": "address"
        }
      ],
      "name": "hasRole",
      "outputs": [
        {
          "internalType": "bool",
          "name": "",
          "type": "bool"
        }
      ],
      "stateMutability": "view",
      "type": "function"
    },
    {
      "inputs": [
        {
          "internalType": "address",
          "name": "owner",
          "type": "address"
        },
        {
          "internalType": "address",
          "name": "operator",
          "type": "address"
        }
      ],
      "name": "isApprovedForAll",
      "outputs": [
        {
          "internalType": "bool",
          "name": "",
          "type": "bool"
        }
      ],
      "stateMutability": "view",
      "type": "function"
    },
    {
      "inputs": [
        {
          "internalType": "string",
          "name": "combination",
          "type": "string"
        }
      ],
      "name": "isCombinationAvailable",
      "outputs": [
        {
          "internalType": "bool",
          "name": "",
          "type": "bool"
        }
      ],
      "stateMutability": "view",
      "type": "function"
    },
    {
      "inputs": [
        {
          "internalType": "address",
          "name": "account",
          "type": "address"
        }
      ],
      "name": "isWhitelisted",
      "outputs": [
        {
          "internalType": "bool",
          "name": "",
          "type": "bool"
        }
      ],
      "stateMutability": "view",
      "type": "function"
    },
    {
      "inputs": [],
      "name": "mint",
      "outputs": [],
      "stateMutability": "nonpayable",
      "type": "function"
    },
    {
      "inputs": [],
      "name": "name",
      "outputs": [
        {
          "internalType": "string",
          "name": "",
          "type": "string"
        }
      ],
      "stateMutability": "view",
      "type": "function"
    },
    {
      "inputs": [
        {
          "internalType": "uint256",
          "name": "tokenId",
          "type": "uint256"
        }
      ],
      "name": "ownerOf",
      "outputs": [
        {
          "internalType": "address",
          "name": "",
          "type": "address"
        }
      ],
      "stateMutability": "view",
      "type": "function"
    },
    {
      "inputs": [
        {
          "internalType": "bytes32",
          "name": "role",
          "type": "bytes32"
        },
        {
          "internalType": "address",
          "name": "account",
          "type": "address"
        }
      ],
      "name": "renounceRole",
      "outputs": [],
      "stateMutability": "nonpayable",
      "type": "function"
    },
    {
      "inputs": [
        {
          "internalType": "bytes32",
          "name": "role",
          "type": "bytes32"
        },
        {
          "internalType": "address",
          "name": "account",
          "type": "address"
        }
      ],
      "name": "revokeRole",
      "outputs": [],
      "stateMutability": "nonpayable",
      "type": "function"
    },
    {
      "inputs": [
        {
          "internalType": "address",
          "name": "from",
          "type": "address"
        },
        {
          "internalType": "address",
          "name": "to",
          "type": "address"
        },
        {
          "internalType": "uint256",
          "name": "tokenId",
          "type": "uint256"
        }
      ],
      "name": "safeTransferFrom",
      "outputs": [],
      "stateMutability": "nonpayable",
      "type": "function"
    },
    {
      "inputs": [
        {
          "internalType": "address",
          "name": "from",
          "type": "address"
        },
        {
          "internalType": "address",
          "name": "to",
          "type": "address"
        },
        {
          "internalType": "uint256",
          "name": "tokenId",
          "type": "uint256"
        },
        {
          "internalType": "bytes",
          "name": "data",
          "type": "bytes"
        }
      ],
      "name": "safeTransferFrom",
      "outputs": [],
      "stateMutability": "pure",
      "type": "function"
    },
    {
      "inputs": [
        {
          "internalType": "address",
          "name": "operator",
          "type": "address"
        },
        {
          "internalType": "bool",
          "name": "approved",
          "type": "bool"
        }
      ],
      "name": "setApprovalForAll",
      "outputs": [],
      "stateMutability": "nonpayable",
      "type": "function"
    },
    {
      "inputs": [
        {
          "internalType": "string",
          "name": "baseURI_",
          "type": "string"
        }
      ],
      "name": "setBaseURI",
      "outputs": [],
      "stateMutability": "nonpayable",
      "type": "function"
    },
    {
      "inputs": [
        {
          "internalType": "bool",
          "name": "newFlagValue",
          "type": "bool"
        }
      ],
      "name": "setPublicStageFlag",
      "outputs": [],
      "stateMutability": "nonpayable",
      "type": "function"
    },
    {
      "inputs": [
        {
          "internalType": "uint256",
          "name": "tokenId",
          "type": "uint256"
        },
        {
          "internalType": "string",
          "name": "tokenMetadataURI",
          "type": "string"
        },
        {
          "internalType": "string",
          "name": "combination",
          "type": "string"
        }
      ],
      "name": "setTokenURI",
      "outputs": [],
      "stateMutability": "nonpayable",
      "type": "function"
    },
    {
      "inputs": [
        {
          "internalType": "bytes4",
          "name": "interfaceId",
          "type": "bytes4"
        }
      ],
      "name": "supportsInterface",
      "outputs": [
        {
          "internalType": "bool",
          "name": "",
          "type": "bool"
        }
      ],
      "stateMutability": "view",
      "type": "function"
    },
    {
      "inputs": [],
      "name": "symbol",
      "outputs": [
        {
          "internalType": "string",
          "name": "",
          "type": "string"
        }
      ],
      "stateMutability": "view",
      "type": "function"
    },
    {
      "inputs": [
        {
          "internalType": "uint256",
          "name": "index",
          "type": "uint256"
        }
      ],
      "name": "tokenByIndex",
      "outputs": [
        {
          "internalType": "uint256",
          "name": "",
          "type": "uint256"
        }
      ],
      "stateMutability": "view",
      "type": "function"
    },
    {
      "inputs": [
        {
          "internalType": "address",
          "name": "owner",
          "type": "address"
        },
        {
          "internalType": "uint256",
          "name": "index",
          "type": "uint256"
        }
      ],
      "name": "tokenOfOwnerByIndex",
      "outputs": [
        {
          "internalType": "uint256",
          "name": "",
          "type": "uint256"
        }
      ],
      "stateMutability": "view",
      "type": "function"
    },
    {
      "inputs": [
        {
          "internalType": "uint256",
          "name": "tokenId",
          "type": "uint256"
        }
      ],
      "name": "tokenURI",
      "outputs": [
        {
          "internalType": "string",
          "name": "",
          "type": "string"
        }
      ],
      "stateMutability": "view",
      "type": "function"
    },
    {
      "inputs": [],
      "name": "totalSupply",
      "outputs": [
        {
          "internalType": "uint256",
          "name": "",
          "type": "uint256"
        }
      ],
      "stateMutability": "view",
      "type": "function"
    },
    {
      "inputs": [
        {
          "internalType": "address",
          "name": "from",
          "type": "address"
        },
        {
          "internalType": "address",
          "name": "to",
          "type": "address"
        },
        {
          "internalType": "uint256",
          "name": "tokenId",
          "type": "uint256"
        }
      ],
      "name": "transferFrom",
      "outputs": [],
      "stateMutability": "pure",
      "type": "function"
    },
    {
      "inputs": [
        {
          "internalType": "address",
          "name": "_to",
          "type": "address"
        },
        {
          "internalType": "enum TIERS",
          "name": "tier",
          "type": "uint8"
        }
      ],
      "name": "whitelistAddress",
      "outputs": [],
      "stateMutability": "nonpayable",
      "type": "function"
    }
  ],
  "bytecode": "0x6080604052600f805460ff191690553480156200001b57600080fd5b50604051620027c7380380620027c78339810160408190526200003e916200020f565b60408051808201909152601e8082527f54616c656e742050726f746f636f6c204e465420436f6c6c656374696f6e0000602083019081528391620000859160009162000169565b5080516200009b90600190602084019062000169565b50620000ad91506000905083620000b5565b505062000362565b620000c18282620000c5565b5050565b6000828152600a602090815260408083206001600160a01b038516845290915290205460ff16620000c1576000828152600a602090815260408083206001600160a01b03851684529091529020805460ff19166001179055620001253390565b6001600160a01b0316816001600160a01b0316837f2f8788117e7eff1d82e926ec794901d17c78024a50270940304540a733656f0d60405160405180910390a45050565b82805462000177906200030f565b90600052602060002090601f0160209004810192826200019b5760008555620001e6565b82601f10620001b657805160ff1916838001178555620001e6565b82800160010185558215620001e6579182015b82811115620001e6578251825591602001919060010190620001c9565b50620001f4929150620001f8565b5090565b5b80821115620001f45760008155600101620001f9565b600080604083850312156200022357600080fd5b82516001600160a01b03811681146200023b57600080fd5b602084810151919350906001600160401b03808211156200025b57600080fd5b818601915086601f8301126200027057600080fd5b8151818111156200028557620002856200034c565b604051601f8201601f19908116603f01168101908382118183101715620002b057620002b06200034c565b816040528281528986848701011115620002c957600080fd5b600093505b82841015620002ed5784840186015181850187015292850192620002ce565b82841115620002ff5760008684830101525b8096505050505050509250929050565b600181811c908216806200032457607f821691505b602082108114156200034657634e487b7160e01b600052602260045260246000fd5b50919050565b634e487b7160e01b600052604160045260246000fd5b61245580620003726000396000f3fe608060405234801561001057600080fd5b50600436106101e55760003560e01c806355f804b31161010f5780639d0234fe116100a2578063b88d4fde11610071578063b88d4fde14610428578063c87b56dd14610436578063d547741f14610449578063e985e9c51461045c57600080fd5b80639d0234fe146103ef578063a217fddf146103fa578063a22cb46514610402578063b430a5d91461041557600080fd5b806370a08231116100de57806370a082311461038857806377f06adf1461039b57806391d14854146103ae57806395d89b41146103e757600080fd5b806355f804b31461033c5780636352211e1461034f5780636b9a5c6c146103625780637065cb481461037557600080fd5b8063248a9ca31161018757806339a95a0f1161015657806339a95a0f146102f05780633af32abf1461030357806342842e0e146103165780634f6ccce71461032957600080fd5b8063248a9ca3146102945780632f2ff15d146102b75780632f745c59146102ca57806336568abe146102dd57600080fd5b8063095ea7b3116101c3578063095ea7b3146102525780631249c58b1461026757806318160ddd1461026f57806323b872dd1461028157600080fd5b806301ffc9a7146101ea57806306fdde0314610212578063081812fc14610227575b600080fd5b6101fd6101f83660046120db565b610498565b60405190151581526020015b60405180910390f35b61021a6104a9565b60405161020991906122bc565b61023a61023536600461209f565b61053b565b6040516001600160a01b039091168152602001610209565b61026561026036600461205a565b610562565b005b610265610699565b6008545b604051908152602001610209565b61026561028f366004611f3d565b6107b8565b6102736102a236600461209f565b6000908152600a602052604090206001015490565b6102656102c53660046120b8565b610800565b6102736102d836600461205a565b610825565b6102656102eb3660046120b8565b6108cd565b6101fd6102fe366004612115565b610959565b6101fd610311366004611eef565b610982565b610265610324366004611f3d565b6109b2565b61027361033736600461209f565b6109cd565b61026561034a366004612115565b610a71565b61023a61035d36600461209f565b610a8f565b61026561037036600461201f565b610af4565b610265610383366004611eef565b610bc5565b610273610396366004611eef565b610bdb565b6102656103a936600461214a565b610c75565b6101fd6103bc3660046120b8565b6000918252600a602090815260408084206001600160a01b0393909316845291905290205460ff1690565b61021a610e5b565b600f5460ff166101fd565b610273600081565b610265610410366004611ff5565b610e6a565b610265610423366004612084565b610e75565b61026561028f366004611f79565b61021a61044436600461209f565b610f3f565b6102656104573660046120b8565b6110da565b6101fd61046a366004611f0a565b6001600160a01b03918216600090815260056020908152604080832093909416825291909152205460ff1690565b60006104a3826110ff565b92915050565b6060600080546104b890612360565b80601f01602080910402602001604051908101604052809291908181526020018280546104e490612360565b80156105315780601f1061050657610100808354040283529160200191610531565b820191906000526020600020905b81548152906001019060200180831161051457829003601f168201915b5050505050905090565b60006105468261113d565b506000908152600460205260409020546001600160a01b031690565b600061056d82610a8f565b9050806001600160a01b0316836001600160a01b031614156105fc5760405162461bcd60e51b815260206004820152602160248201527f4552433732313a20617070726f76616c20746f2063757272656e74206f776e6560448201527f720000000000000000000000000000000000000000000000000000000000000060648201526084015b60405180910390fd5b336001600160a01b03821614806106185750610618813361046a565b61068a5760405162461bcd60e51b815260206004820152603e60248201527f4552433732313a20617070726f76652063616c6c6572206973206e6f7420746f60448201527f6b656e206f776e6572206e6f7220617070726f76656420666f7220616c6c000060648201526084016105f3565b61069483836111a1565b505050565b6106a233610982565b6107145760405162461bcd60e51b815260206004820152602d60248201527f4d696e74696e67206e6f7420616c6c6f77656420776974682063757272656e7460448201527f2073656e64657220726f6c65730000000000000000000000000000000000000060648201526084016105f3565b61071d33610bdb565b156107905760405162461bcd60e51b815260206004820152602960248201527f416464726573732068617320616c7265616479206d696e746564206f6e65205460448201527f616c656e74204e4654000000000000000000000000000000000000000000000060648201526084016105f3565b61079e600b80546001019055565b60006107a9600b5490565b90506107b5338261121c565b50565b60405162461bcd60e51b815260206004820152601e60248201527f54616c656e74204e4654206973206e6f6e2d7472616e7366657261626c65000060448201526064016105f3565b6000828152600a602052604090206001015461081b81611236565b6106948383611240565b600061083083610bdb565b82106108a45760405162461bcd60e51b815260206004820152602b60248201527f455243373231456e756d657261626c653a206f776e657220696e646578206f7560448201527f74206f6620626f756e647300000000000000000000000000000000000000000060648201526084016105f3565b506001600160a01b03919091166000908152600660209081526040808320938352929052205490565b6001600160a01b038116331461094b5760405162461bcd60e51b815260206004820152602f60248201527f416363657373436f6e74726f6c3a2063616e206f6e6c792072656e6f756e636560448201527f20726f6c657320666f722073656c66000000000000000000000000000000000060648201526084016105f3565b61095582826112e2565b5050565b6000600e8260405161096b91906121e3565b908152604051908190036020019020541592915050565b60008061098e83611365565b600981111561099f5761099f6123b1565b11806104a35750600f5460ff1692915050565b610694838383604051806020016040528060008152506107b8565b60006109d860085490565b8210610a4c5760405162461bcd60e51b815260206004820152602c60248201527f455243373231456e756d657261626c653a20676c6f62616c20696e646578206f60448201527f7574206f6620626f756e6473000000000000000000000000000000000000000060648201526084016105f3565b60088281548110610a5f57610a5f6123dd565b90600052602060002001549050919050565b6000610a7c81611236565b815161069490600c906020850190611d94565b6000818152600260205260408120546001600160a01b0316806104a35760405162461bcd60e51b815260206004820152601860248201527f4552433732313a20696e76616c696420746f6b656e204944000000000000000060448201526064016105f3565b6000610aff81611236565b6001826009811115610b1357610b136123b1565b11610b865760405162461bcd60e51b815260206004820152603a60248201527f546865207469657220676976656e206e6565647320746f20626520677265617460448201527f6572207468616e2054494552532e5055424c49435f535441474500000000000060648201526084016105f3565b6001600160a01b0383166000908152601060205260409020805483919060ff19166001836009811115610bbb57610bbb6123b1565b0217905550505050565b6000610bd081611236565b6109556000836113d5565b60006001600160a01b038216610c595760405162461bcd60e51b815260206004820152602960248201527f4552433732313a2061646472657373207a65726f206973206e6f74206120766160448201527f6c6964206f776e6572000000000000000000000000000000000000000000000060648201526084016105f3565b506001600160a01b031660009081526003602052604090205490565b6000610c8081611236565b6000848152600260205260409020546001600160a01b0316610d0a5760405162461bcd60e51b815260206004820152602f60248201527f4552433732314d657461646174613a2055524920717565727920666f72206e6f60448201527f6e6578697374656e7420746f6b656e000000000000000000000000000000000060648201526084016105f3565b6000848152600d602052604090208054610d2390612360565b159050610d985760405162461bcd60e51b815260206004820152602b60248201527f4d657461646174612077617320616c726561647920646566696e656420666f7260448201527f207468697320746f6b656e00000000000000000000000000000000000000000060648201526084016105f3565b610da182610959565b610e135760405162461bcd60e51b815260206004820152602360248201527f5468697320636f6d62696e6174696f6e2077617320616c7265616479206d696e60448201527f746564000000000000000000000000000000000000000000000000000000000060648201526084016105f3565b83600e83604051610e2491906121e3565b9081526040805160209281900383019020929092556000868152600d8252919091208451610e5492860190611d94565b5050505050565b6060600180546104b890612360565b6109553383836113df565b6000610e8081611236565b600f5460ff1615158215151415610f255760405162461bcd60e51b815260206004820152605c60248201527f556e61626c6520746f206368616e6765205f7075626c69635374616765466c6160448201527f672076616c7565206265636175736520746865206e65772076616c756520697360648201527f207468652073616d65206173207468652063757272656e74206f6e6500000000608482015260a4016105f3565b50600f805460ff1916911515919091179055565b50505050565b6000818152600260205260409020546060906001600160a01b0316610fcc5760405162461bcd60e51b815260206004820152602f60248201527f4552433732314d657461646174613a2055524920717565727920666f72206e6f60448201527f6e6578697374656e7420746f6b656e000000000000000000000000000000000060648201526084016105f3565b6000610fd66114ae565b905080516000141561102a5760405162461bcd60e51b815260206004820152601060248201527f4261736520555249206e6f74207365740000000000000000000000000000000060448201526064016105f3565b6000838152600d60205260408120805461104390612360565b80601f016020809104026020016040519081016040528092919081815260200182805461106f90612360565b80156110bc5780601f10611091576101008083540402835291602001916110bc565b820191906000526020600020905b81548152906001019060200180831161109f57829003601f168201915b5050505050905080516000146110d3579392505050565b5092915050565b6000828152600a60205260409020600101546110f581611236565b61069483836112e2565b60006001600160e01b031982167f7965db0b0000000000000000000000000000000000000000000000000000000014806104a357506104a3826114bd565b6000818152600260205260409020546001600160a01b03166107b55760405162461bcd60e51b815260206004820152601860248201527f4552433732313a20696e76616c696420746f6b656e204944000000000000000060448201526064016105f3565b6000818152600460205260409020805473ffffffffffffffffffffffffffffffffffffffff19166001600160a01b03841690811790915581906111e382610a8f565b6001600160a01b03167f8c5be1e5ebec7d5bd14f71427d1e84f3dd0314c0f7b2291e5b200ac8c7c3b92560405160405180910390a45050565b6109558282604051806020016040528060008152506114fb565b6107b58133611584565b6000828152600a602090815260408083206001600160a01b038516845290915290205460ff16610955576000828152600a602090815260408083206001600160a01b03851684529091529020805460ff1916600117905561129e3390565b6001600160a01b0316816001600160a01b0316837f2f8788117e7eff1d82e926ec794901d17c78024a50270940304540a733656f0d60405160405180910390a45050565b6000828152600a602090815260408083206001600160a01b038516845290915290205460ff1615610955576000828152600a602090815260408083206001600160a01b0385168085529252808320805460ff1916905551339285917ff6391f5c32d9c69d2a47ea670b442974b53935d1edc7fd64eb21e047a839171b9190a45050565b600f5460009060ff161561137b57506001919050565b6001600160a01b03821660009081526010602052604081205460ff1660098111156113a8576113a86123b1565b14156113b657506000919050565b506001600160a01b031660009081526010602052604090205460ff1690565b6109558282611240565b816001600160a01b0316836001600160a01b031614156114415760405162461bcd60e51b815260206004820152601960248201527f4552433732313a20617070726f766520746f2063616c6c65720000000000000060448201526064016105f3565b6001600160a01b03838116600081815260056020908152604080832094871680845294825291829020805460ff191686151590811790915591519182527f17307eab39ab6107e8899845ad3d59bd9653f200f220920489ca2b5937696c31910160405180910390a3505050565b6060600c80546104b890612360565b60006001600160e01b031982167f780e9d630000000000000000000000000000000000000000000000000000000014806104a357506104a382611604565b611505838361169f565b61151260008484846117fa565b6106945760405162461bcd60e51b815260206004820152603260248201527f4552433732313a207472616e7366657220746f206e6f6e20455243373231526560448201527f63656976657220696d706c656d656e746572000000000000000000000000000060648201526084016105f3565b6000828152600a602090815260408083206001600160a01b038516845290915290205460ff16610955576115c2816001600160a01b0316601461195e565b6115cd83602061195e565b6040516020016115de9291906121ff565b60408051601f198184030181529082905262461bcd60e51b82526105f3916004016122bc565b60006001600160e01b031982167f80ac58cd00000000000000000000000000000000000000000000000000000000148061166757506001600160e01b031982167f5b5e139f00000000000000000000000000000000000000000000000000000000145b806104a357507f01ffc9a7000000000000000000000000000000000000000000000000000000006001600160e01b03198316146104a3565b6001600160a01b0382166116f55760405162461bcd60e51b815260206004820181905260248201527f4552433732313a206d696e7420746f20746865207a65726f206164647265737360448201526064016105f3565b6000818152600260205260409020546001600160a01b03161561175a5760405162461bcd60e51b815260206004820152601c60248201527f4552433732313a20746f6b656e20616c7265616479206d696e7465640000000060448201526064016105f3565b61176660008383611b46565b6001600160a01b038216600090815260036020526040812080546001929061178f9084906122cf565b9091555050600081815260026020526040808220805473ffffffffffffffffffffffffffffffffffffffff19166001600160a01b03861690811790915590518392907fddf252ad1be2c89b69c2b068fc378daa952ba7f163c4a11628f55a4df523b3ef908290a45050565b60006001600160a01b0384163b1561195257604051630a85bd0160e11b81526001600160a01b0385169063150b7a029061183e903390899088908890600401612280565b602060405180830381600087803b15801561185857600080fd5b505af1925050508015611888575060408051601f3d908101601f19168201909252611885918101906120f8565b60015b611938573d8080156118b6576040519150601f19603f3d011682016040523d82523d6000602084013e6118bb565b606091505b5080516119305760405162461bcd60e51b815260206004820152603260248201527f4552433732313a207472616e7366657220746f206e6f6e20455243373231526560448201527f63656976657220696d706c656d656e746572000000000000000000000000000060648201526084016105f3565b805181602001fd5b6001600160e01b031916630a85bd0160e11b149050611956565b5060015b949350505050565b6060600061196d8360026122e7565b6119789060026122cf565b67ffffffffffffffff811115611990576119906123f3565b6040519080825280601f01601f1916602001820160405280156119ba576020820181803683370190505b5090507f3000000000000000000000000000000000000000000000000000000000000000816000815181106119f1576119f16123dd565b60200101906001600160f81b031916908160001a9053507f780000000000000000000000000000000000000000000000000000000000000081600181518110611a3c57611a3c6123dd565b60200101906001600160f81b031916908160001a9053506000611a608460026122e7565b611a6b9060016122cf565b90505b6001811115611af0577f303132333435363738396162636465660000000000000000000000000000000085600f1660108110611aac57611aac6123dd565b1a60f81b828281518110611ac257611ac26123dd565b60200101906001600160f81b031916908160001a90535060049490941c93611ae981612349565b9050611a6e565b508315611b3f5760405162461bcd60e51b815260206004820181905260248201527f537472696e67733a20686578206c656e67746820696e73756666696369656e7460448201526064016105f3565b9392505050565b6106948383836001600160a01b038316611ba757611ba281600880546000838152600960205260408120829055600182018355919091527ff3f7a9fe364faab93b216da50a3214154f22a0a2b415b23a84c8169e8b636ee30155565b611bca565b816001600160a01b0316836001600160a01b031614611bca57611bca8382611c04565b6001600160a01b038216611be15761069481611ca1565b826001600160a01b0316826001600160a01b031614610694576106948282611d50565b60006001611c1184610bdb565b611c1b9190612306565b600083815260076020526040902054909150808214611c6e576001600160a01b03841660009081526006602090815260408083208584528252808320548484528184208190558352600790915290208190555b5060009182526007602090815260408084208490556001600160a01b039094168352600681528383209183525290812055565b600854600090611cb390600190612306565b60008381526009602052604081205460088054939450909284908110611cdb57611cdb6123dd565b906000526020600020015490508060088381548110611cfc57611cfc6123dd565b6000918252602080832090910192909255828152600990915260408082208490558582528120556008805480611d3457611d346123c7565b6001900381819060005260206000200160009055905550505050565b6000611d5b83610bdb565b6001600160a01b039093166000908152600660209081526040808320868452825280832085905593825260079052919091209190915550565b828054611da090612360565b90600052602060002090601f016020900481019282611dc25760008555611e08565b82601f10611ddb57805160ff1916838001178555611e08565b82800160010185558215611e08579182015b82811115611e08578251825591602001919060010190611ded565b50611e14929150611e18565b5090565b5b80821115611e145760008155600101611e19565b600067ffffffffffffffff80841115611e4857611e486123f3565b604051601f8501601f19908116603f01168101908282118183101715611e7057611e706123f3565b81604052809350858152868686011115611e8957600080fd5b858560208301376000602087830101525050509392505050565b80356001600160a01b0381168114611eba57600080fd5b919050565b80358015158114611eba57600080fd5b600082601f830112611ee057600080fd5b611b3f83833560208501611e2d565b600060208284031215611f0157600080fd5b611b3f82611ea3565b60008060408385031215611f1d57600080fd5b611f2683611ea3565b9150611f3460208401611ea3565b90509250929050565b600080600060608486031215611f5257600080fd5b611f5b84611ea3565b9250611f6960208501611ea3565b9150604084013590509250925092565b60008060008060808587031215611f8f57600080fd5b611f9885611ea3565b9350611fa660208601611ea3565b925060408501359150606085013567ffffffffffffffff811115611fc957600080fd5b8501601f81018713611fda57600080fd5b611fe987823560208401611e2d565b91505092959194509250565b6000806040838503121561200857600080fd5b61201183611ea3565b9150611f3460208401611ebf565b6000806040838503121561203257600080fd5b61203b83611ea3565b91506020830135600a811061204f57600080fd5b809150509250929050565b6000806040838503121561206d57600080fd5b61207683611ea3565b946020939093013593505050565b60006020828403121561209657600080fd5b611b3f82611ebf565b6000602082840312156120b157600080fd5b5035919050565b600080604083850312156120cb57600080fd5b82359150611f3460208401611ea3565b6000602082840312156120ed57600080fd5b8135611b3f81612409565b60006020828403121561210a57600080fd5b8151611b3f81612409565b60006020828403121561212757600080fd5b813567ffffffffffffffff81111561213e57600080fd5b61195684828501611ecf565b60008060006060848603121561215f57600080fd5b83359250602084013567ffffffffffffffff8082111561217e57600080fd5b61218a87838801611ecf565b935060408601359150808211156121a057600080fd5b506121ad86828701611ecf565b9150509250925092565b600081518084526121cf81602086016020860161231d565b601f01601f19169290920160200192915050565b600082516121f581846020870161231d565b9190910192915050565b7f416363657373436f6e74726f6c3a206163636f756e742000000000000000000081526000835161223781601785016020880161231d565b7f206973206d697373696e6720726f6c6520000000000000000000000000000000601791840191820152835161227481602884016020880161231d565b01602801949350505050565b60006001600160a01b038087168352808616602084015250836040830152608060608301526122b260808301846121b7565b9695505050505050565b602081526000611b3f60208301846121b7565b600082198211156122e2576122e261239b565b500190565b60008160001904831182151516156123015761230161239b565b500290565b6000828210156123185761231861239b565b500390565b60005b83811015612338578181015183820152602001612320565b83811115610f395750506000910152565b6000816123585761235861239b565b506000190190565b600181811c9082168061237457607f821691505b6020821081141561239557634e487b7160e01b600052602260045260246000fd5b50919050565b634e487b7160e01b600052601160045260246000fd5b634e487b7160e01b600052602160045260246000fd5b634e487b7160e01b600052603160045260246000fd5b634e487b7160e01b600052603260045260246000fd5b634e487b7160e01b600052604160045260246000fd5b6001600160e01b0319811681146107b557600080fdfea2646970667358221220af3ad64b5ddf6bb614f9deef29c377ae023441d0b0c05f8e87b5ba0b88e43e2f64736f6c63430008070033",
  "linkReferences": {},
  "deployedLinkReferences": {}
}