{
  "_format": "hh-sol-artifact-1",
  "contractName": "TalentNFT",
  "sourceName": "contracts/talent-nft/TalentNFT.sol",
  "abi": [
    {
      "inputs": [
        {
          "internalType": "address",
          "name": "_owner",
          "type": "address"
        },
        {
          "internalType": "string",
          "name": "_ticker",
          "type": "string"
        }
      ],
      "stateMutability": "nonpayable",
      "type": "constructor"
    },
    {
      "anonymous": false,
      "inputs": [
        {
          "indexed": true,
          "internalType": "address",
          "name": "owner",
          "type": "address"
        },
        {
          "indexed": true,
          "internalType": "address",
          "name": "approved",
          "type": "address"
        },
        {
          "indexed": true,
          "internalType": "uint256",
          "name": "tokenId",
          "type": "uint256"
        }
      ],
      "name": "Approval",
      "type": "event"
    },
    {
      "anonymous": false,
      "inputs": [
        {
          "indexed": true,
          "internalType": "address",
          "name": "owner",
          "type": "address"
        },
        {
          "indexed": true,
          "internalType": "address",
          "name": "operator",
          "type": "address"
        },
        {
          "indexed": false,
          "internalType": "bool",
          "name": "approved",
          "type": "bool"
        }
      ],
      "name": "ApprovalForAll",
      "type": "event"
    },
    {
      "anonymous": false,
      "inputs": [
        {
          "indexed": true,
          "internalType": "bytes32",
          "name": "role",
          "type": "bytes32"
        },
        {
          "indexed": true,
          "internalType": "bytes32",
          "name": "previousAdminRole",
          "type": "bytes32"
        },
        {
          "indexed": true,
          "internalType": "bytes32",
          "name": "newAdminRole",
          "type": "bytes32"
        }
      ],
      "name": "RoleAdminChanged",
      "type": "event"
    },
    {
      "anonymous": false,
      "inputs": [
        {
          "indexed": true,
          "internalType": "bytes32",
          "name": "role",
          "type": "bytes32"
        },
        {
          "indexed": true,
          "internalType": "address",
          "name": "account",
          "type": "address"
        },
        {
          "indexed": true,
          "internalType": "address",
          "name": "sender",
          "type": "address"
        }
      ],
      "name": "RoleGranted",
      "type": "event"
    },
    {
      "anonymous": false,
      "inputs": [
        {
          "indexed": true,
          "internalType": "bytes32",
          "name": "role",
          "type": "bytes32"
        },
        {
          "indexed": true,
          "internalType": "address",
          "name": "account",
          "type": "address"
        },
        {
          "indexed": true,
          "internalType": "address",
          "name": "sender",
          "type": "address"
        }
      ],
      "name": "RoleRevoked",
      "type": "event"
    },
    {
      "anonymous": false,
      "inputs": [
        {
          "indexed": true,
          "internalType": "address",
          "name": "from",
          "type": "address"
        },
        {
          "indexed": true,
          "internalType": "address",
          "name": "to",
          "type": "address"
        },
        {
          "indexed": true,
          "internalType": "uint256",
          "name": "tokenId",
          "type": "uint256"
        }
      ],
      "name": "Transfer",
      "type": "event"
    },
    {
      "inputs": [],
      "name": "DEFAULT_ADMIN_ROLE",
      "outputs": [
        {
          "internalType": "bytes32",
          "name": "",
          "type": "bytes32"
        }
      ],
      "stateMutability": "view",
      "type": "function"
    },
    {
      "inputs": [
        {
          "internalType": "address",
          "name": "_newOwner",
          "type": "address"
        }
      ],
      "name": "addOwner",
      "outputs": [],
      "stateMutability": "nonpayable",
      "type": "function"
    },
    {
      "inputs": [
        {
          "internalType": "address",
          "name": "to",
          "type": "address"
        },
        {
          "internalType": "uint256",
          "name": "tokenId",
          "type": "uint256"
        }
      ],
      "name": "approve",
      "outputs": [],
      "stateMutability": "nonpayable",
      "type": "function"
    },
    {
      "inputs": [
        {
          "internalType": "address",
          "name": "owner",
          "type": "address"
        }
      ],
      "name": "balanceOf",
      "outputs": [
        {
          "internalType": "uint256",
          "name": "",
          "type": "uint256"
        }
      ],
      "stateMutability": "view",
      "type": "function"
    },
    {
      "inputs": [
        {
          "internalType": "address",
          "name": "userWallet",
          "type": "address"
        },
        {
          "internalType": "string",
          "name": "mintingToken",
          "type": "string"
        }
      ],
      "name": "createMintingToken",
      "outputs": [],
      "stateMutability": "nonpayable",
      "type": "function"
    },
    {
      "inputs": [
        {
          "internalType": "uint256",
          "name": "tokenId",
          "type": "uint256"
        }
      ],
      "name": "getApproved",
      "outputs": [
        {
          "internalType": "address",
          "name": "",
          "type": "address"
        }
      ],
      "stateMutability": "view",
      "type": "function"
    },
    {
      "inputs": [],
      "name": "getPublicStageFlag",
      "outputs": [
        {
          "internalType": "bool",
          "name": "",
          "type": "bool"
        }
      ],
      "stateMutability": "view",
      "type": "function"
    },
    {
      "inputs": [
        {
          "internalType": "bytes32",
          "name": "role",
          "type": "bytes32"
        }
      ],
      "name": "getRoleAdmin",
      "outputs": [
        {
          "internalType": "bytes32",
          "name": "",
          "type": "bytes32"
        }
      ],
      "stateMutability": "view",
      "type": "function"
    },
    {
      "inputs": [
        {
          "internalType": "bytes32",
          "name": "role",
          "type": "bytes32"
        },
        {
          "internalType": "address",
          "name": "account",
          "type": "address"
        }
      ],
      "name": "grantRole",
      "outputs": [],
      "stateMutability": "nonpayable",
      "type": "function"
    },
    {
      "inputs": [
        {
          "internalType": "bytes32",
          "name": "role",
          "type": "bytes32"
        },
        {
          "internalType": "address",
          "name": "account",
          "type": "address"
        }
      ],
      "name": "hasRole",
      "outputs": [
        {
          "internalType": "bool",
          "name": "",
          "type": "bool"
        }
      ],
      "stateMutability": "view",
      "type": "function"
    },
    {
      "inputs": [
        {
          "internalType": "address",
          "name": "owner",
          "type": "address"
        },
        {
          "internalType": "address",
          "name": "operator",
          "type": "address"
        }
      ],
      "name": "isApprovedForAll",
      "outputs": [
        {
          "internalType": "bool",
          "name": "",
          "type": "bool"
        }
      ],
      "stateMutability": "view",
      "type": "function"
    },
    {
      "inputs": [
        {
          "internalType": "string",
          "name": "combination",
          "type": "string"
        }
      ],
      "name": "isCombinationaAvailable",
      "outputs": [
        {
          "internalType": "bool",
          "name": "",
          "type": "bool"
        }
      ],
      "stateMutability": "view",
      "type": "function"
    },
    {
      "inputs": [
        {
          "internalType": "address",
          "name": "account",
          "type": "address"
        }
      ],
      "name": "isWhitelisted",
      "outputs": [
        {
          "internalType": "bool",
          "name": "",
          "type": "bool"
        }
      ],
      "stateMutability": "view",
      "type": "function"
    },
    {
      "inputs": [
        {
          "internalType": "string",
          "name": "combination",
          "type": "string"
        }
      ],
      "name": "mint",
      "outputs": [],
      "stateMutability": "nonpayable",
      "type": "function"
    },
    {
      "inputs": [],
      "name": "name",
      "outputs": [
        {
          "internalType": "string",
          "name": "",
          "type": "string"
        }
      ],
      "stateMutability": "view",
      "type": "function"
    },
    {
      "inputs": [
        {
          "internalType": "uint256",
          "name": "tokenId",
          "type": "uint256"
        }
      ],
      "name": "ownerOf",
      "outputs": [
        {
          "internalType": "address",
          "name": "",
          "type": "address"
        }
      ],
      "stateMutability": "view",
      "type": "function"
    },
    {
      "inputs": [
        {
          "internalType": "bytes32",
          "name": "role",
          "type": "bytes32"
        },
        {
          "internalType": "address",
          "name": "account",
          "type": "address"
        }
      ],
      "name": "renounceRole",
      "outputs": [],
      "stateMutability": "nonpayable",
      "type": "function"
    },
    {
      "inputs": [
        {
          "internalType": "bytes32",
          "name": "role",
          "type": "bytes32"
        },
        {
          "internalType": "address",
          "name": "account",
          "type": "address"
        }
      ],
      "name": "revokeRole",
      "outputs": [],
      "stateMutability": "nonpayable",
      "type": "function"
    },
    {
      "inputs": [
        {
          "internalType": "address",
          "name": "from",
          "type": "address"
        },
        {
          "internalType": "address",
          "name": "to",
          "type": "address"
        },
        {
          "internalType": "uint256",
          "name": "tokenId",
          "type": "uint256"
        }
      ],
      "name": "safeTransferFrom",
      "outputs": [],
      "stateMutability": "nonpayable",
      "type": "function"
    },
    {
      "inputs": [
        {
          "internalType": "address",
          "name": "from",
          "type": "address"
        },
        {
          "internalType": "address",
          "name": "to",
          "type": "address"
        },
        {
          "internalType": "uint256",
          "name": "tokenId",
          "type": "uint256"
        },
        {
          "internalType": "bytes",
          "name": "data",
          "type": "bytes"
        }
      ],
      "name": "safeTransferFrom",
      "outputs": [],
      "stateMutability": "pure",
      "type": "function"
    },
    {
      "inputs": [
        {
          "internalType": "address",
          "name": "operator",
          "type": "address"
        },
        {
          "internalType": "bool",
          "name": "approved",
          "type": "bool"
        }
      ],
      "name": "setApprovalForAll",
      "outputs": [],
      "stateMutability": "nonpayable",
      "type": "function"
    },
    {
      "inputs": [
        {
          "internalType": "string",
          "name": "baseURI_",
          "type": "string"
        }
      ],
      "name": "setBaseURI",
      "outputs": [],
      "stateMutability": "nonpayable",
      "type": "function"
    },
    {
      "inputs": [
        {
          "internalType": "bool",
          "name": "newFlagValue",
          "type": "bool"
        }
      ],
      "name": "setPublicStageFlag",
      "outputs": [],
      "stateMutability": "nonpayable",
      "type": "function"
    },
    {
      "inputs": [
        {
          "internalType": "uint256",
          "name": "tokenId",
          "type": "uint256"
        },
        {
          "internalType": "string",
          "name": "tokenURI_",
          "type": "string"
        },
        {
          "internalType": "string",
          "name": "mintingToken",
          "type": "string"
        },
        {
          "internalType": "address",
          "name": "account",
          "type": "address"
        }
      ],
      "name": "setTokenURI",
      "outputs": [],
      "stateMutability": "nonpayable",
      "type": "function"
    },
    {
      "inputs": [
        {
          "internalType": "bytes4",
          "name": "interfaceId",
          "type": "bytes4"
        }
      ],
      "name": "supportsInterface",
      "outputs": [
        {
          "internalType": "bool",
          "name": "",
          "type": "bool"
        }
      ],
      "stateMutability": "view",
      "type": "function"
    },
    {
      "inputs": [],
      "name": "symbol",
      "outputs": [
        {
          "internalType": "string",
          "name": "",
          "type": "string"
        }
      ],
      "stateMutability": "view",
      "type": "function"
    },
    {
      "inputs": [
        {
          "internalType": "uint256",
          "name": "index",
          "type": "uint256"
        }
      ],
      "name": "tokenByIndex",
      "outputs": [
        {
          "internalType": "uint256",
          "name": "",
          "type": "uint256"
        }
      ],
      "stateMutability": "view",
      "type": "function"
    },
    {
      "inputs": [
        {
          "internalType": "address",
          "name": "owner",
          "type": "address"
        },
        {
          "internalType": "uint256",
          "name": "index",
          "type": "uint256"
        }
      ],
      "name": "tokenOfOwnerByIndex",
      "outputs": [
        {
          "internalType": "uint256",
          "name": "",
          "type": "uint256"
        }
      ],
      "stateMutability": "view",
      "type": "function"
    },
    {
      "inputs": [
        {
          "internalType": "uint256",
          "name": "tokenId",
          "type": "uint256"
        }
      ],
      "name": "tokenURI",
      "outputs": [
        {
          "internalType": "string",
          "name": "",
          "type": "string"
        }
      ],
      "stateMutability": "view",
      "type": "function"
    },
    {
      "inputs": [],
      "name": "totalSupply",
      "outputs": [
        {
          "internalType": "uint256",
          "name": "",
          "type": "uint256"
        }
      ],
      "stateMutability": "view",
      "type": "function"
    },
    {
      "inputs": [
        {
          "internalType": "address",
          "name": "from",
          "type": "address"
        },
        {
          "internalType": "address",
          "name": "to",
          "type": "address"
        },
        {
          "internalType": "uint256",
          "name": "tokenId",
          "type": "uint256"
        }
      ],
      "name": "transferFrom",
      "outputs": [],
      "stateMutability": "pure",
      "type": "function"
    },
    {
      "inputs": [
        {
          "internalType": "string",
          "name": "mintingToken",
          "type": "string"
        },
        {
          "internalType": "address",
          "name": "account",
          "type": "address"
        }
      ],
      "name": "validateMintingToken",
      "outputs": [
        {
          "internalType": "bool",
          "name": "",
          "type": "bool"
        }
      ],
      "stateMutability": "nonpayable",
      "type": "function"
    },
    {
      "inputs": [
        {
          "internalType": "address",
          "name": "_to",
          "type": "address"
        },
        {
          "internalType": "enum TIERS",
          "name": "tier",
          "type": "uint8"
        }
      ],
      "name": "whitelistAddress",
      "outputs": [],
      "stateMutability": "nonpayable",
      "type": "function"
    }
  ],
  "bytecode": "0x6080604052600f805460ff191690553480156200001b57600080fd5b5060405162002b3638038062002b368339810160408190526200003e916200020f565b60408051808201909152601e8082527f54616c656e742050726f746f636f6c204e465420436f6c6c656374696f6e0000602083019081528391620000859160009162000169565b5080516200009b90600190602084019062000169565b50620000ad91506000905083620000b5565b505062000362565b620000c18282620000c5565b5050565b6000828152600a602090815260408083206001600160a01b038516845290915290205460ff16620000c1576000828152600a602090815260408083206001600160a01b03851684529091529020805460ff19166001179055620001253390565b6001600160a01b0316816001600160a01b0316837f2f8788117e7eff1d82e926ec794901d17c78024a50270940304540a733656f0d60405160405180910390a45050565b82805462000177906200030f565b90600052602060002090601f0160209004810192826200019b5760008555620001e6565b82601f10620001b657805160ff1916838001178555620001e6565b82800160010185558215620001e6579182015b82811115620001e6578251825591602001919060010190620001c9565b50620001f4929150620001f8565b5090565b5b80821115620001f45760008155600101620001f9565b600080604083850312156200022357600080fd5b82516001600160a01b03811681146200023b57600080fd5b602084810151919350906001600160401b03808211156200025b57600080fd5b818601915086601f8301126200027057600080fd5b8151818111156200028557620002856200034c565b604051601f8201601f19908116603f01168101908382118183101715620002b057620002b06200034c565b816040528281528986848701011115620002c957600080fd5b600093505b82841015620002ed5784840186015181850187015292850192620002ce565b82841115620002ff5760008684830101525b8096505050505050509250929050565b600181811c908216806200032457607f821691505b602082108114156200034657634e487b7160e01b600052602260045260246000fd5b50919050565b634e487b7160e01b600052604160045260246000fd5b6127c480620003726000396000f3fe608060405234801561001057600080fd5b506004361061020b5760003560e01c80636352211e1161012a578063a217fddf116100bd578063c87b56dd1161008c578063d547741f11610071578063d547741f1461048d578063d85d3d27146104a0578063e985e9c5146104b357600080fd5b8063c87b56dd14610467578063ce103acc1461047a57600080fd5b8063a217fddf1461042b578063a22cb46514610433578063b430a5d914610446578063b88d4fde1461045957600080fd5b806391d14854116100f957806391d14854146103cc57806395d89b41146104055780639a943e331461040d5780639d0234fe1461042057600080fd5b80636352211e146103805780636b9a5c6c146103935780637065cb48146103a657806370a08231146103b957600080fd5b80632dd98776116101a25780633af32abf116101715780633af32abf1461033457806342842e0e146103475780634f6ccce71461035a57806355f804b31461036d57600080fd5b80632dd98776146102e85780632f2ff15d146102fb5780632f745c591461030e57806336568abe1461032157600080fd5b806318160ddd116101de57806318160ddd1461028d578063181965301461029f57806323b872dd146102b2578063248a9ca3146102c557600080fd5b806301ffc9a71461021057806306fdde0314610238578063081812fc1461024d578063095ea7b314610278575b600080fd5b61022361021e3660046123f4565b6104ef565b60405190151581526020015b60405180910390f35b610240610500565b60405161022f919061262b565b61026061025b3660046123b8565b610592565b6040516001600160a01b03909116815260200161022f565b61028b610286366004612373565b6105b9565b005b6008545b60405190815260200161022f565b61028b6102ad366004612325565b6106f0565b61028b6102c0366004612208565b6107fb565b6102916102d33660046123b8565b6000908152600a602052604090206001015490565b6102236102f636600461242e565b610843565b61028b6103093660046123d1565b61086c565b61029161031c366004612373565b610891565b61028b61032f3660046123d1565b610939565b6102236103423660046121ba565b6109c5565b61028b610355366004612208565b6109f5565b6102916103683660046123b8565b610a10565b61028b61037b36600461242e565b610ab4565b61026061038e3660046123b8565b610ad2565b61028b6103a13660046122ea565b610b37565b61028b6103b43660046121ba565b610c08565b6102916103c73660046121ba565b610c1e565b6102236103da3660046123d1565b6000918252600a602090815260408084206001600160a01b0393909316845291905290205460ff1690565b610240610cb8565b61022361041b366004612463565b610cc7565b600f5460ff16610223565b610291600081565b61028b6104413660046122c0565b610dbe565b61028b61045436600461239d565b610dc9565b61028b6102c0366004612244565b6102406104753660046123b8565b610e93565b61028b6104883660046124a8565b61102e565b61028b61049b3660046123d1565b6111ce565b61028b6104ae36600461242e565b6111f3565b6102236104c13660046121d5565b6001600160a01b03918216600090815260056020908152604080832093909416825291909152205460ff1690565b60006104fa826113ca565b92915050565b60606000805461050f906126cf565b80601f016020809104026020016040519081016040528092919081815260200182805461053b906126cf565b80156105885780601f1061055d57610100808354040283529160200191610588565b820191906000526020600020905b81548152906001019060200180831161056b57829003601f168201915b5050505050905090565b600061059d82611408565b506000908152600460205260409020546001600160a01b031690565b60006105c482610ad2565b9050806001600160a01b0316836001600160a01b031614156106535760405162461bcd60e51b815260206004820152602160248201527f4552433732313a20617070726f76616c20746f2063757272656e74206f776e6560448201527f720000000000000000000000000000000000000000000000000000000000000060648201526084015b60405180910390fd5b336001600160a01b038216148061066f575061066f81336104c1565b6106e15760405162461bcd60e51b815260206004820152603e60248201527f4552433732313a20617070726f76652063616c6c6572206973206e6f7420746f60448201527f6b656e206f776e6572206e6f7220617070726f76656420666f7220616c6c0000606482015260840161064a565b6106eb838361146c565b505050565b60006106fb816114e7565b610704836109c5565b806107115750600f5460ff165b610785576040805162461bcd60e51b81526020600482015260248101919091527f5075626c6963207374616765206973206e6f7420617661696c61626c6520616e60448201527f64207468652061646472657373206973206e6f742077686974656c6973746564606482015260840161064a565b826011836040516107969190612552565b90815260405190819003602001812080546001600160a01b039390931673ffffffffffffffffffffffffffffffffffffffff199093169290921790915542906011906107e3908590612552565b90815260405190819003602001902060010155505050565b60405162461bcd60e51b815260206004820152601e60248201527f54616c656e74204e4654206973206e6f6e2d7472616e7366657261626c650000604482015260640161064a565b6000600e826040516108559190612552565b908152604051908190036020019020541592915050565b6000828152600a6020526040902060010154610887816114e7565b6106eb83836114f1565b600061089c83610c1e565b82106109105760405162461bcd60e51b815260206004820152602b60248201527f455243373231456e756d657261626c653a206f776e657220696e646578206f7560448201527f74206f6620626f756e6473000000000000000000000000000000000000000000606482015260840161064a565b506001600160a01b03919091166000908152600660209081526040808320938352929052205490565b6001600160a01b03811633146109b75760405162461bcd60e51b815260206004820152602f60248201527f416363657373436f6e74726f6c3a2063616e206f6e6c792072656e6f756e636560448201527f20726f6c657320666f722073656c660000000000000000000000000000000000606482015260840161064a565b6109c18282611593565b5050565b6000806109d183611616565b60098111156109e2576109e2612720565b11806104fa5750600f5460ff1692915050565b6106eb838383604051806020016040528060008152506107fb565b6000610a1b60085490565b8210610a8f5760405162461bcd60e51b815260206004820152602c60248201527f455243373231456e756d657261626c653a20676c6f62616c20696e646578206f60448201527f7574206f6620626f756e64730000000000000000000000000000000000000000606482015260840161064a565b60088281548110610aa257610aa261274c565b90600052602060002001549050919050565b6000610abf816114e7565b81516106eb90600c90602085019061205f565b6000818152600260205260408120546001600160a01b0316806104fa5760405162461bcd60e51b815260206004820152601860248201527f4552433732313a20696e76616c696420746f6b656e2049440000000000000000604482015260640161064a565b6000610b42816114e7565b6001826009811115610b5657610b56612720565b11610bc95760405162461bcd60e51b815260206004820152603a60248201527f546865207469657220676976656e206e6565647320746f20626520677265617460448201527f6572207468616e2054494552532e5055424c49435f5354414745000000000000606482015260840161064a565b6001600160a01b0383166000908152601060205260409020805483919060ff19166001836009811115610bfe57610bfe612720565b0217905550505050565b6000610c13816114e7565b6109c1600083611686565b60006001600160a01b038216610c9c5760405162461bcd60e51b815260206004820152602960248201527f4552433732313a2061646472657373207a65726f206973206e6f74206120766160448201527f6c6964206f776e65720000000000000000000000000000000000000000000000606482015260840161064a565b506001600160a01b031660009081526003602052604090205490565b60606001805461050f906126cf565b6000601183604051610cd99190612552565b90815260200160405180910390206001015460001415610cfb575060006104fa565b6000601184604051610d0d9190612552565b90815260200160405180910390206001015442039050826001600160a01b0316601185604051610d3d9190612552565b908152604051908190036020019020546001600160a01b0316148015610d64575061025881105b15610db457601184604051610d799190612552565b908152604051908190036020019020805473ffffffffffffffffffffffffffffffffffffffff19168155600060019182015591506104fa9050565b5060009392505050565b6109c1338383611690565b6000610dd4816114e7565b600f5460ff1615158215151415610e795760405162461bcd60e51b815260206004820152605c60248201527f556e61626c6520746f206368616e6765205f7075626c69635374616765466c6160448201527f672076616c7565206265636175736520746865206e65772076616c756520697360648201527f207468652073616d65206173207468652063757272656e74206f6e6500000000608482015260a40161064a565b50600f805460ff1916911515919091179055565b50505050565b6000818152600260205260409020546060906001600160a01b0316610f205760405162461bcd60e51b815260206004820152602f60248201527f4552433732314d657461646174613a2055524920717565727920666f72206e6f60448201527f6e6578697374656e7420746f6b656e0000000000000000000000000000000000606482015260840161064a565b6000610f2a61175f565b9050805160001415610f7e5760405162461bcd60e51b815260206004820152601060248201527f4261736520555249206e6f742073657400000000000000000000000000000000604482015260640161064a565b6000838152600d602052604081208054610f97906126cf565b80601f0160208091040260200160405190810160405280929190818152602001828054610fc3906126cf565b80156110105780601f10610fe557610100808354040283529160200191611010565b820191906000526020600020905b815481529060010190602001808311610ff357829003601f168201915b505050505090508051600014611027579392505050565b5092915050565b6000611039816114e7565b6000858152600260205260409020546001600160a01b03166110c35760405162461bcd60e51b815260206004820152602f60248201527f4552433732314d657461646174613a2055524920717565727920666f72206e6f60448201527f6e6578697374656e7420746f6b656e0000000000000000000000000000000000606482015260840161064a565b6000858152600d6020526040902080546110dc906126cf565b1590506111515760405162461bcd60e51b815260206004820152602b60248201527f4d657461646174612077617320616c726561647920646566696e656420666f7260448201527f207468697320746f6b656e000000000000000000000000000000000000000000606482015260840161064a565b61115b8383610cc7565b6111a75760405162461bcd60e51b815260206004820181905260248201527f556e61626c6520746f20656e73757265206d696e746572206964656e74697479604482015260640161064a565b6000858152600d6020908152604090912085516111c69287019061205f565b505050505050565b6000828152600a60205260409020600101546111e9816114e7565b6106eb8383611593565b6111fc336109c5565b61126e5760405162461bcd60e51b815260206004820152602d60248201527f4d696e74696e67206e6f7420616c6c6f77656420776974682063757272656e7460448201527f2073656e64657220726f6c657300000000000000000000000000000000000000606482015260840161064a565b61127733610c1e565b156112ea5760405162461bcd60e51b815260206004820152602960248201527f416464726573732068617320616c7265616479206d696e746564206f6e65205460448201527f616c656e74204e46540000000000000000000000000000000000000000000000606482015260840161064a565b600e816040516112fa9190612552565b908152602001604051809103902054600014156113595761131f600b80546001019055565b600b54600e826040516113329190612552565b90815260405190819003602001902055600061134d600b5490565b90506109c1338261176e565b60405162461bcd60e51b815260206004820152602360248201527f5468697320636f6d62696e6174696f6e2077617320616c7265616479206d696e60448201527f7465640000000000000000000000000000000000000000000000000000000000606482015260840161064a565b50565b60006001600160e01b031982167f7965db0b0000000000000000000000000000000000000000000000000000000014806104fa57506104fa82611788565b6000818152600260205260409020546001600160a01b03166113c75760405162461bcd60e51b815260206004820152601860248201527f4552433732313a20696e76616c696420746f6b656e2049440000000000000000604482015260640161064a565b6000818152600460205260409020805473ffffffffffffffffffffffffffffffffffffffff19166001600160a01b03841690811790915581906114ae82610ad2565b6001600160a01b03167f8c5be1e5ebec7d5bd14f71427d1e84f3dd0314c0f7b2291e5b200ac8c7c3b92560405160405180910390a45050565b6113c781336117c6565b6000828152600a602090815260408083206001600160a01b038516845290915290205460ff166109c1576000828152600a602090815260408083206001600160a01b03851684529091529020805460ff1916600117905561154f3390565b6001600160a01b0316816001600160a01b0316837f2f8788117e7eff1d82e926ec794901d17c78024a50270940304540a733656f0d60405160405180910390a45050565b6000828152600a602090815260408083206001600160a01b038516845290915290205460ff16156109c1576000828152600a602090815260408083206001600160a01b0385168085529252808320805460ff1916905551339285917ff6391f5c32d9c69d2a47ea670b442974b53935d1edc7fd64eb21e047a839171b9190a45050565b600f5460009060ff161561162c57506001919050565b6001600160a01b03821660009081526010602052604081205460ff16600981111561165957611659612720565b141561166757506000919050565b506001600160a01b031660009081526010602052604090205460ff1690565b6109c182826114f1565b816001600160a01b0316836001600160a01b031614156116f25760405162461bcd60e51b815260206004820152601960248201527f4552433732313a20617070726f766520746f2063616c6c657200000000000000604482015260640161064a565b6001600160a01b03838116600081815260056020908152604080832094871680845294825291829020805460ff191686151590811790915591519182527f17307eab39ab6107e8899845ad3d59bd9653f200f220920489ca2b5937696c31910160405180910390a3505050565b6060600c805461050f906126cf565b6109c1828260405180602001604052806000815250611846565b60006001600160e01b031982167f780e9d630000000000000000000000000000000000000000000000000000000014806104fa57506104fa826118cf565b6000828152600a602090815260408083206001600160a01b038516845290915290205460ff166109c157611804816001600160a01b0316601461196a565b61180f83602061196a565b60405160200161182092919061256e565b60408051601f198184030181529082905262461bcd60e51b825261064a9160040161262b565b6118508383611b52565b61185d6000848484611cad565b6106eb5760405162461bcd60e51b815260206004820152603260248201527f4552433732313a207472616e7366657220746f206e6f6e20455243373231526560448201527f63656976657220696d706c656d656e7465720000000000000000000000000000606482015260840161064a565b60006001600160e01b031982167f80ac58cd00000000000000000000000000000000000000000000000000000000148061193257506001600160e01b031982167f5b5e139f00000000000000000000000000000000000000000000000000000000145b806104fa57507f01ffc9a7000000000000000000000000000000000000000000000000000000006001600160e01b03198316146104fa565b60606000611979836002612656565b61198490600261263e565b67ffffffffffffffff81111561199c5761199c612762565b6040519080825280601f01601f1916602001820160405280156119c6576020820181803683370190505b5090507f3000000000000000000000000000000000000000000000000000000000000000816000815181106119fd576119fd61274c565b60200101906001600160f81b031916908160001a9053507f780000000000000000000000000000000000000000000000000000000000000081600181518110611a4857611a4861274c565b60200101906001600160f81b031916908160001a9053506000611a6c846002612656565b611a7790600161263e565b90505b6001811115611afc577f303132333435363738396162636465660000000000000000000000000000000085600f1660108110611ab857611ab861274c565b1a60f81b828281518110611ace57611ace61274c565b60200101906001600160f81b031916908160001a90535060049490941c93611af5816126b8565b9050611a7a565b508315611b4b5760405162461bcd60e51b815260206004820181905260248201527f537472696e67733a20686578206c656e67746820696e73756666696369656e74604482015260640161064a565b9392505050565b6001600160a01b038216611ba85760405162461bcd60e51b815260206004820181905260248201527f4552433732313a206d696e7420746f20746865207a65726f2061646472657373604482015260640161064a565b6000818152600260205260409020546001600160a01b031615611c0d5760405162461bcd60e51b815260206004820152601c60248201527f4552433732313a20746f6b656e20616c7265616479206d696e74656400000000604482015260640161064a565b611c1960008383611e11565b6001600160a01b0382166000908152600360205260408120805460019290611c4290849061263e565b9091555050600081815260026020526040808220805473ffffffffffffffffffffffffffffffffffffffff19166001600160a01b03861690811790915590518392907fddf252ad1be2c89b69c2b068fc378daa952ba7f163c4a11628f55a4df523b3ef908290a45050565b60006001600160a01b0384163b15611e0557604051630a85bd0160e11b81526001600160a01b0385169063150b7a0290611cf19033908990889088906004016125ef565b602060405180830381600087803b158015611d0b57600080fd5b505af1925050508015611d3b575060408051601f3d908101601f19168201909252611d3891810190612411565b60015b611deb573d808015611d69576040519150601f19603f3d011682016040523d82523d6000602084013e611d6e565b606091505b508051611de35760405162461bcd60e51b815260206004820152603260248201527f4552433732313a207472616e7366657220746f206e6f6e20455243373231526560448201527f63656976657220696d706c656d656e7465720000000000000000000000000000606482015260840161064a565b805181602001fd5b6001600160e01b031916630a85bd0160e11b149050611e09565b5060015b949350505050565b6106eb8383836001600160a01b038316611e7257611e6d81600880546000838152600960205260408120829055600182018355919091527ff3f7a9fe364faab93b216da50a3214154f22a0a2b415b23a84c8169e8b636ee30155565b611e95565b816001600160a01b0316836001600160a01b031614611e9557611e958382611ecf565b6001600160a01b038216611eac576106eb81611f6c565b826001600160a01b0316826001600160a01b0316146106eb576106eb828261201b565b60006001611edc84610c1e565b611ee69190612675565b600083815260076020526040902054909150808214611f39576001600160a01b03841660009081526006602090815260408083208584528252808320548484528184208190558352600790915290208190555b5060009182526007602090815260408084208490556001600160a01b039094168352600681528383209183525290812055565b600854600090611f7e90600190612675565b60008381526009602052604081205460088054939450909284908110611fa657611fa661274c565b906000526020600020015490508060088381548110611fc757611fc761274c565b6000918252602080832090910192909255828152600990915260408082208490558582528120556008805480611fff57611fff612736565b6001900381819060005260206000200160009055905550505050565b600061202683610c1e565b6001600160a01b039093166000908152600660209081526040808320868452825280832085905593825260079052919091209190915550565b82805461206b906126cf565b90600052602060002090601f01602090048101928261208d57600085556120d3565b82601f106120a657805160ff19168380011785556120d3565b828001600101855582156120d3579182015b828111156120d35782518255916020019190600101906120b8565b506120df9291506120e3565b5090565b5b808211156120df57600081556001016120e4565b600067ffffffffffffffff8084111561211357612113612762565b604051601f8501601f19908116603f0116810190828211818310171561213b5761213b612762565b8160405280935085815286868601111561215457600080fd5b858560208301376000602087830101525050509392505050565b80356001600160a01b038116811461218557600080fd5b919050565b8035801515811461218557600080fd5b600082601f8301126121ab57600080fd5b611b4b838335602085016120f8565b6000602082840312156121cc57600080fd5b611b4b8261216e565b600080604083850312156121e857600080fd5b6121f18361216e565b91506121ff6020840161216e565b90509250929050565b60008060006060848603121561221d57600080fd5b6122268461216e565b92506122346020850161216e565b9150604084013590509250925092565b6000806000806080858703121561225a57600080fd5b6122638561216e565b93506122716020860161216e565b925060408501359150606085013567ffffffffffffffff81111561229457600080fd5b8501601f810187136122a557600080fd5b6122b4878235602084016120f8565b91505092959194509250565b600080604083850312156122d357600080fd5b6122dc8361216e565b91506121ff6020840161218a565b600080604083850312156122fd57600080fd5b6123068361216e565b91506020830135600a811061231a57600080fd5b809150509250929050565b6000806040838503121561233857600080fd5b6123418361216e565b9150602083013567ffffffffffffffff81111561235d57600080fd5b6123698582860161219a565b9150509250929050565b6000806040838503121561238657600080fd5b61238f8361216e565b946020939093013593505050565b6000602082840312156123af57600080fd5b611b4b8261218a565b6000602082840312156123ca57600080fd5b5035919050565b600080604083850312156123e457600080fd5b823591506121ff6020840161216e565b60006020828403121561240657600080fd5b8135611b4b81612778565b60006020828403121561242357600080fd5b8151611b4b81612778565b60006020828403121561244057600080fd5b813567ffffffffffffffff81111561245757600080fd5b611e098482850161219a565b6000806040838503121561247657600080fd5b823567ffffffffffffffff81111561248d57600080fd5b6124998582860161219a565b9250506121ff6020840161216e565b600080600080608085870312156124be57600080fd5b84359350602085013567ffffffffffffffff808211156124dd57600080fd5b6124e98883890161219a565b945060408701359150808211156124ff57600080fd5b5061250c8782880161219a565b92505061251b6060860161216e565b905092959194509250565b6000815180845261253e81602086016020860161268c565b601f01601f19169290920160200192915050565b6000825161256481846020870161268c565b9190910192915050565b7f416363657373436f6e74726f6c3a206163636f756e74200000000000000000008152600083516125a681601785016020880161268c565b7f206973206d697373696e6720726f6c652000000000000000000000000000000060179184019182015283516125e381602884016020880161268c565b01602801949350505050565b60006001600160a01b038087168352808616602084015250836040830152608060608301526126216080830184612526565b9695505050505050565b602081526000611b4b6020830184612526565b600082198211156126515761265161270a565b500190565b60008160001904831182151516156126705761267061270a565b500290565b6000828210156126875761268761270a565b500390565b60005b838110156126a757818101518382015260200161268f565b83811115610e8d5750506000910152565b6000816126c7576126c761270a565b506000190190565b600181811c908216806126e357607f821691505b6020821081141561270457634e487b7160e01b600052602260045260246000fd5b50919050565b634e487b7160e01b600052601160045260246000fd5b634e487b7160e01b600052602160045260246000fd5b634e487b7160e01b600052603160045260246000fd5b634e487b7160e01b600052603260045260246000fd5b634e487b7160e01b600052604160045260246000fd5b6001600160e01b0319811681146113c757600080fdfea2646970667358221220383a709d68185b3dfbc940476031a65331e7cb30101265dd4d49912efc0b8f3d64736f6c63430008070033",
  "linkReferences": {},
  "deployedLinkReferences": {}
}