{
  "_format": "hh-sol-artifact-1",
  "contractName": "TalentNFT",
  "sourceName": "contracts/talent-nft/TalentNFT.sol",
  "abi": [
    {
      "inputs": [
        {
          "internalType": "address",
          "name": "_owner",
          "type": "address"
        },
        {
          "internalType": "string",
          "name": "_ticker",
          "type": "string"
        }
      ],
      "stateMutability": "nonpayable",
      "type": "constructor"
    },
    {
      "anonymous": false,
      "inputs": [
        {
          "indexed": true,
          "internalType": "address",
          "name": "owner",
          "type": "address"
        },
        {
          "indexed": true,
          "internalType": "address",
          "name": "approved",
          "type": "address"
        },
        {
          "indexed": true,
          "internalType": "uint256",
          "name": "tokenId",
          "type": "uint256"
        }
      ],
      "name": "Approval",
      "type": "event"
    },
    {
      "anonymous": false,
      "inputs": [
        {
          "indexed": true,
          "internalType": "address",
          "name": "owner",
          "type": "address"
        },
        {
          "indexed": true,
          "internalType": "address",
          "name": "operator",
          "type": "address"
        },
        {
          "indexed": false,
          "internalType": "bool",
          "name": "approved",
          "type": "bool"
        }
      ],
      "name": "ApprovalForAll",
      "type": "event"
    },
    {
      "anonymous": false,
      "inputs": [
        {
          "indexed": true,
          "internalType": "bytes32",
          "name": "role",
          "type": "bytes32"
        },
        {
          "indexed": true,
          "internalType": "bytes32",
          "name": "previousAdminRole",
          "type": "bytes32"
        },
        {
          "indexed": true,
          "internalType": "bytes32",
          "name": "newAdminRole",
          "type": "bytes32"
        }
      ],
      "name": "RoleAdminChanged",
      "type": "event"
    },
    {
      "anonymous": false,
      "inputs": [
        {
          "indexed": true,
          "internalType": "bytes32",
          "name": "role",
          "type": "bytes32"
        },
        {
          "indexed": true,
          "internalType": "address",
          "name": "account",
          "type": "address"
        },
        {
          "indexed": true,
          "internalType": "address",
          "name": "sender",
          "type": "address"
        }
      ],
      "name": "RoleGranted",
      "type": "event"
    },
    {
      "anonymous": false,
      "inputs": [
        {
          "indexed": true,
          "internalType": "bytes32",
          "name": "role",
          "type": "bytes32"
        },
        {
          "indexed": true,
          "internalType": "address",
          "name": "account",
          "type": "address"
        },
        {
          "indexed": true,
          "internalType": "address",
          "name": "sender",
          "type": "address"
        }
      ],
      "name": "RoleRevoked",
      "type": "event"
    },
    {
      "anonymous": false,
      "inputs": [
        {
          "indexed": true,
          "internalType": "address",
          "name": "from",
          "type": "address"
        },
        {
          "indexed": true,
          "internalType": "address",
          "name": "to",
          "type": "address"
        },
        {
          "indexed": true,
          "internalType": "uint256",
          "name": "tokenId",
          "type": "uint256"
        }
      ],
      "name": "Transfer",
      "type": "event"
    },
    {
      "inputs": [],
      "name": "DEFAULT_ADMIN_ROLE",
      "outputs": [
        {
          "internalType": "bytes32",
          "name": "",
          "type": "bytes32"
        }
      ],
      "stateMutability": "view",
      "type": "function"
    },
    {
      "inputs": [
        {
          "internalType": "address",
          "name": "_newOwner",
          "type": "address"
        }
      ],
      "name": "addOwner",
      "outputs": [],
      "stateMutability": "nonpayable",
      "type": "function"
    },
    {
      "inputs": [
        {
          "internalType": "address",
          "name": "to",
          "type": "address"
        },
        {
          "internalType": "uint256",
          "name": "tokenId",
          "type": "uint256"
        }
      ],
      "name": "approve",
      "outputs": [],
      "stateMutability": "nonpayable",
      "type": "function"
    },
    {
      "inputs": [
        {
          "internalType": "address",
          "name": "owner",
          "type": "address"
        }
      ],
      "name": "balanceOf",
      "outputs": [
        {
          "internalType": "uint256",
          "name": "",
          "type": "uint256"
        }
      ],
      "stateMutability": "view",
      "type": "function"
    },
    {
      "inputs": [
        {
          "internalType": "uint256",
          "name": "tokenId",
          "type": "uint256"
        }
      ],
      "name": "getApproved",
      "outputs": [
        {
          "internalType": "address",
          "name": "",
          "type": "address"
        }
      ],
      "stateMutability": "view",
      "type": "function"
    },
    {
      "inputs": [],
      "name": "getPublicStageFlag",
      "outputs": [
        {
          "internalType": "bool",
          "name": "",
          "type": "bool"
        }
      ],
      "stateMutability": "view",
      "type": "function"
    },
    {
      "inputs": [
        {
          "internalType": "bytes32",
          "name": "role",
          "type": "bytes32"
        }
      ],
      "name": "getRoleAdmin",
      "outputs": [
        {
          "internalType": "bytes32",
          "name": "",
          "type": "bytes32"
        }
      ],
      "stateMutability": "view",
      "type": "function"
    },
    {
      "inputs": [
        {
          "internalType": "bytes32",
          "name": "role",
          "type": "bytes32"
        },
        {
          "internalType": "address",
          "name": "account",
          "type": "address"
        }
      ],
      "name": "grantRole",
      "outputs": [],
      "stateMutability": "nonpayable",
      "type": "function"
    },
    {
      "inputs": [
        {
          "internalType": "bytes32",
          "name": "role",
          "type": "bytes32"
        },
        {
          "internalType": "address",
          "name": "account",
          "type": "address"
        }
      ],
      "name": "hasRole",
      "outputs": [
        {
          "internalType": "bool",
          "name": "",
          "type": "bool"
        }
      ],
      "stateMutability": "view",
      "type": "function"
    },
    {
      "inputs": [
        {
          "internalType": "address",
          "name": "owner",
          "type": "address"
        },
        {
          "internalType": "address",
          "name": "operator",
          "type": "address"
        }
      ],
      "name": "isApprovedForAll",
      "outputs": [
        {
          "internalType": "bool",
          "name": "",
          "type": "bool"
        }
      ],
      "stateMutability": "view",
      "type": "function"
    },
    {
      "inputs": [
        {
          "internalType": "string",
          "name": "combination",
          "type": "string"
        }
      ],
      "name": "isCombinationaAvailable",
      "outputs": [
        {
          "internalType": "bool",
          "name": "",
          "type": "bool"
        }
      ],
      "stateMutability": "view",
      "type": "function"
    },
    {
      "inputs": [
        {
          "internalType": "address",
          "name": "account",
          "type": "address"
        }
      ],
      "name": "isWhitelisted",
      "outputs": [
        {
          "internalType": "bool",
          "name": "",
          "type": "bool"
        }
      ],
      "stateMutability": "view",
      "type": "function"
    },
    {
      "inputs": [],
      "name": "mint",
      "outputs": [],
      "stateMutability": "nonpayable",
      "type": "function"
    },
    {
      "inputs": [],
      "name": "name",
      "outputs": [
        {
          "internalType": "string",
          "name": "",
          "type": "string"
        }
      ],
      "stateMutability": "view",
      "type": "function"
    },
    {
      "inputs": [
        {
          "internalType": "uint256",
          "name": "tokenId",
          "type": "uint256"
        }
      ],
      "name": "ownerOf",
      "outputs": [
        {
          "internalType": "address",
          "name": "",
          "type": "address"
        }
      ],
      "stateMutability": "view",
      "type": "function"
    },
    {
      "inputs": [
        {
          "internalType": "bytes32",
          "name": "role",
          "type": "bytes32"
        },
        {
          "internalType": "address",
          "name": "account",
          "type": "address"
        }
      ],
      "name": "renounceRole",
      "outputs": [],
      "stateMutability": "nonpayable",
      "type": "function"
    },
    {
      "inputs": [
        {
          "internalType": "bytes32",
          "name": "role",
          "type": "bytes32"
        },
        {
          "internalType": "address",
          "name": "account",
          "type": "address"
        }
      ],
      "name": "revokeRole",
      "outputs": [],
      "stateMutability": "nonpayable",
      "type": "function"
    },
    {
      "inputs": [
        {
          "internalType": "address",
          "name": "from",
          "type": "address"
        },
        {
          "internalType": "address",
          "name": "to",
          "type": "address"
        },
        {
          "internalType": "uint256",
          "name": "tokenId",
          "type": "uint256"
        }
      ],
      "name": "safeTransferFrom",
      "outputs": [],
      "stateMutability": "nonpayable",
      "type": "function"
    },
    {
      "inputs": [
        {
          "internalType": "address",
          "name": "from",
          "type": "address"
        },
        {
          "internalType": "address",
          "name": "to",
          "type": "address"
        },
        {
          "internalType": "uint256",
          "name": "tokenId",
          "type": "uint256"
        },
        {
          "internalType": "bytes",
          "name": "data",
          "type": "bytes"
        }
      ],
      "name": "safeTransferFrom",
      "outputs": [],
      "stateMutability": "pure",
      "type": "function"
    },
    {
      "inputs": [
        {
          "internalType": "address",
          "name": "operator",
          "type": "address"
        },
        {
          "internalType": "bool",
          "name": "approved",
          "type": "bool"
        }
      ],
      "name": "setApprovalForAll",
      "outputs": [],
      "stateMutability": "nonpayable",
      "type": "function"
    },
    {
      "inputs": [
        {
          "internalType": "string",
          "name": "baseURI_",
          "type": "string"
        }
      ],
      "name": "setBaseURI",
      "outputs": [],
      "stateMutability": "nonpayable",
      "type": "function"
    },
    {
      "inputs": [
        {
          "internalType": "bool",
          "name": "newFlagValue",
          "type": "bool"
        }
      ],
      "name": "setPublicStageFlag",
      "outputs": [],
      "stateMutability": "nonpayable",
      "type": "function"
    },
    {
      "inputs": [
        {
          "internalType": "uint256",
          "name": "tokenId",
          "type": "uint256"
        },
        {
          "internalType": "string",
          "name": "tokenMetadataURI",
          "type": "string"
        },
        {
          "internalType": "string",
          "name": "combination",
          "type": "string"
        },
        {
          "internalType": "address",
          "name": "account",
          "type": "address"
        }
      ],
      "name": "setTokenURI",
      "outputs": [],
      "stateMutability": "nonpayable",
      "type": "function"
    },
    {
      "inputs": [
        {
          "internalType": "bytes4",
          "name": "interfaceId",
          "type": "bytes4"
        }
      ],
      "name": "supportsInterface",
      "outputs": [
        {
          "internalType": "bool",
          "name": "",
          "type": "bool"
        }
      ],
      "stateMutability": "view",
      "type": "function"
    },
    {
      "inputs": [],
      "name": "symbol",
      "outputs": [
        {
          "internalType": "string",
          "name": "",
          "type": "string"
        }
      ],
      "stateMutability": "view",
      "type": "function"
    },
    {
      "inputs": [
        {
          "internalType": "uint256",
          "name": "index",
          "type": "uint256"
        }
      ],
      "name": "tokenByIndex",
      "outputs": [
        {
          "internalType": "uint256",
          "name": "",
          "type": "uint256"
        }
      ],
      "stateMutability": "view",
      "type": "function"
    },
    {
      "inputs": [
        {
          "internalType": "address",
          "name": "owner",
          "type": "address"
        },
        {
          "internalType": "uint256",
          "name": "index",
          "type": "uint256"
        }
      ],
      "name": "tokenOfOwnerByIndex",
      "outputs": [
        {
          "internalType": "uint256",
          "name": "",
          "type": "uint256"
        }
      ],
      "stateMutability": "view",
      "type": "function"
    },
    {
      "inputs": [
        {
          "internalType": "uint256",
          "name": "tokenId",
          "type": "uint256"
        }
      ],
      "name": "tokenURI",
      "outputs": [
        {
          "internalType": "string",
          "name": "",
          "type": "string"
        }
      ],
      "stateMutability": "view",
      "type": "function"
    },
    {
      "inputs": [],
      "name": "totalSupply",
      "outputs": [
        {
          "internalType": "uint256",
          "name": "",
          "type": "uint256"
        }
      ],
      "stateMutability": "view",
      "type": "function"
    },
    {
      "inputs": [
        {
          "internalType": "address",
          "name": "from",
          "type": "address"
        },
        {
          "internalType": "address",
          "name": "to",
          "type": "address"
        },
        {
          "internalType": "uint256",
          "name": "tokenId",
          "type": "uint256"
        }
      ],
      "name": "transferFrom",
      "outputs": [],
      "stateMutability": "pure",
      "type": "function"
    },
    {
      "inputs": [
        {
          "internalType": "address",
          "name": "_to",
          "type": "address"
        },
        {
          "internalType": "enum TIERS",
          "name": "tier",
          "type": "uint8"
        }
      ],
      "name": "whitelistAddress",
      "outputs": [],
      "stateMutability": "nonpayable",
      "type": "function"
    }
  ],
  "bytecode": "0x6080604052600f805460ff191690553480156200001b57600080fd5b50604051620027d9380380620027d98339810160408190526200003e916200020f565b60408051808201909152601e8082527f54616c656e742050726f746f636f6c204e465420436f6c6c656374696f6e0000602083019081528391620000859160009162000169565b5080516200009b90600190602084019062000169565b50620000ad91506000905083620000b5565b505062000362565b620000c18282620000c5565b5050565b6000828152600a602090815260408083206001600160a01b038516845290915290205460ff16620000c1576000828152600a602090815260408083206001600160a01b03851684529091529020805460ff19166001179055620001253390565b6001600160a01b0316816001600160a01b0316837f2f8788117e7eff1d82e926ec794901d17c78024a50270940304540a733656f0d60405160405180910390a45050565b82805462000177906200030f565b90600052602060002090601f0160209004810192826200019b5760008555620001e6565b82601f10620001b657805160ff1916838001178555620001e6565b82800160010185558215620001e6579182015b82811115620001e6578251825591602001919060010190620001c9565b50620001f4929150620001f8565b5090565b5b80821115620001f45760008155600101620001f9565b600080604083850312156200022357600080fd5b82516001600160a01b03811681146200023b57600080fd5b602084810151919350906001600160401b03808211156200025b57600080fd5b818601915086601f8301126200027057600080fd5b8151818111156200028557620002856200034c565b604051601f8201601f19908116603f01168101908382118183101715620002b057620002b06200034c565b816040528281528986848701011115620002c957600080fd5b600093505b82841015620002ed5784840186015181850187015292850192620002ce565b82841115620002ff5760008684830101525b8096505050505050509250929050565b600181811c908216806200032457607f821691505b602082108114156200034657634e487b7160e01b600052602260045260246000fd5b50919050565b634e487b7160e01b600052604160045260246000fd5b61246780620003726000396000f3fe608060405234801561001057600080fd5b50600436106101e55760003560e01c806355f804b31161010f578063a217fddf116100a2578063c87b56dd11610071578063c87b56dd14610423578063ce103acc14610436578063d547741f14610449578063e985e9c51461045c57600080fd5b8063a217fddf146103e7578063a22cb465146103ef578063b430a5d914610402578063b88d4fde1461041557600080fd5b806370a08231116100de57806370a082311461038857806391d148541461039b57806395d89b41146103d45780639d0234fe146103dc57600080fd5b806355f804b31461033c5780636352211e1461034f5780636b9a5c6c146103625780637065cb481461037557600080fd5b8063248a9ca31161018757806336568abe1161015657806336568abe146102f05780633af32abf1461030357806342842e0e146103165780634f6ccce71461032957600080fd5b8063248a9ca3146102945780632dd98776146102b75780632f2ff15d146102ca5780632f745c59146102dd57600080fd5b8063095ea7b3116101c3578063095ea7b3146102525780631249c58b1461026757806318160ddd1461026f57806323b872dd1461028157600080fd5b806301ffc9a7146101ea57806306fdde0314610212578063081812fc14610227575b600080fd5b6101fd6101f83660046120dc565b610498565b60405190151581526020015b60405180910390f35b61021a6104a9565b60405161020991906122ce565b61023a6102353660046120a0565b61053b565b6040516001600160a01b039091168152602001610209565b61026561026036600461205b565b610562565b005b610265610699565b6008545b604051908152602001610209565b61026561028f366004611f3e565b6107b8565b6102736102a23660046120a0565b6000908152600a602052604090206001015490565b6101fd6102c5366004612116565b610800565b6102656102d83660046120b9565b610829565b6102736102eb36600461205b565b61084e565b6102656102fe3660046120b9565b6108f6565b6101fd610311366004611ef0565b610982565b610265610324366004611f3e565b6109b2565b6102736103373660046120a0565b6109cd565b61026561034a366004612116565b610a71565b61023a61035d3660046120a0565b610a8f565b610265610370366004612020565b610af4565b610265610383366004611ef0565b610bc5565b610273610396366004611ef0565b610bdb565b6101fd6103a93660046120b9565b6000918252600a602090815260408084206001600160a01b0393909316845291905290205460ff1690565b61021a610c75565b600f5460ff166101fd565b610273600081565b6102656103fd366004611ff6565b610c84565b610265610410366004612085565b610c8f565b61026561028f366004611f7a565b61021a6104313660046120a0565b610d59565b61026561044436600461214b565b610ef4565b6102656104573660046120b9565b6110db565b6101fd61046a366004611f0b565b6001600160a01b03918216600090815260056020908152604080832093909416825291909152205460ff1690565b60006104a382611100565b92915050565b6060600080546104b890612372565b80601f01602080910402602001604051908101604052809291908181526020018280546104e490612372565b80156105315780601f1061050657610100808354040283529160200191610531565b820191906000526020600020905b81548152906001019060200180831161051457829003601f168201915b5050505050905090565b60006105468261113e565b506000908152600460205260409020546001600160a01b031690565b600061056d82610a8f565b9050806001600160a01b0316836001600160a01b031614156105fc5760405162461bcd60e51b815260206004820152602160248201527f4552433732313a20617070726f76616c20746f2063757272656e74206f776e6560448201527f720000000000000000000000000000000000000000000000000000000000000060648201526084015b60405180910390fd5b336001600160a01b03821614806106185750610618813361046a565b61068a5760405162461bcd60e51b815260206004820152603e60248201527f4552433732313a20617070726f76652063616c6c6572206973206e6f7420746f60448201527f6b656e206f776e6572206e6f7220617070726f76656420666f7220616c6c000060648201526084016105f3565b61069483836111a2565b505050565b6106a233610982565b6107145760405162461bcd60e51b815260206004820152602d60248201527f4d696e74696e67206e6f7420616c6c6f77656420776974682063757272656e7460448201527f2073656e64657220726f6c65730000000000000000000000000000000000000060648201526084016105f3565b61071d33610bdb565b156107905760405162461bcd60e51b815260206004820152602960248201527f416464726573732068617320616c7265616479206d696e746564206f6e65205460448201527f616c656e74204e4654000000000000000000000000000000000000000000000060648201526084016105f3565b61079e600b80546001019055565b60006107a9600b5490565b90506107b5338261121d565b50565b60405162461bcd60e51b815260206004820152601e60248201527f54616c656e74204e4654206973206e6f6e2d7472616e7366657261626c65000060448201526064016105f3565b6000600e8260405161081291906121f5565b908152604051908190036020019020541592915050565b6000828152600a602052604090206001015461084481611237565b6106948383611241565b600061085983610bdb565b82106108cd5760405162461bcd60e51b815260206004820152602b60248201527f455243373231456e756d657261626c653a206f776e657220696e646578206f7560448201527f74206f6620626f756e647300000000000000000000000000000000000000000060648201526084016105f3565b506001600160a01b03919091166000908152600660209081526040808320938352929052205490565b6001600160a01b03811633146109745760405162461bcd60e51b815260206004820152602f60248201527f416363657373436f6e74726f6c3a2063616e206f6e6c792072656e6f756e636560448201527f20726f6c657320666f722073656c66000000000000000000000000000000000060648201526084016105f3565b61097e82826112e3565b5050565b60008061098e83611366565b600981111561099f5761099f6123c3565b11806104a35750600f5460ff1692915050565b610694838383604051806020016040528060008152506107b8565b60006109d860085490565b8210610a4c5760405162461bcd60e51b815260206004820152602c60248201527f455243373231456e756d657261626c653a20676c6f62616c20696e646578206f60448201527f7574206f6620626f756e6473000000000000000000000000000000000000000060648201526084016105f3565b60088281548110610a5f57610a5f6123ef565b90600052602060002001549050919050565b6000610a7c81611237565b815161069490600c906020850190611d95565b6000818152600260205260408120546001600160a01b0316806104a35760405162461bcd60e51b815260206004820152601860248201527f4552433732313a20696e76616c696420746f6b656e204944000000000000000060448201526064016105f3565b6000610aff81611237565b6001826009811115610b1357610b136123c3565b11610b865760405162461bcd60e51b815260206004820152603a60248201527f546865207469657220676976656e206e6565647320746f20626520677265617460448201527f6572207468616e2054494552532e5055424c49435f535441474500000000000060648201526084016105f3565b6001600160a01b0383166000908152601060205260409020805483919060ff19166001836009811115610bbb57610bbb6123c3565b0217905550505050565b6000610bd081611237565b61097e6000836113d6565b60006001600160a01b038216610c595760405162461bcd60e51b815260206004820152602960248201527f4552433732313a2061646472657373207a65726f206973206e6f74206120766160448201527f6c6964206f776e6572000000000000000000000000000000000000000000000060648201526084016105f3565b506001600160a01b031660009081526003602052604090205490565b6060600180546104b890612372565b61097e3383836113e0565b6000610c9a81611237565b600f5460ff1615158215151415610d3f5760405162461bcd60e51b815260206004820152605c60248201527f556e61626c6520746f206368616e6765205f7075626c69635374616765466c6160448201527f672076616c7565206265636175736520746865206e65772076616c756520697360648201527f207468652073616d65206173207468652063757272656e74206f6e6500000000608482015260a4016105f3565b50600f805460ff1916911515919091179055565b50505050565b6000818152600260205260409020546060906001600160a01b0316610de65760405162461bcd60e51b815260206004820152602f60248201527f4552433732314d657461646174613a2055524920717565727920666f72206e6f60448201527f6e6578697374656e7420746f6b656e000000000000000000000000000000000060648201526084016105f3565b6000610df06114af565b9050805160001415610e445760405162461bcd60e51b815260206004820152601060248201527f4261736520555249206e6f74207365740000000000000000000000000000000060448201526064016105f3565b6000838152600d602052604081208054610e5d90612372565b80601f0160208091040260200160405190810160405280929190818152602001828054610e8990612372565b8015610ed65780601f10610eab57610100808354040283529160200191610ed6565b820191906000526020600020905b815481529060010190602001808311610eb957829003601f168201915b505050505090508051600014610eed579392505050565b5092915050565b6000610eff81611237565b6000858152600260205260409020546001600160a01b0316610f895760405162461bcd60e51b815260206004820152602f60248201527f4552433732314d657461646174613a2055524920717565727920666f72206e6f60448201527f6e6578697374656e7420746f6b656e000000000000000000000000000000000060648201526084016105f3565b6000858152600d602052604090208054610fa290612372565b1590506110175760405162461bcd60e51b815260206004820152602b60248201527f4d657461646174612077617320616c726561647920646566696e656420666f7260448201527f207468697320746f6b656e00000000000000000000000000000000000000000060648201526084016105f3565b61102083610800565b6110925760405162461bcd60e51b815260206004820152602360248201527f5468697320636f6d62696e6174696f6e2077617320616c7265616479206d696e60448201527f746564000000000000000000000000000000000000000000000000000000000060648201526084016105f3565b84600e846040516110a391906121f5565b9081526040805160209281900383019020929092556000878152600d82529190912085516110d392870190611d95565b505050505050565b6000828152600a60205260409020600101546110f681611237565b61069483836112e3565b60006001600160e01b031982167f7965db0b0000000000000000000000000000000000000000000000000000000014806104a357506104a3826114be565b6000818152600260205260409020546001600160a01b03166107b55760405162461bcd60e51b815260206004820152601860248201527f4552433732313a20696e76616c696420746f6b656e204944000000000000000060448201526064016105f3565b6000818152600460205260409020805473ffffffffffffffffffffffffffffffffffffffff19166001600160a01b03841690811790915581906111e482610a8f565b6001600160a01b03167f8c5be1e5ebec7d5bd14f71427d1e84f3dd0314c0f7b2291e5b200ac8c7c3b92560405160405180910390a45050565b61097e8282604051806020016040528060008152506114fc565b6107b58133611585565b6000828152600a602090815260408083206001600160a01b038516845290915290205460ff1661097e576000828152600a602090815260408083206001600160a01b03851684529091529020805460ff1916600117905561129f3390565b6001600160a01b0316816001600160a01b0316837f2f8788117e7eff1d82e926ec794901d17c78024a50270940304540a733656f0d60405160405180910390a45050565b6000828152600a602090815260408083206001600160a01b038516845290915290205460ff161561097e576000828152600a602090815260408083206001600160a01b0385168085529252808320805460ff1916905551339285917ff6391f5c32d9c69d2a47ea670b442974b53935d1edc7fd64eb21e047a839171b9190a45050565b600f5460009060ff161561137c57506001919050565b6001600160a01b03821660009081526010602052604081205460ff1660098111156113a9576113a96123c3565b14156113b757506000919050565b506001600160a01b031660009081526010602052604090205460ff1690565b61097e8282611241565b816001600160a01b0316836001600160a01b031614156114425760405162461bcd60e51b815260206004820152601960248201527f4552433732313a20617070726f766520746f2063616c6c65720000000000000060448201526064016105f3565b6001600160a01b03838116600081815260056020908152604080832094871680845294825291829020805460ff191686151590811790915591519182527f17307eab39ab6107e8899845ad3d59bd9653f200f220920489ca2b5937696c31910160405180910390a3505050565b6060600c80546104b890612372565b60006001600160e01b031982167f780e9d630000000000000000000000000000000000000000000000000000000014806104a357506104a382611605565b61150683836116a0565b61151360008484846117fb565b6106945760405162461bcd60e51b815260206004820152603260248201527f4552433732313a207472616e7366657220746f206e6f6e20455243373231526560448201527f63656976657220696d706c656d656e746572000000000000000000000000000060648201526084016105f3565b6000828152600a602090815260408083206001600160a01b038516845290915290205460ff1661097e576115c3816001600160a01b0316601461195f565b6115ce83602061195f565b6040516020016115df929190612211565b60408051601f198184030181529082905262461bcd60e51b82526105f3916004016122ce565b60006001600160e01b031982167f80ac58cd00000000000000000000000000000000000000000000000000000000148061166857506001600160e01b031982167f5b5e139f00000000000000000000000000000000000000000000000000000000145b806104a357507f01ffc9a7000000000000000000000000000000000000000000000000000000006001600160e01b03198316146104a3565b6001600160a01b0382166116f65760405162461bcd60e51b815260206004820181905260248201527f4552433732313a206d696e7420746f20746865207a65726f206164647265737360448201526064016105f3565b6000818152600260205260409020546001600160a01b03161561175b5760405162461bcd60e51b815260206004820152601c60248201527f4552433732313a20746f6b656e20616c7265616479206d696e7465640000000060448201526064016105f3565b61176760008383611b47565b6001600160a01b03821660009081526003602052604081208054600192906117909084906122e1565b9091555050600081815260026020526040808220805473ffffffffffffffffffffffffffffffffffffffff19166001600160a01b03861690811790915590518392907fddf252ad1be2c89b69c2b068fc378daa952ba7f163c4a11628f55a4df523b3ef908290a45050565b60006001600160a01b0384163b1561195357604051630a85bd0160e11b81526001600160a01b0385169063150b7a029061183f903390899088908890600401612292565b602060405180830381600087803b15801561185957600080fd5b505af1925050508015611889575060408051601f3d908101601f19168201909252611886918101906120f9565b60015b611939573d8080156118b7576040519150601f19603f3d011682016040523d82523d6000602084013e6118bc565b606091505b5080516119315760405162461bcd60e51b815260206004820152603260248201527f4552433732313a207472616e7366657220746f206e6f6e20455243373231526560448201527f63656976657220696d706c656d656e746572000000000000000000000000000060648201526084016105f3565b805181602001fd5b6001600160e01b031916630a85bd0160e11b149050611957565b5060015b949350505050565b6060600061196e8360026122f9565b6119799060026122e1565b67ffffffffffffffff81111561199157611991612405565b6040519080825280601f01601f1916602001820160405280156119bb576020820181803683370190505b5090507f3000000000000000000000000000000000000000000000000000000000000000816000815181106119f2576119f26123ef565b60200101906001600160f81b031916908160001a9053507f780000000000000000000000000000000000000000000000000000000000000081600181518110611a3d57611a3d6123ef565b60200101906001600160f81b031916908160001a9053506000611a618460026122f9565b611a6c9060016122e1565b90505b6001811115611af1577f303132333435363738396162636465660000000000000000000000000000000085600f1660108110611aad57611aad6123ef565b1a60f81b828281518110611ac357611ac36123ef565b60200101906001600160f81b031916908160001a90535060049490941c93611aea8161235b565b9050611a6f565b508315611b405760405162461bcd60e51b815260206004820181905260248201527f537472696e67733a20686578206c656e67746820696e73756666696369656e7460448201526064016105f3565b9392505050565b6106948383836001600160a01b038316611ba857611ba381600880546000838152600960205260408120829055600182018355919091527ff3f7a9fe364faab93b216da50a3214154f22a0a2b415b23a84c8169e8b636ee30155565b611bcb565b816001600160a01b0316836001600160a01b031614611bcb57611bcb8382611c05565b6001600160a01b038216611be25761069481611ca2565b826001600160a01b0316826001600160a01b031614610694576106948282611d51565b60006001611c1284610bdb565b611c1c9190612318565b600083815260076020526040902054909150808214611c6f576001600160a01b03841660009081526006602090815260408083208584528252808320548484528184208190558352600790915290208190555b5060009182526007602090815260408084208490556001600160a01b039094168352600681528383209183525290812055565b600854600090611cb490600190612318565b60008381526009602052604081205460088054939450909284908110611cdc57611cdc6123ef565b906000526020600020015490508060088381548110611cfd57611cfd6123ef565b6000918252602080832090910192909255828152600990915260408082208490558582528120556008805480611d3557611d356123d9565b6001900381819060005260206000200160009055905550505050565b6000611d5c83610bdb565b6001600160a01b039093166000908152600660209081526040808320868452825280832085905593825260079052919091209190915550565b828054611da190612372565b90600052602060002090601f016020900481019282611dc35760008555611e09565b82601f10611ddc57805160ff1916838001178555611e09565b82800160010185558215611e09579182015b82811115611e09578251825591602001919060010190611dee565b50611e15929150611e19565b5090565b5b80821115611e155760008155600101611e1a565b600067ffffffffffffffff80841115611e4957611e49612405565b604051601f8501601f19908116603f01168101908282118183101715611e7157611e71612405565b81604052809350858152868686011115611e8a57600080fd5b858560208301376000602087830101525050509392505050565b80356001600160a01b0381168114611ebb57600080fd5b919050565b80358015158114611ebb57600080fd5b600082601f830112611ee157600080fd5b611b4083833560208501611e2e565b600060208284031215611f0257600080fd5b611b4082611ea4565b60008060408385031215611f1e57600080fd5b611f2783611ea4565b9150611f3560208401611ea4565b90509250929050565b600080600060608486031215611f5357600080fd5b611f5c84611ea4565b9250611f6a60208501611ea4565b9150604084013590509250925092565b60008060008060808587031215611f9057600080fd5b611f9985611ea4565b9350611fa760208601611ea4565b925060408501359150606085013567ffffffffffffffff811115611fca57600080fd5b8501601f81018713611fdb57600080fd5b611fea87823560208401611e2e565b91505092959194509250565b6000806040838503121561200957600080fd5b61201283611ea4565b9150611f3560208401611ec0565b6000806040838503121561203357600080fd5b61203c83611ea4565b91506020830135600a811061205057600080fd5b809150509250929050565b6000806040838503121561206e57600080fd5b61207783611ea4565b946020939093013593505050565b60006020828403121561209757600080fd5b611b4082611ec0565b6000602082840312156120b257600080fd5b5035919050565b600080604083850312156120cc57600080fd5b82359150611f3560208401611ea4565b6000602082840312156120ee57600080fd5b8135611b408161241b565b60006020828403121561210b57600080fd5b8151611b408161241b565b60006020828403121561212857600080fd5b813567ffffffffffffffff81111561213f57600080fd5b61195784828501611ed0565b6000806000806080858703121561216157600080fd5b84359350602085013567ffffffffffffffff8082111561218057600080fd5b61218c88838901611ed0565b945060408701359150808211156121a257600080fd5b506121af87828801611ed0565b9250506121be60608601611ea4565b905092959194509250565b600081518084526121e181602086016020860161232f565b601f01601f19169290920160200192915050565b6000825161220781846020870161232f565b9190910192915050565b7f416363657373436f6e74726f6c3a206163636f756e742000000000000000000081526000835161224981601785016020880161232f565b7f206973206d697373696e6720726f6c6520000000000000000000000000000000601791840191820152835161228681602884016020880161232f565b01602801949350505050565b60006001600160a01b038087168352808616602084015250836040830152608060608301526122c460808301846121c9565b9695505050505050565b602081526000611b4060208301846121c9565b600082198211156122f4576122f46123ad565b500190565b6000816000190483118215151615612313576123136123ad565b500290565b60008282101561232a5761232a6123ad565b500390565b60005b8381101561234a578181015183820152602001612332565b83811115610d535750506000910152565b60008161236a5761236a6123ad565b506000190190565b600181811c9082168061238657607f821691505b602082108114156123a757634e487b7160e01b600052602260045260246000fd5b50919050565b634e487b7160e01b600052601160045260246000fd5b634e487b7160e01b600052602160045260246000fd5b634e487b7160e01b600052603160045260246000fd5b634e487b7160e01b600052603260045260246000fd5b634e487b7160e01b600052604160045260246000fd5b6001600160e01b0319811681146107b557600080fdfea2646970667358221220c5bb2a7c97baca5d39a4c1c4123fc3d2624a3414a38a832a15782695d7b2e9f364736f6c63430008070033",
  "linkReferences": {},
  "deployedLinkReferences": {}
}