{
  "_format": "hh-sol-artifact-1",
  "contractName": "TalentNFT",
  "sourceName": "contracts/talent-nft/TalentNFT.sol",
  "abi": [
    {
      "inputs": [
        {
          "internalType": "address",
          "name": "_owner",
          "type": "address"
        },
        {
          "internalType": "string",
          "name": "_ticker",
          "type": "string"
        }
      ],
      "stateMutability": "nonpayable",
      "type": "constructor"
    },
    {
      "anonymous": false,
      "inputs": [
        {
          "indexed": true,
          "internalType": "address",
          "name": "owner",
          "type": "address"
        },
        {
          "indexed": true,
          "internalType": "address",
          "name": "approved",
          "type": "address"
        },
        {
          "indexed": true,
          "internalType": "uint256",
          "name": "tokenId",
          "type": "uint256"
        }
      ],
      "name": "Approval",
      "type": "event"
    },
    {
      "anonymous": false,
      "inputs": [
        {
          "indexed": true,
          "internalType": "address",
          "name": "owner",
          "type": "address"
        },
        {
          "indexed": true,
          "internalType": "address",
          "name": "operator",
          "type": "address"
        },
        {
          "indexed": false,
          "internalType": "bool",
          "name": "approved",
          "type": "bool"
        }
      ],
      "name": "ApprovalForAll",
      "type": "event"
    },
    {
      "anonymous": false,
      "inputs": [
        {
          "indexed": true,
          "internalType": "bytes32",
          "name": "role",
          "type": "bytes32"
        },
        {
          "indexed": true,
          "internalType": "bytes32",
          "name": "previousAdminRole",
          "type": "bytes32"
        },
        {
          "indexed": true,
          "internalType": "bytes32",
          "name": "newAdminRole",
          "type": "bytes32"
        }
      ],
      "name": "RoleAdminChanged",
      "type": "event"
    },
    {
      "anonymous": false,
      "inputs": [
        {
          "indexed": true,
          "internalType": "bytes32",
          "name": "role",
          "type": "bytes32"
        },
        {
          "indexed": true,
          "internalType": "address",
          "name": "account",
          "type": "address"
        },
        {
          "indexed": true,
          "internalType": "address",
          "name": "sender",
          "type": "address"
        }
      ],
      "name": "RoleGranted",
      "type": "event"
    },
    {
      "anonymous": false,
      "inputs": [
        {
          "indexed": true,
          "internalType": "bytes32",
          "name": "role",
          "type": "bytes32"
        },
        {
          "indexed": true,
          "internalType": "address",
          "name": "account",
          "type": "address"
        },
        {
          "indexed": true,
          "internalType": "address",
          "name": "sender",
          "type": "address"
        }
      ],
      "name": "RoleRevoked",
      "type": "event"
    },
    {
      "anonymous": false,
      "inputs": [
        {
          "indexed": true,
          "internalType": "address",
          "name": "from",
          "type": "address"
        },
        {
          "indexed": true,
          "internalType": "address",
          "name": "to",
          "type": "address"
        },
        {
          "indexed": true,
          "internalType": "uint256",
          "name": "tokenId",
          "type": "uint256"
        }
      ],
      "name": "Transfer",
      "type": "event"
    },
    {
      "inputs": [],
      "name": "DEFAULT_ADMIN_ROLE",
      "outputs": [
        {
          "internalType": "bytes32",
          "name": "",
          "type": "bytes32"
        }
      ],
      "stateMutability": "view",
      "type": "function"
    },
    {
      "inputs": [
        {
          "internalType": "address",
          "name": "_newOwner",
          "type": "address"
        }
      ],
      "name": "addOwner",
      "outputs": [],
      "stateMutability": "nonpayable",
      "type": "function"
    },
    {
      "inputs": [
        {
          "internalType": "address",
          "name": "to",
          "type": "address"
        },
        {
          "internalType": "uint256",
          "name": "tokenId",
          "type": "uint256"
        }
      ],
      "name": "approve",
      "outputs": [],
      "stateMutability": "nonpayable",
      "type": "function"
    },
    {
      "inputs": [
        {
          "internalType": "address",
          "name": "owner",
          "type": "address"
        }
      ],
      "name": "balanceOf",
      "outputs": [
        {
          "internalType": "uint256",
          "name": "",
          "type": "uint256"
        }
      ],
      "stateMutability": "view",
      "type": "function"
    },
    {
      "inputs": [
        {
          "internalType": "address",
          "name": "userWallet",
          "type": "address"
        }
      ],
      "name": "createMintingToken",
      "outputs": [
        {
          "internalType": "bytes32",
          "name": "",
          "type": "bytes32"
        }
      ],
      "stateMutability": "nonpayable",
      "type": "function"
    },
    {
      "inputs": [
        {
          "internalType": "uint256",
          "name": "tokenId",
          "type": "uint256"
        }
      ],
      "name": "getApproved",
      "outputs": [
        {
          "internalType": "address",
          "name": "",
          "type": "address"
        }
      ],
      "stateMutability": "view",
      "type": "function"
    },
    {
      "inputs": [],
      "name": "getPublicStageFlag",
      "outputs": [
        {
          "internalType": "bool",
          "name": "",
          "type": "bool"
        }
      ],
      "stateMutability": "view",
      "type": "function"
    },
    {
      "inputs": [
        {
          "internalType": "bytes32",
          "name": "role",
          "type": "bytes32"
        }
      ],
      "name": "getRoleAdmin",
      "outputs": [
        {
          "internalType": "bytes32",
          "name": "",
          "type": "bytes32"
        }
      ],
      "stateMutability": "view",
      "type": "function"
    },
    {
      "inputs": [
        {
          "internalType": "bytes32",
          "name": "role",
          "type": "bytes32"
        },
        {
          "internalType": "address",
          "name": "account",
          "type": "address"
        }
      ],
      "name": "grantRole",
      "outputs": [],
      "stateMutability": "nonpayable",
      "type": "function"
    },
    {
      "inputs": [
        {
          "internalType": "bytes32",
          "name": "role",
          "type": "bytes32"
        },
        {
          "internalType": "address",
          "name": "account",
          "type": "address"
        }
      ],
      "name": "hasRole",
      "outputs": [
        {
          "internalType": "bool",
          "name": "",
          "type": "bool"
        }
      ],
      "stateMutability": "view",
      "type": "function"
    },
    {
      "inputs": [
        {
          "internalType": "address",
          "name": "owner",
          "type": "address"
        },
        {
          "internalType": "address",
          "name": "operator",
          "type": "address"
        }
      ],
      "name": "isApprovedForAll",
      "outputs": [
        {
          "internalType": "bool",
          "name": "",
          "type": "bool"
        }
      ],
      "stateMutability": "view",
      "type": "function"
    },
    {
      "inputs": [
        {
          "internalType": "string",
          "name": "combination",
          "type": "string"
        }
      ],
      "name": "isCombinationaAvailable",
      "outputs": [
        {
          "internalType": "bool",
          "name": "",
          "type": "bool"
        }
      ],
      "stateMutability": "view",
      "type": "function"
    },
    {
      "inputs": [
        {
          "internalType": "address",
          "name": "account",
          "type": "address"
        }
      ],
      "name": "isWhitelisted",
      "outputs": [
        {
          "internalType": "bool",
          "name": "",
          "type": "bool"
        }
      ],
      "stateMutability": "view",
      "type": "function"
    },
    {
      "inputs": [
        {
          "internalType": "string",
          "name": "combination",
          "type": "string"
        }
      ],
      "name": "mint",
      "outputs": [],
      "stateMutability": "nonpayable",
      "type": "function"
    },
    {
      "inputs": [],
      "name": "name",
      "outputs": [
        {
          "internalType": "string",
          "name": "",
          "type": "string"
        }
      ],
      "stateMutability": "view",
      "type": "function"
    },
    {
      "inputs": [
        {
          "internalType": "uint256",
          "name": "tokenId",
          "type": "uint256"
        }
      ],
      "name": "ownerOf",
      "outputs": [
        {
          "internalType": "address",
          "name": "",
          "type": "address"
        }
      ],
      "stateMutability": "view",
      "type": "function"
    },
    {
      "inputs": [
        {
          "internalType": "bytes32",
          "name": "role",
          "type": "bytes32"
        },
        {
          "internalType": "address",
          "name": "account",
          "type": "address"
        }
      ],
      "name": "renounceRole",
      "outputs": [],
      "stateMutability": "nonpayable",
      "type": "function"
    },
    {
      "inputs": [
        {
          "internalType": "bytes32",
          "name": "role",
          "type": "bytes32"
        },
        {
          "internalType": "address",
          "name": "account",
          "type": "address"
        }
      ],
      "name": "revokeRole",
      "outputs": [],
      "stateMutability": "nonpayable",
      "type": "function"
    },
    {
      "inputs": [
        {
          "internalType": "address",
          "name": "from",
          "type": "address"
        },
        {
          "internalType": "address",
          "name": "to",
          "type": "address"
        },
        {
          "internalType": "uint256",
          "name": "tokenId",
          "type": "uint256"
        }
      ],
      "name": "safeTransferFrom",
      "outputs": [],
      "stateMutability": "nonpayable",
      "type": "function"
    },
    {
      "inputs": [
        {
          "internalType": "address",
          "name": "from",
          "type": "address"
        },
        {
          "internalType": "address",
          "name": "to",
          "type": "address"
        },
        {
          "internalType": "uint256",
          "name": "tokenId",
          "type": "uint256"
        },
        {
          "internalType": "bytes",
          "name": "data",
          "type": "bytes"
        }
      ],
      "name": "safeTransferFrom",
      "outputs": [],
      "stateMutability": "pure",
      "type": "function"
    },
    {
      "inputs": [
        {
          "internalType": "address",
          "name": "operator",
          "type": "address"
        },
        {
          "internalType": "bool",
          "name": "approved",
          "type": "bool"
        }
      ],
      "name": "setApprovalForAll",
      "outputs": [],
      "stateMutability": "nonpayable",
      "type": "function"
    },
    {
      "inputs": [
        {
          "internalType": "string",
          "name": "baseURI_",
          "type": "string"
        }
      ],
      "name": "setBaseURI",
      "outputs": [],
      "stateMutability": "nonpayable",
      "type": "function"
    },
    {
      "inputs": [
        {
          "internalType": "bool",
          "name": "newFlagValue",
          "type": "bool"
        }
      ],
      "name": "setPublicStageFlag",
      "outputs": [],
      "stateMutability": "nonpayable",
      "type": "function"
    },
    {
      "inputs": [
        {
          "internalType": "uint256",
          "name": "tokenId",
          "type": "uint256"
        },
        {
          "internalType": "string",
          "name": "tokenURI_",
          "type": "string"
        },
        {
          "internalType": "bytes32",
          "name": "mintingToken",
          "type": "bytes32"
        },
        {
          "internalType": "address",
          "name": "account",
          "type": "address"
        }
      ],
      "name": "setTokenURI",
      "outputs": [],
      "stateMutability": "nonpayable",
      "type": "function"
    },
    {
      "inputs": [
        {
          "internalType": "bytes4",
          "name": "interfaceId",
          "type": "bytes4"
        }
      ],
      "name": "supportsInterface",
      "outputs": [
        {
          "internalType": "bool",
          "name": "",
          "type": "bool"
        }
      ],
      "stateMutability": "view",
      "type": "function"
    },
    {
      "inputs": [],
      "name": "symbol",
      "outputs": [
        {
          "internalType": "string",
          "name": "",
          "type": "string"
        }
      ],
      "stateMutability": "view",
      "type": "function"
    },
    {
      "inputs": [
        {
          "internalType": "uint256",
          "name": "index",
          "type": "uint256"
        }
      ],
      "name": "tokenByIndex",
      "outputs": [
        {
          "internalType": "uint256",
          "name": "",
          "type": "uint256"
        }
      ],
      "stateMutability": "view",
      "type": "function"
    },
    {
      "inputs": [
        {
          "internalType": "address",
          "name": "owner",
          "type": "address"
        },
        {
          "internalType": "uint256",
          "name": "index",
          "type": "uint256"
        }
      ],
      "name": "tokenOfOwnerByIndex",
      "outputs": [
        {
          "internalType": "uint256",
          "name": "",
          "type": "uint256"
        }
      ],
      "stateMutability": "view",
      "type": "function"
    },
    {
      "inputs": [
        {
          "internalType": "uint256",
          "name": "tokenId",
          "type": "uint256"
        }
      ],
      "name": "tokenURI",
      "outputs": [
        {
          "internalType": "string",
          "name": "",
          "type": "string"
        }
      ],
      "stateMutability": "view",
      "type": "function"
    },
    {
      "inputs": [],
      "name": "totalSupply",
      "outputs": [
        {
          "internalType": "uint256",
          "name": "",
          "type": "uint256"
        }
      ],
      "stateMutability": "view",
      "type": "function"
    },
    {
      "inputs": [
        {
          "internalType": "address",
          "name": "from",
          "type": "address"
        },
        {
          "internalType": "address",
          "name": "to",
          "type": "address"
        },
        {
          "internalType": "uint256",
          "name": "tokenId",
          "type": "uint256"
        }
      ],
      "name": "transferFrom",
      "outputs": [],
      "stateMutability": "pure",
      "type": "function"
    },
    {
      "inputs": [
        {
          "internalType": "bytes32",
          "name": "mintingToken",
          "type": "bytes32"
        },
        {
          "internalType": "address",
          "name": "account",
          "type": "address"
        }
      ],
      "name": "validateMintingToken",
      "outputs": [
        {
          "internalType": "bool",
          "name": "",
          "type": "bool"
        }
      ],
      "stateMutability": "nonpayable",
      "type": "function"
    },
    {
      "inputs": [
        {
          "internalType": "address",
          "name": "_to",
          "type": "address"
        },
        {
          "internalType": "enum TIERS",
          "name": "tier",
          "type": "uint8"
        }
      ],
      "name": "whitelistAddress",
      "outputs": [],
      "stateMutability": "nonpayable",
      "type": "function"
    }
  ],
  "bytecode": "0x6080604052600f805460ff191690553480156200001b57600080fd5b5060405162002999380380620029998339810160408190526200003e916200020f565b60408051808201909152601e8082527f54616c656e742050726f746f636f6c204e465420436f6c6c656374696f6e0000602083019081528391620000859160009162000169565b5080516200009b90600190602084019062000169565b50620000ad91506000905083620000b5565b505062000362565b620000c18282620000c5565b5050565b6000828152600a602090815260408083206001600160a01b038516845290915290205460ff16620000c1576000828152600a602090815260408083206001600160a01b03851684529091529020805460ff19166001179055620001253390565b6001600160a01b0316816001600160a01b0316837f2f8788117e7eff1d82e926ec794901d17c78024a50270940304540a733656f0d60405160405180910390a45050565b82805462000177906200030f565b90600052602060002090601f0160209004810192826200019b5760008555620001e6565b82601f10620001b657805160ff1916838001178555620001e6565b82800160010185558215620001e6579182015b82811115620001e6578251825591602001919060010190620001c9565b50620001f4929150620001f8565b5090565b5b80821115620001f45760008155600101620001f9565b600080604083850312156200022357600080fd5b82516001600160a01b03811681146200023b57600080fd5b602084810151919350906001600160401b03808211156200025b57600080fd5b818601915086601f8301126200027057600080fd5b8151818111156200028557620002856200034c565b604051601f8201601f19908116603f01168101908382118183101715620002b057620002b06200034c565b816040528281528986848701011115620002c957600080fd5b600093505b82841015620002ed5784840186015181850187015292850192620002ce565b82841115620002ff5760008684830101525b8096505050505050509250929050565b600181811c908216806200032457607f821691505b602082108114156200034657634e487b7160e01b600052602260045260246000fd5b50919050565b634e487b7160e01b600052604160045260246000fd5b61262780620003726000396000f3fe608060405234801561001057600080fd5b506004361061020b5760003560e01c80634f6ccce71161012a5780639d0234fe116100bd578063b88d4fde1161008c578063d547741f11610071578063d547741f1461048d578063d85d3d27146104a0578063e985e9c5146104b357600080fd5b8063b88d4fde1461046c578063c87b56dd1461047a57600080fd5b80639d0234fe14610433578063a217fddf1461043e578063a22cb46514610446578063b430a5d91461045957600080fd5b80637065cb48116100f95780637065cb48146103cc57806370a08231146103df57806391d14854146103f257806395d89b411461042b57600080fd5b80634f6ccce71461038057806355f804b3146103935780636352211e146103a65780636b9a5c6c146103b957600080fd5b806329c450f4116101a257806336568abe1161017157806336568abe146103345780633af32abf1461034757806342842e0e1461035a57806347dc40a11461036d57600080fd5b806329c450f4146102e85780632dd98776146102fb5780632f2ff15d1461030e5780632f745c591461032157600080fd5b806310089bee116101de57806310089bee1461028d57806318160ddd146102a057806323b872dd146102b2578063248a9ca3146102c557600080fd5b806301ffc9a71461021057806306fdde0314610238578063081812fc1461024d578063095ea7b314610278575b600080fd5b61022361021e3660046122bf565b6104ef565b60405190151581526020015b60405180910390f35b610240610500565b60405161022f9190612494565b61026061025b366004612283565b610592565b6040516001600160a01b03909116815260200161022f565b61028b61028636600461223e565b6105b9565b005b61028b61029b36600461232e565b6106f0565b6008545b60405190815260200161022f565b61028b6102c0366004612121565b610820565b6102a46102d3366004612283565b6000908152600a602052604090206001015490565b6102a46102f63660046120d3565b610868565b6102236103093660046122f9565b61096e565b61028b61031c36600461229c565b610997565b6102a461032f36600461223e565b6109bc565b61028b61034236600461229c565b610a64565b6102236103553660046120d3565b610af0565b61028b610368366004612121565b610b20565b61022361037b36600461229c565b610b3b565b6102a461038e366004612283565b610bda565b61028b6103a13660046122f9565b610c7e565b6102606103b4366004612283565b610c9c565b61028b6103c7366004612203565b610d01565b61028b6103da3660046120d3565b610dd2565b6102a46103ed3660046120d3565b610de8565b61022361040036600461229c565b6000918252600a602090815260408084206001600160a01b0393909316845291905290205460ff1690565b610240610e82565b600f5460ff16610223565b6102a4600081565b61028b6104543660046121d9565b610e91565b61028b610467366004612268565b610e9c565b61028b6102c036600461215d565b610240610488366004612283565b610f66565b61028b61049b36600461229c565b611101565b61028b6104ae3660046122f9565b611126565b6102236104c13660046120ee565b6001600160a01b03918216600090815260056020908152604080832093909416825291909152205460ff1690565b60006104fa826112fd565b92915050565b60606000805461050f90612538565b80601f016020809104026020016040519081016040528092919081815260200182805461053b90612538565b80156105885780601f1061055d57610100808354040283529160200191610588565b820191906000526020600020905b81548152906001019060200180831161056b57829003601f168201915b5050505050905090565b600061059d8261133b565b506000908152600460205260409020546001600160a01b031690565b60006105c482610c9c565b9050806001600160a01b0316836001600160a01b031614156106535760405162461bcd60e51b815260206004820152602160248201527f4552433732313a20617070726f76616c20746f2063757272656e74206f776e6560448201527f720000000000000000000000000000000000000000000000000000000000000060648201526084015b60405180910390fd5b336001600160a01b038216148061066f575061066f81336104c1565b6106e15760405162461bcd60e51b815260206004820152603e60248201527f4552433732313a20617070726f76652063616c6c6572206973206e6f7420746f60448201527f6b656e206f776e6572206e6f7220617070726f76656420666f7220616c6c0000606482015260840161064a565b6106eb838361139f565b505050565b60006106fb8161140d565b6000858152600260205260409020546001600160a01b03166107855760405162461bcd60e51b815260206004820152602f60248201527f4552433732314d657461646174613a2055524920717565727920666f72206e6f60448201527f6e6578697374656e7420746f6b656e0000000000000000000000000000000000606482015260840161064a565b61078f8383610b3b565b6107db5760405162461bcd60e51b815260206004820181905260248201527f556e61626c6520746f20656e73757265206d696e746572206964656e74697479604482015260640161064a565b600083815260116020908152604080832080546001600160a01b0319168155600101839055878352600d8252909120855161081892870190611f78565b505050505050565b60405162461bcd60e51b815260206004820152601e60248201527f54616c656e74204e4654206973206e6f6e2d7472616e7366657261626c650000604482015260640161064a565b6000806108748161140d565b61087d83610af0565b8061088a5750600f5460ff165b6108fe576040805162461bcd60e51b81526020600482015260248101919091527f5075626c6963207374616765206973206e6f7420617661696c61626c6520616e60448201527f64207468652061646472657373206973206e6f742077686974656c6973746564606482015260840161064a565b6040516bffffffffffffffffffffffff19606085901b16602082015260009060340160408051808303601f19018152918152815160209283012060008181526011909352912080546001600160a01b0319166001600160a01b038716178155426001909101559250505b50919050565b6000600e8260405161098091906123bb565b908152604051908190036020019020541592915050565b6000828152600a60205260409020600101546109b28161140d565b6106eb8383611417565b60006109c783610de8565b8210610a3b5760405162461bcd60e51b815260206004820152602b60248201527f455243373231456e756d657261626c653a206f776e657220696e646578206f7560448201527f74206f6620626f756e6473000000000000000000000000000000000000000000606482015260840161064a565b506001600160a01b03919091166000908152600660209081526040808320938352929052205490565b6001600160a01b0381163314610ae25760405162461bcd60e51b815260206004820152602f60248201527f416363657373436f6e74726f6c3a2063616e206f6e6c792072656e6f756e636560448201527f20726f6c657320666f722073656c660000000000000000000000000000000000606482015260840161064a565b610aec82826114b9565b5050565b600080610afc8361153c565b6009811115610b0d57610b0d612583565b11806104fa5750600f5460ff1692915050565b6106eb83838360405180602001604052806000815250610820565b600082815260116020526040812060010154610b59575060006104fa565b600083815260116020526040812060010154610b769042906124de565b6000858152601160205260409020549091506001600160a01b038481169116148015610ba3575061025881105b15610bb25760019150506104fa565b505050600090815260116020526040812080546001600160a01b031916815560010181905590565b6000610be560085490565b8210610c595760405162461bcd60e51b815260206004820152602c60248201527f455243373231456e756d657261626c653a20676c6f62616c20696e646578206f60448201527f7574206f6620626f756e64730000000000000000000000000000000000000000606482015260840161064a565b60088281548110610c6c57610c6c6125af565b90600052602060002001549050919050565b6000610c898161140d565b81516106eb90600c906020850190611f78565b6000818152600260205260408120546001600160a01b0316806104fa5760405162461bcd60e51b815260206004820152601860248201527f4552433732313a20696e76616c696420746f6b656e2049440000000000000000604482015260640161064a565b6000610d0c8161140d565b6001826009811115610d2057610d20612583565b11610d935760405162461bcd60e51b815260206004820152603a60248201527f546865207469657220676976656e206e6565647320746f20626520677265617460448201527f6572207468616e2054494552532e5055424c49435f5354414745000000000000606482015260840161064a565b6001600160a01b0383166000908152601060205260409020805483919060ff19166001836009811115610dc857610dc8612583565b0217905550505050565b6000610ddd8161140d565b610aec6000836115ac565b60006001600160a01b038216610e665760405162461bcd60e51b815260206004820152602960248201527f4552433732313a2061646472657373207a65726f206973206e6f74206120766160448201527f6c6964206f776e65720000000000000000000000000000000000000000000000606482015260840161064a565b506001600160a01b031660009081526003602052604090205490565b60606001805461050f90612538565b610aec3383836115b6565b6000610ea78161140d565b600f5460ff1615158215151415610f4c5760405162461bcd60e51b815260206004820152605c60248201527f556e61626c6520746f206368616e6765205f7075626c69635374616765466c6160448201527f672076616c7565206265636175736520746865206e65772076616c756520697360648201527f207468652073616d65206173207468652063757272656e74206f6e6500000000608482015260a40161064a565b50600f805460ff1916911515919091179055565b50505050565b6000818152600260205260409020546060906001600160a01b0316610ff35760405162461bcd60e51b815260206004820152602f60248201527f4552433732314d657461646174613a2055524920717565727920666f72206e6f60448201527f6e6578697374656e7420746f6b656e0000000000000000000000000000000000606482015260840161064a565b6000610ffd611685565b90508051600014156110515760405162461bcd60e51b815260206004820152601060248201527f4261736520555249206e6f742073657400000000000000000000000000000000604482015260640161064a565b6000838152600d60205260408120805461106a90612538565b80601f016020809104026020016040519081016040528092919081815260200182805461109690612538565b80156110e35780601f106110b8576101008083540402835291602001916110e3565b820191906000526020600020905b8154815290600101906020018083116110c657829003601f168201915b5050505050905080516000146110fa579392505050565b5092915050565b6000828152600a602052604090206001015461111c8161140d565b6106eb83836114b9565b61112f33610af0565b6111a15760405162461bcd60e51b815260206004820152602d60248201527f4d696e74696e67206e6f7420616c6c6f77656420776974682063757272656e7460448201527f2073656e64657220726f6c657300000000000000000000000000000000000000606482015260840161064a565b6111aa33610de8565b1561121d5760405162461bcd60e51b815260206004820152602960248201527f416464726573732068617320616c7265616479206d696e746564206f6e65205460448201527f616c656e74204e46540000000000000000000000000000000000000000000000606482015260840161064a565b600e8160405161122d91906123bb565b9081526020016040518091039020546000141561128c57611252600b80546001019055565b600b54600e8260405161126591906123bb565b908152604051908190036020019020556000611280600b5490565b9050610aec3382611694565b60405162461bcd60e51b815260206004820152602360248201527f5468697320636f6d62696e6174696f6e2077617320616c7265616479206d696e60448201527f7465640000000000000000000000000000000000000000000000000000000000606482015260840161064a565b50565b60006001600160e01b031982167f7965db0b0000000000000000000000000000000000000000000000000000000014806104fa57506104fa826116ae565b6000818152600260205260409020546001600160a01b03166112fa5760405162461bcd60e51b815260206004820152601860248201527f4552433732313a20696e76616c696420746f6b656e2049440000000000000000604482015260640161064a565b600081815260046020526040902080546001600160a01b0319166001600160a01b03841690811790915581906113d482610c9c565b6001600160a01b03167f8c5be1e5ebec7d5bd14f71427d1e84f3dd0314c0f7b2291e5b200ac8c7c3b92560405160405180910390a45050565b6112fa81336116ec565b6000828152600a602090815260408083206001600160a01b038516845290915290205460ff16610aec576000828152600a602090815260408083206001600160a01b03851684529091529020805460ff191660011790556114753390565b6001600160a01b0316816001600160a01b0316837f2f8788117e7eff1d82e926ec794901d17c78024a50270940304540a733656f0d60405160405180910390a45050565b6000828152600a602090815260408083206001600160a01b038516845290915290205460ff1615610aec576000828152600a602090815260408083206001600160a01b0385168085529252808320805460ff1916905551339285917ff6391f5c32d9c69d2a47ea670b442974b53935d1edc7fd64eb21e047a839171b9190a45050565b600f5460009060ff161561155257506001919050565b6001600160a01b03821660009081526010602052604081205460ff16600981111561157f5761157f612583565b141561158d57506000919050565b506001600160a01b031660009081526010602052604090205460ff1690565b610aec8282611417565b816001600160a01b0316836001600160a01b031614156116185760405162461bcd60e51b815260206004820152601960248201527f4552433732313a20617070726f766520746f2063616c6c657200000000000000604482015260640161064a565b6001600160a01b03838116600081815260056020908152604080832094871680845294825291829020805460ff191686151590811790915591519182527f17307eab39ab6107e8899845ad3d59bd9653f200f220920489ca2b5937696c31910160405180910390a3505050565b6060600c805461050f90612538565b610aec82826040518060200160405280600081525061176c565b60006001600160e01b031982167f780e9d630000000000000000000000000000000000000000000000000000000014806104fa57506104fa826117f5565b6000828152600a602090815260408083206001600160a01b038516845290915290205460ff16610aec5761172a816001600160a01b03166014611890565b611735836020611890565b6040516020016117469291906123d7565b60408051601f198184030181529082905262461bcd60e51b825261064a91600401612494565b6117768383611a78565b6117836000848484611bc6565b6106eb5760405162461bcd60e51b815260206004820152603260248201527f4552433732313a207472616e7366657220746f206e6f6e20455243373231526560448201527f63656976657220696d706c656d656e7465720000000000000000000000000000606482015260840161064a565b60006001600160e01b031982167f80ac58cd00000000000000000000000000000000000000000000000000000000148061185857506001600160e01b031982167f5b5e139f00000000000000000000000000000000000000000000000000000000145b806104fa57507f01ffc9a7000000000000000000000000000000000000000000000000000000006001600160e01b03198316146104fa565b6060600061189f8360026124bf565b6118aa9060026124a7565b67ffffffffffffffff8111156118c2576118c26125c5565b6040519080825280601f01601f1916602001820160405280156118ec576020820181803683370190505b5090507f300000000000000000000000000000000000000000000000000000000000000081600081518110611923576119236125af565b60200101906001600160f81b031916908160001a9053507f78000000000000000000000000000000000000000000000000000000000000008160018151811061196e5761196e6125af565b60200101906001600160f81b031916908160001a90535060006119928460026124bf565b61199d9060016124a7565b90505b6001811115611a22577f303132333435363738396162636465660000000000000000000000000000000085600f16601081106119de576119de6125af565b1a60f81b8282815181106119f4576119f46125af565b60200101906001600160f81b031916908160001a90535060049490941c93611a1b81612521565b90506119a0565b508315611a715760405162461bcd60e51b815260206004820181905260248201527f537472696e67733a20686578206c656e67746820696e73756666696369656e74604482015260640161064a565b9392505050565b6001600160a01b038216611ace5760405162461bcd60e51b815260206004820181905260248201527f4552433732313a206d696e7420746f20746865207a65726f2061646472657373604482015260640161064a565b6000818152600260205260409020546001600160a01b031615611b335760405162461bcd60e51b815260206004820152601c60248201527f4552433732313a20746f6b656e20616c7265616479206d696e74656400000000604482015260640161064a565b611b3f60008383611d2a565b6001600160a01b0382166000908152600360205260408120805460019290611b689084906124a7565b909155505060008181526002602052604080822080546001600160a01b0319166001600160a01b03861690811790915590518392907fddf252ad1be2c89b69c2b068fc378daa952ba7f163c4a11628f55a4df523b3ef908290a45050565b60006001600160a01b0384163b15611d1e57604051630a85bd0160e11b81526001600160a01b0385169063150b7a0290611c0a903390899088908890600401612458565b602060405180830381600087803b158015611c2457600080fd5b505af1925050508015611c54575060408051601f3d908101601f19168201909252611c51918101906122dc565b60015b611d04573d808015611c82576040519150601f19603f3d011682016040523d82523d6000602084013e611c87565b606091505b508051611cfc5760405162461bcd60e51b815260206004820152603260248201527f4552433732313a207472616e7366657220746f206e6f6e20455243373231526560448201527f63656976657220696d706c656d656e7465720000000000000000000000000000606482015260840161064a565b805181602001fd5b6001600160e01b031916630a85bd0160e11b149050611d22565b5060015b949350505050565b6106eb8383836001600160a01b038316611d8b57611d8681600880546000838152600960205260408120829055600182018355919091527ff3f7a9fe364faab93b216da50a3214154f22a0a2b415b23a84c8169e8b636ee30155565b611dae565b816001600160a01b0316836001600160a01b031614611dae57611dae8382611de8565b6001600160a01b038216611dc5576106eb81611e85565b826001600160a01b0316826001600160a01b0316146106eb576106eb8282611f34565b60006001611df584610de8565b611dff91906124de565b600083815260076020526040902054909150808214611e52576001600160a01b03841660009081526006602090815260408083208584528252808320548484528184208190558352600790915290208190555b5060009182526007602090815260408084208490556001600160a01b039094168352600681528383209183525290812055565b600854600090611e97906001906124de565b60008381526009602052604081205460088054939450909284908110611ebf57611ebf6125af565b906000526020600020015490508060088381548110611ee057611ee06125af565b6000918252602080832090910192909255828152600990915260408082208490558582528120556008805480611f1857611f18612599565b6001900381819060005260206000200160009055905550505050565b6000611f3f83610de8565b6001600160a01b039093166000908152600660209081526040808320868452825280832085905593825260079052919091209190915550565b828054611f8490612538565b90600052602060002090601f016020900481019282611fa65760008555611fec565b82601f10611fbf57805160ff1916838001178555611fec565b82800160010185558215611fec579182015b82811115611fec578251825591602001919060010190611fd1565b50611ff8929150611ffc565b5090565b5b80821115611ff85760008155600101611ffd565b600067ffffffffffffffff8084111561202c5761202c6125c5565b604051601f8501601f19908116603f01168101908282118183101715612054576120546125c5565b8160405280935085815286868601111561206d57600080fd5b858560208301376000602087830101525050509392505050565b80356001600160a01b038116811461209e57600080fd5b919050565b8035801515811461209e57600080fd5b600082601f8301126120c457600080fd5b611a7183833560208501612011565b6000602082840312156120e557600080fd5b611a7182612087565b6000806040838503121561210157600080fd5b61210a83612087565b915061211860208401612087565b90509250929050565b60008060006060848603121561213657600080fd5b61213f84612087565b925061214d60208501612087565b9150604084013590509250925092565b6000806000806080858703121561217357600080fd5b61217c85612087565b935061218a60208601612087565b925060408501359150606085013567ffffffffffffffff8111156121ad57600080fd5b8501601f810187136121be57600080fd5b6121cd87823560208401612011565b91505092959194509250565b600080604083850312156121ec57600080fd5b6121f583612087565b9150612118602084016120a3565b6000806040838503121561221657600080fd5b61221f83612087565b91506020830135600a811061223357600080fd5b809150509250929050565b6000806040838503121561225157600080fd5b61225a83612087565b946020939093013593505050565b60006020828403121561227a57600080fd5b611a71826120a3565b60006020828403121561229557600080fd5b5035919050565b600080604083850312156122af57600080fd5b8235915061211860208401612087565b6000602082840312156122d157600080fd5b8135611a71816125db565b6000602082840312156122ee57600080fd5b8151611a71816125db565b60006020828403121561230b57600080fd5b813567ffffffffffffffff81111561232257600080fd5b611d22848285016120b3565b6000806000806080858703121561234457600080fd5b84359350602085013567ffffffffffffffff81111561236257600080fd5b61236e878288016120b3565b9350506040850135915061238460608601612087565b905092959194509250565b600081518084526123a78160208601602086016124f5565b601f01601f19169290920160200192915050565b600082516123cd8184602087016124f5565b9190910192915050565b7f416363657373436f6e74726f6c3a206163636f756e742000000000000000000081526000835161240f8160178501602088016124f5565b7f206973206d697373696e6720726f6c6520000000000000000000000000000000601791840191820152835161244c8160288401602088016124f5565b01602801949350505050565b60006001600160a01b0380871683528086166020840152508360408301526080606083015261248a608083018461238f565b9695505050505050565b602081526000611a71602083018461238f565b600082198211156124ba576124ba61256d565b500190565b60008160001904831182151516156124d9576124d961256d565b500290565b6000828210156124f0576124f061256d565b500390565b60005b838110156125105781810151838201526020016124f8565b83811115610f605750506000910152565b6000816125305761253061256d565b506000190190565b600181811c9082168061254c57607f821691505b6020821081141561096857634e487b7160e01b600052602260045260246000fd5b634e487b7160e01b600052601160045260246000fd5b634e487b7160e01b600052602160045260246000fd5b634e487b7160e01b600052603160045260246000fd5b634e487b7160e01b600052603260045260246000fd5b634e487b7160e01b600052604160045260246000fd5b6001600160e01b0319811681146112fa57600080fdfea2646970667358221220be7e71e8e3fcb10b959e9259381fece78af57c2f74cc7dd6d6945bd060cd6baf64736f6c63430008070033",
  "linkReferences": {},
  "deployedLinkReferences": {}
}