{
  "_format": "hh-sol-artifact-1",
  "contractName": "TalentNFT",
  "sourceName": "contracts/talent-nft/TalentNFT.sol",
  "abi": [
    {
      "inputs": [
        {
          "internalType": "address",
          "name": "_owner",
          "type": "address"
        },
        {
          "internalType": "string",
          "name": "_ticker",
          "type": "string"
        }
      ],
      "stateMutability": "nonpayable",
      "type": "constructor"
    },
    {
      "anonymous": false,
      "inputs": [
        {
          "indexed": true,
          "internalType": "address",
          "name": "owner",
          "type": "address"
        },
        {
          "indexed": true,
          "internalType": "address",
          "name": "approved",
          "type": "address"
        },
        {
          "indexed": true,
          "internalType": "uint256",
          "name": "tokenId",
          "type": "uint256"
        }
      ],
      "name": "Approval",
      "type": "event"
    },
    {
      "anonymous": false,
      "inputs": [
        {
          "indexed": true,
          "internalType": "address",
          "name": "owner",
          "type": "address"
        },
        {
          "indexed": true,
          "internalType": "address",
          "name": "operator",
          "type": "address"
        },
        {
          "indexed": false,
          "internalType": "bool",
          "name": "approved",
          "type": "bool"
        }
      ],
      "name": "ApprovalForAll",
      "type": "event"
    },
    {
      "anonymous": false,
      "inputs": [
        {
          "indexed": true,
          "internalType": "bytes32",
          "name": "role",
          "type": "bytes32"
        },
        {
          "indexed": true,
          "internalType": "bytes32",
          "name": "previousAdminRole",
          "type": "bytes32"
        },
        {
          "indexed": true,
          "internalType": "bytes32",
          "name": "newAdminRole",
          "type": "bytes32"
        }
      ],
      "name": "RoleAdminChanged",
      "type": "event"
    },
    {
      "anonymous": false,
      "inputs": [
        {
          "indexed": true,
          "internalType": "bytes32",
          "name": "role",
          "type": "bytes32"
        },
        {
          "indexed": true,
          "internalType": "address",
          "name": "account",
          "type": "address"
        },
        {
          "indexed": true,
          "internalType": "address",
          "name": "sender",
          "type": "address"
        }
      ],
      "name": "RoleGranted",
      "type": "event"
    },
    {
      "anonymous": false,
      "inputs": [
        {
          "indexed": true,
          "internalType": "bytes32",
          "name": "role",
          "type": "bytes32"
        },
        {
          "indexed": true,
          "internalType": "address",
          "name": "account",
          "type": "address"
        },
        {
          "indexed": true,
          "internalType": "address",
          "name": "sender",
          "type": "address"
        }
      ],
      "name": "RoleRevoked",
      "type": "event"
    },
    {
      "anonymous": false,
      "inputs": [
        {
          "indexed": true,
          "internalType": "address",
          "name": "from",
          "type": "address"
        },
        {
          "indexed": true,
          "internalType": "address",
          "name": "to",
          "type": "address"
        },
        {
          "indexed": true,
          "internalType": "uint256",
          "name": "tokenId",
          "type": "uint256"
        }
      ],
      "name": "Transfer",
      "type": "event"
    },
    {
      "inputs": [],
      "name": "DEFAULT_ADMIN_ROLE",
      "outputs": [
        {
          "internalType": "bytes32",
          "name": "",
          "type": "bytes32"
        }
      ],
      "stateMutability": "view",
      "type": "function"
    },
    {
      "inputs": [
        {
          "internalType": "address",
          "name": "_newOwner",
          "type": "address"
        }
      ],
      "name": "addOwner",
      "outputs": [],
      "stateMutability": "nonpayable",
      "type": "function"
    },
    {
      "inputs": [
        {
          "internalType": "address",
          "name": "to",
          "type": "address"
        },
        {
          "internalType": "uint256",
          "name": "tokenId",
          "type": "uint256"
        }
      ],
      "name": "approve",
      "outputs": [],
      "stateMutability": "nonpayable",
      "type": "function"
    },
    {
      "inputs": [
        {
          "internalType": "address",
          "name": "owner",
          "type": "address"
        }
      ],
      "name": "balanceOf",
      "outputs": [
        {
          "internalType": "uint256",
          "name": "",
          "type": "uint256"
        }
      ],
      "stateMutability": "view",
      "type": "function"
    },
    {
      "inputs": [
        {
          "internalType": "address",
          "name": "account",
          "type": "address"
        }
      ],
      "name": "checkAccountTier",
      "outputs": [
        {
          "internalType": "enum TIERS",
          "name": "",
          "type": "uint8"
        }
      ],
      "stateMutability": "view",
      "type": "function"
    },
    {
      "inputs": [
        {
          "internalType": "uint256",
          "name": "tokenId",
          "type": "uint256"
        }
      ],
      "name": "getApproved",
      "outputs": [
        {
          "internalType": "address",
          "name": "",
          "type": "address"
        }
      ],
      "stateMutability": "view",
      "type": "function"
    },
    {
      "inputs": [],
      "name": "getPublicStageFlag",
      "outputs": [
        {
          "internalType": "bool",
          "name": "",
          "type": "bool"
        }
      ],
      "stateMutability": "view",
      "type": "function"
    },
    {
      "inputs": [
        {
          "internalType": "bytes32",
          "name": "role",
          "type": "bytes32"
        }
      ],
      "name": "getRoleAdmin",
      "outputs": [
        {
          "internalType": "bytes32",
          "name": "",
          "type": "bytes32"
        }
      ],
      "stateMutability": "view",
      "type": "function"
    },
    {
      "inputs": [
        {
          "internalType": "bytes32",
          "name": "role",
          "type": "bytes32"
        },
        {
          "internalType": "address",
          "name": "account",
          "type": "address"
        }
      ],
      "name": "grantRole",
      "outputs": [],
      "stateMutability": "nonpayable",
      "type": "function"
    },
    {
      "inputs": [
        {
          "internalType": "bytes32",
          "name": "role",
          "type": "bytes32"
        },
        {
          "internalType": "address",
          "name": "account",
          "type": "address"
        }
      ],
      "name": "hasRole",
      "outputs": [
        {
          "internalType": "bool",
          "name": "",
          "type": "bool"
        }
      ],
      "stateMutability": "view",
      "type": "function"
    },
    {
      "inputs": [
        {
          "internalType": "address",
          "name": "owner",
          "type": "address"
        },
        {
          "internalType": "address",
          "name": "operator",
          "type": "address"
        }
      ],
      "name": "isApprovedForAll",
      "outputs": [
        {
          "internalType": "bool",
          "name": "",
          "type": "bool"
        }
      ],
      "stateMutability": "view",
      "type": "function"
    },
    {
      "inputs": [
        {
          "internalType": "string",
          "name": "combination",
          "type": "string"
        }
      ],
      "name": "isCombinationAvailable",
      "outputs": [
        {
          "internalType": "bool",
          "name": "",
          "type": "bool"
        }
      ],
      "stateMutability": "view",
      "type": "function"
    },
    {
      "inputs": [
        {
          "internalType": "address",
          "name": "account",
          "type": "address"
        }
      ],
      "name": "isWhitelisted",
      "outputs": [
        {
          "internalType": "bool",
          "name": "",
          "type": "bool"
        }
      ],
      "stateMutability": "view",
      "type": "function"
    },
    {
      "inputs": [],
      "name": "mint",
      "outputs": [],
      "stateMutability": "nonpayable",
      "type": "function"
    },
    {
      "inputs": [],
      "name": "name",
      "outputs": [
        {
          "internalType": "string",
          "name": "",
          "type": "string"
        }
      ],
      "stateMutability": "view",
      "type": "function"
    },
    {
      "inputs": [
        {
          "internalType": "uint256",
          "name": "tokenId",
          "type": "uint256"
        }
      ],
      "name": "ownerOf",
      "outputs": [
        {
          "internalType": "address",
          "name": "",
          "type": "address"
        }
      ],
      "stateMutability": "view",
      "type": "function"
    },
    {
      "inputs": [
        {
          "internalType": "bytes32",
          "name": "role",
          "type": "bytes32"
        },
        {
          "internalType": "address",
          "name": "account",
          "type": "address"
        }
      ],
      "name": "renounceRole",
      "outputs": [],
      "stateMutability": "nonpayable",
      "type": "function"
    },
    {
      "inputs": [
        {
          "internalType": "bytes32",
          "name": "role",
          "type": "bytes32"
        },
        {
          "internalType": "address",
          "name": "account",
          "type": "address"
        }
      ],
      "name": "revokeRole",
      "outputs": [],
      "stateMutability": "nonpayable",
      "type": "function"
    },
    {
      "inputs": [
        {
          "internalType": "address",
          "name": "from",
          "type": "address"
        },
        {
          "internalType": "address",
          "name": "to",
          "type": "address"
        },
        {
          "internalType": "uint256",
          "name": "tokenId",
          "type": "uint256"
        }
      ],
      "name": "safeTransferFrom",
      "outputs": [],
      "stateMutability": "nonpayable",
      "type": "function"
    },
    {
      "inputs": [
        {
          "internalType": "address",
          "name": "from",
          "type": "address"
        },
        {
          "internalType": "address",
          "name": "to",
          "type": "address"
        },
        {
          "internalType": "uint256",
          "name": "tokenId",
          "type": "uint256"
        },
        {
          "internalType": "bytes",
          "name": "data",
          "type": "bytes"
        }
      ],
      "name": "safeTransferFrom",
      "outputs": [],
      "stateMutability": "pure",
      "type": "function"
    },
    {
      "inputs": [
        {
          "internalType": "address",
          "name": "operator",
          "type": "address"
        },
        {
          "internalType": "bool",
          "name": "approved",
          "type": "bool"
        }
      ],
      "name": "setApprovalForAll",
      "outputs": [],
      "stateMutability": "nonpayable",
      "type": "function"
    },
    {
      "inputs": [
        {
          "internalType": "string",
          "name": "baseURI_",
          "type": "string"
        }
      ],
      "name": "setBaseURI",
      "outputs": [],
      "stateMutability": "nonpayable",
      "type": "function"
    },
    {
      "inputs": [
        {
          "internalType": "bool",
          "name": "newFlagValue",
          "type": "bool"
        }
      ],
      "name": "setPublicStageFlag",
      "outputs": [],
      "stateMutability": "nonpayable",
      "type": "function"
    },
    {
      "inputs": [
        {
          "internalType": "uint256",
          "name": "tokenId",
          "type": "uint256"
        },
        {
          "internalType": "string",
          "name": "tokenMetadataURI",
          "type": "string"
        },
        {
          "internalType": "string",
          "name": "combination",
          "type": "string"
        },
        {
          "internalType": "address",
          "name": "owner",
          "type": "address"
        },
        {
          "internalType": "uint256",
          "name": "selectedSkin",
          "type": "uint256"
        }
      ],
      "name": "setTokenURI",
      "outputs": [],
      "stateMutability": "nonpayable",
      "type": "function"
    },
    {
      "inputs": [
        {
          "internalType": "bytes4",
          "name": "interfaceId",
          "type": "bytes4"
        }
      ],
      "name": "supportsInterface",
      "outputs": [
        {
          "internalType": "bool",
          "name": "",
          "type": "bool"
        }
      ],
      "stateMutability": "view",
      "type": "function"
    },
    {
      "inputs": [],
      "name": "symbol",
      "outputs": [
        {
          "internalType": "string",
          "name": "",
          "type": "string"
        }
      ],
      "stateMutability": "view",
      "type": "function"
    },
    {
      "inputs": [
        {
          "internalType": "uint256",
          "name": "index",
          "type": "uint256"
        }
      ],
      "name": "tokenByIndex",
      "outputs": [
        {
          "internalType": "uint256",
          "name": "",
          "type": "uint256"
        }
      ],
      "stateMutability": "view",
      "type": "function"
    },
    {
      "inputs": [
        {
          "internalType": "address",
          "name": "owner",
          "type": "address"
        },
        {
          "internalType": "uint256",
          "name": "index",
          "type": "uint256"
        }
      ],
      "name": "tokenOfOwnerByIndex",
      "outputs": [
        {
          "internalType": "uint256",
          "name": "",
          "type": "uint256"
        }
      ],
      "stateMutability": "view",
      "type": "function"
    },
    {
      "inputs": [
        {
          "internalType": "uint256",
          "name": "tokenId",
          "type": "uint256"
        }
      ],
      "name": "tokenURI",
      "outputs": [
        {
          "internalType": "string",
          "name": "",
          "type": "string"
        }
      ],
      "stateMutability": "view",
      "type": "function"
    },
    {
      "inputs": [],
      "name": "totalSupply",
      "outputs": [
        {
          "internalType": "uint256",
          "name": "",
          "type": "uint256"
        }
      ],
      "stateMutability": "view",
      "type": "function"
    },
    {
      "inputs": [
        {
          "internalType": "address",
          "name": "from",
          "type": "address"
        },
        {
          "internalType": "address",
          "name": "to",
          "type": "address"
        },
        {
          "internalType": "uint256",
          "name": "tokenId",
          "type": "uint256"
        }
      ],
      "name": "transferFrom",
      "outputs": [],
      "stateMutability": "pure",
      "type": "function"
    },
    {
      "inputs": [
        {
          "internalType": "address",
          "name": "_to",
          "type": "address"
        },
        {
          "internalType": "enum TIERS",
          "name": "tier",
          "type": "uint8"
        }
      ],
      "name": "whitelistAddress",
      "outputs": [],
      "stateMutability": "nonpayable",
      "type": "function"
    }
  ],
  "bytecode": "0x6080604052600f805460ff191690553480156200001b57600080fd5b50604051620028ee380380620028ee8339810160408190526200003e916200020f565b60408051808201909152601e8082527f54616c656e742050726f746f636f6c204e465420436f6c6c656374696f6e0000602083019081528391620000859160009162000169565b5080516200009b90600190602084019062000169565b50620000ad91506000905083620000b5565b505062000362565b620000c18282620000c5565b5050565b6000828152600a602090815260408083206001600160a01b038516845290915290205460ff16620000c1576000828152600a602090815260408083206001600160a01b03851684529091529020805460ff19166001179055620001253390565b6001600160a01b0316816001600160a01b0316837f2f8788117e7eff1d82e926ec794901d17c78024a50270940304540a733656f0d60405160405180910390a45050565b82805462000177906200030f565b90600052602060002090601f0160209004810192826200019b5760008555620001e6565b82601f10620001b657805160ff1916838001178555620001e6565b82800160010185558215620001e6579182015b82811115620001e6578251825591602001919060010190620001c9565b50620001f4929150620001f8565b5090565b5b80821115620001f45760008155600101620001f9565b600080604083850312156200022357600080fd5b82516001600160a01b03811681146200023b57600080fd5b602084810151919350906001600160401b03808211156200025b57600080fd5b818601915086601f8301126200027057600080fd5b8151818111156200028557620002856200034c565b604051601f8201601f19908116603f01168101908382118183101715620002b057620002b06200034c565b816040528281528986848701011115620002c957600080fd5b600093505b82841015620002ed5784840186015181850187015292850192620002ce565b82841115620002ff5760008684830101525b8096505050505050509250929050565b600181811c908216806200032457607f821691505b602082108114156200034657634e487b7160e01b600052602260045260246000fd5b50919050565b634e487b7160e01b600052604160045260246000fd5b61257c80620003726000396000f3fe608060405234801561001057600080fd5b50600436106101f05760003560e01c806355f804b31161010f5780639d0234fe116100a2578063b88d4fde11610071578063b88d4fde14610453578063c87b56dd14610461578063d547741f14610474578063e985e9c51461048757600080fd5b80639d0234fe1461041a578063a217fddf14610425578063a22cb4651461042d578063b430a5d91461044057600080fd5b806370a08231116100de57806370a08231146103a6578063884ac400146103b957806391d14854146103d957806395d89b411461041257600080fd5b806355f804b31461035a5780636352211e1461036d5780636b9a5c6c146103805780637065cb481461039357600080fd5b80632f2ff15d116101875780633af32abf116101565780633af32abf1461030e57806342842e0e1461032157806349a3836f146103345780634f6ccce71461034757600080fd5b80632f2ff15d146102c25780632f745c59146102d557806336568abe146102e857806339a95a0f146102fb57600080fd5b80631249c58b116101c35780631249c58b1461027257806318160ddd1461027a57806323b872dd1461028c578063248a9ca31461029f57600080fd5b806301ffc9a7146101f557806306fdde031461021d578063081812fc14610232578063095ea7b31461025d575b600080fd5b6102086102033660046121c1565b6104c3565b60405190151581526020015b60405180910390f35b6102256104d4565b60405161021491906123e3565b610245610240366004612185565b610566565b6040516001600160a01b039091168152602001610214565b61027061026b366004612140565b61058d565b005b6102706106c4565b6008545b604051908152602001610214565b61027061029a366004612023565b6107e3565b61027e6102ad366004612185565b6000908152600a602052604090206001015490565b6102706102d036600461219e565b61082b565b61027e6102e3366004612140565b610850565b6102706102f636600461219e565b6108f8565b6102086103093660046121fb565b610984565b61020861031c366004611fd5565b6109ad565b61027061032f366004612023565b6109dd565b610270610342366004612230565b6109f8565b61027e610355366004612185565b610c99565b6102706103683660046121fb565b610d3d565b61024561037b366004612185565b610d5b565b61027061038e366004612105565b610dc0565b6102706103a1366004611fd5565b610e91565b61027e6103b4366004611fd5565b610ea7565b6103cc6103c7366004611fd5565b610f41565b60405161021491906123bb565b6102086103e736600461219e565b6000918252600a602090815260408084206001600160a01b0393909316845291905290205460ff1690565b610225610fb1565b600f5460ff16610208565b61027e600081565b61027061043b3660046120db565b610fc0565b61027061044e36600461216a565b610fcb565b61027061029a36600461205f565b61022561046f366004612185565b611095565b61027061048236600461219e565b611230565b610208610495366004611ff0565b6001600160a01b03918216600090815260056020908152604080832093909416825291909152205460ff1690565b60006104ce82611255565b92915050565b6060600080546104e390612487565b80601f016020809104026020016040519081016040528092919081815260200182805461050f90612487565b801561055c5780601f106105315761010080835404028352916020019161055c565b820191906000526020600020905b81548152906001019060200180831161053f57829003601f168201915b5050505050905090565b600061057182611293565b506000908152600460205260409020546001600160a01b031690565b600061059882610d5b565b9050806001600160a01b0316836001600160a01b031614156106275760405162461bcd60e51b815260206004820152602160248201527f4552433732313a20617070726f76616c20746f2063757272656e74206f776e6560448201527f720000000000000000000000000000000000000000000000000000000000000060648201526084015b60405180910390fd5b336001600160a01b038216148061064357506106438133610495565b6106b55760405162461bcd60e51b815260206004820152603e60248201527f4552433732313a20617070726f76652063616c6c6572206973206e6f7420746f60448201527f6b656e206f776e6572206e6f7220617070726f76656420666f7220616c6c0000606482015260840161061e565b6106bf83836112f7565b505050565b6106cd336109ad565b61073f5760405162461bcd60e51b815260206004820152602d60248201527f4d696e74696e67206e6f7420616c6c6f77656420776974682063757272656e7460448201527f2073656e64657220726f6c657300000000000000000000000000000000000000606482015260840161061e565b61074833610ea7565b156107bb5760405162461bcd60e51b815260206004820152602960248201527f416464726573732068617320616c7265616479206d696e746564206f6e65205460448201527f616c656e74204e46540000000000000000000000000000000000000000000000606482015260840161061e565b6107c9600b80546001019055565b60006107d4600b5490565b90506107e03382611372565b50565b60405162461bcd60e51b815260206004820152601e60248201527f54616c656e74204e4654206973206e6f6e2d7472616e7366657261626c650000604482015260640161061e565b6000828152600a60205260409020600101546108468161138c565b6106bf8383611396565b600061085b83610ea7565b82106108cf5760405162461bcd60e51b815260206004820152602b60248201527f455243373231456e756d657261626c653a206f776e657220696e646578206f7560448201527f74206f6620626f756e6473000000000000000000000000000000000000000000606482015260840161061e565b506001600160a01b03919091166000908152600660209081526040808320938352929052205490565b6001600160a01b03811633146109765760405162461bcd60e51b815260206004820152602f60248201527f416363657373436f6e74726f6c3a2063616e206f6e6c792072656e6f756e636560448201527f20726f6c657320666f722073656c660000000000000000000000000000000000606482015260840161061e565b6109808282611438565b5050565b6000600e8260405161099691906122e2565b908152604051908190036020019020541592915050565b6000806109b983610f41565b600a8111156109ca576109ca6124d8565b11806104ce5750600f5460ff1692915050565b6106bf838383604051806020016040528060008152506107e3565b6000610a038161138c565b60026001600160a01b03841660009081526010602052604090205460ff16600a811115610a3257610a326124d8565b610a3d9060056123f6565b610a47919061242d565b821115610abc5760405162461bcd60e51b815260206004820152602c60248201527f53656c656374656420736b696e206973206c6f636b656420666f72207468652060448201527f6163636f756e7420746965720000000000000000000000000000000000000000606482015260840161061e565b6000868152600260205260409020546001600160a01b0316610b465760405162461bcd60e51b815260206004820152602f60248201527f4552433732314d657461646174613a2055524920717565727920666f72206e6f60448201527f6e6578697374656e7420746f6b656e0000000000000000000000000000000000606482015260840161061e565b6000868152600d602052604090208054610b5f90612487565b159050610bd45760405162461bcd60e51b815260206004820152602b60248201527f4d657461646174612077617320616c726561647920646566696e656420666f7260448201527f207468697320746f6b656e000000000000000000000000000000000000000000606482015260840161061e565b610bdd84610984565b610c4f5760405162461bcd60e51b815260206004820152602360248201527f5468697320636f6d62696e6174696f6e2077617320616c7265616479206d696e60448201527f7465640000000000000000000000000000000000000000000000000000000000606482015260840161061e565b85600e85604051610c6091906122e2565b9081526040805160209281900383019020929092556000888152600d8252919091208651610c9092880190611e7a565b50505050505050565b6000610ca460085490565b8210610d185760405162461bcd60e51b815260206004820152602c60248201527f455243373231456e756d657261626c653a20676c6f62616c20696e646578206f60448201527f7574206f6620626f756e64730000000000000000000000000000000000000000606482015260840161061e565b60088281548110610d2b57610d2b612504565b90600052602060002001549050919050565b6000610d488161138c565b81516106bf90600c906020850190611e7a565b6000818152600260205260408120546001600160a01b0316806104ce5760405162461bcd60e51b815260206004820152601860248201527f4552433732313a20696e76616c696420746f6b656e2049440000000000000000604482015260640161061e565b6000610dcb8161138c565b600182600a811115610ddf57610ddf6124d8565b11610e525760405162461bcd60e51b815260206004820152603a60248201527f546865207469657220676976656e206e6565647320746f20626520677265617460448201527f6572207468616e2054494552532e5055424c49435f5354414745000000000000606482015260840161061e565b6001600160a01b0383166000908152601060205260409020805483919060ff1916600183600a811115610e8757610e876124d8565b0217905550505050565b6000610e9c8161138c565b6109806000836114bb565b60006001600160a01b038216610f255760405162461bcd60e51b815260206004820152602960248201527f4552433732313a2061646472657373207a65726f206973206e6f74206120766160448201527f6c6964206f776e65720000000000000000000000000000000000000000000000606482015260840161061e565b506001600160a01b031660009081526003602052604090205490565b600f5460009060ff1615610f5757506001919050565b6001600160a01b03821660009081526010602052604081205460ff16600a811115610f8457610f846124d8565b1415610f9257506000919050565b506001600160a01b031660009081526010602052604090205460ff1690565b6060600180546104e390612487565b6109803383836114c5565b6000610fd68161138c565b600f5460ff161515821515141561107b5760405162461bcd60e51b815260206004820152605c60248201527f556e61626c6520746f206368616e6765205f7075626c69635374616765466c6160448201527f672076616c7565206265636175736520746865206e65772076616c756520697360648201527f207468652073616d65206173207468652063757272656e74206f6e6500000000608482015260a40161061e565b50600f805460ff1916911515919091179055565b50505050565b6000818152600260205260409020546060906001600160a01b03166111225760405162461bcd60e51b815260206004820152602f60248201527f4552433732314d657461646174613a2055524920717565727920666f72206e6f60448201527f6e6578697374656e7420746f6b656e0000000000000000000000000000000000606482015260840161061e565b600061112c611594565b90508051600014156111805760405162461bcd60e51b815260206004820152601060248201527f4261736520555249206e6f742073657400000000000000000000000000000000604482015260640161061e565b6000838152600d60205260408120805461119990612487565b80601f01602080910402602001604051908101604052809291908181526020018280546111c590612487565b80156112125780601f106111e757610100808354040283529160200191611212565b820191906000526020600020905b8154815290600101906020018083116111f557829003601f168201915b505050505090508051600014611229579392505050565b5092915050565b6000828152600a602052604090206001015461124b8161138c565b6106bf8383611438565b60006001600160e01b031982167f7965db0b0000000000000000000000000000000000000000000000000000000014806104ce57506104ce826115a3565b6000818152600260205260409020546001600160a01b03166107e05760405162461bcd60e51b815260206004820152601860248201527f4552433732313a20696e76616c696420746f6b656e2049440000000000000000604482015260640161061e565b6000818152600460205260409020805473ffffffffffffffffffffffffffffffffffffffff19166001600160a01b038416908117909155819061133982610d5b565b6001600160a01b03167f8c5be1e5ebec7d5bd14f71427d1e84f3dd0314c0f7b2291e5b200ac8c7c3b92560405160405180910390a45050565b6109808282604051806020016040528060008152506115e1565b6107e0813361166a565b6000828152600a602090815260408083206001600160a01b038516845290915290205460ff16610980576000828152600a602090815260408083206001600160a01b03851684529091529020805460ff191660011790556113f43390565b6001600160a01b0316816001600160a01b0316837f2f8788117e7eff1d82e926ec794901d17c78024a50270940304540a733656f0d60405160405180910390a45050565b6000828152600a602090815260408083206001600160a01b038516845290915290205460ff1615610980576000828152600a602090815260408083206001600160a01b0385168085529252808320805460ff1916905551339285917ff6391f5c32d9c69d2a47ea670b442974b53935d1edc7fd64eb21e047a839171b9190a45050565b6109808282611396565b816001600160a01b0316836001600160a01b031614156115275760405162461bcd60e51b815260206004820152601960248201527f4552433732313a20617070726f766520746f2063616c6c657200000000000000604482015260640161061e565b6001600160a01b03838116600081815260056020908152604080832094871680845294825291829020805460ff191686151590811790915591519182527f17307eab39ab6107e8899845ad3d59bd9653f200f220920489ca2b5937696c31910160405180910390a3505050565b6060600c80546104e390612487565b60006001600160e01b031982167f780e9d630000000000000000000000000000000000000000000000000000000014806104ce57506104ce826116ea565b6115eb8383611785565b6115f860008484846118e0565b6106bf5760405162461bcd60e51b815260206004820152603260248201527f4552433732313a207472616e7366657220746f206e6f6e20455243373231526560448201527f63656976657220696d706c656d656e7465720000000000000000000000000000606482015260840161061e565b6000828152600a602090815260408083206001600160a01b038516845290915290205460ff16610980576116a8816001600160a01b03166014611a44565b6116b3836020611a44565b6040516020016116c49291906122fe565b60408051601f198184030181529082905262461bcd60e51b825261061e916004016123e3565b60006001600160e01b031982167f80ac58cd00000000000000000000000000000000000000000000000000000000148061174d57506001600160e01b031982167f5b5e139f00000000000000000000000000000000000000000000000000000000145b806104ce57507f01ffc9a7000000000000000000000000000000000000000000000000000000006001600160e01b03198316146104ce565b6001600160a01b0382166117db5760405162461bcd60e51b815260206004820181905260248201527f4552433732313a206d696e7420746f20746865207a65726f2061646472657373604482015260640161061e565b6000818152600260205260409020546001600160a01b0316156118405760405162461bcd60e51b815260206004820152601c60248201527f4552433732313a20746f6b656e20616c7265616479206d696e74656400000000604482015260640161061e565b61184c60008383611c2c565b6001600160a01b03821660009081526003602052604081208054600192906118759084906123f6565b9091555050600081815260026020526040808220805473ffffffffffffffffffffffffffffffffffffffff19166001600160a01b03861690811790915590518392907fddf252ad1be2c89b69c2b068fc378daa952ba7f163c4a11628f55a4df523b3ef908290a45050565b60006001600160a01b0384163b15611a3857604051630a85bd0160e11b81526001600160a01b0385169063150b7a029061192490339089908890889060040161237f565b602060405180830381600087803b15801561193e57600080fd5b505af192505050801561196e575060408051601f3d908101601f1916820190925261196b918101906121de565b60015b611a1e573d80801561199c576040519150601f19603f3d011682016040523d82523d6000602084013e6119a1565b606091505b508051611a165760405162461bcd60e51b815260206004820152603260248201527f4552433732313a207472616e7366657220746f206e6f6e20455243373231526560448201527f63656976657220696d706c656d656e7465720000000000000000000000000000606482015260840161061e565b805181602001fd5b6001600160e01b031916630a85bd0160e11b149050611a3c565b5060015b949350505050565b60606000611a5383600261240e565b611a5e9060026123f6565b67ffffffffffffffff811115611a7657611a7661251a565b6040519080825280601f01601f191660200182016040528015611aa0576020820181803683370190505b5090507f300000000000000000000000000000000000000000000000000000000000000081600081518110611ad757611ad7612504565b60200101906001600160f81b031916908160001a9053507f780000000000000000000000000000000000000000000000000000000000000081600181518110611b2257611b22612504565b60200101906001600160f81b031916908160001a9053506000611b4684600261240e565b611b519060016123f6565b90505b6001811115611bd6577f303132333435363738396162636465660000000000000000000000000000000085600f1660108110611b9257611b92612504565b1a60f81b828281518110611ba857611ba8612504565b60200101906001600160f81b031916908160001a90535060049490941c93611bcf81612470565b9050611b54565b508315611c255760405162461bcd60e51b815260206004820181905260248201527f537472696e67733a20686578206c656e67746820696e73756666696369656e74604482015260640161061e565b9392505050565b6106bf8383836001600160a01b038316611c8d57611c8881600880546000838152600960205260408120829055600182018355919091527ff3f7a9fe364faab93b216da50a3214154f22a0a2b415b23a84c8169e8b636ee30155565b611cb0565b816001600160a01b0316836001600160a01b031614611cb057611cb08382611cea565b6001600160a01b038216611cc7576106bf81611d87565b826001600160a01b0316826001600160a01b0316146106bf576106bf8282611e36565b60006001611cf784610ea7565b611d01919061242d565b600083815260076020526040902054909150808214611d54576001600160a01b03841660009081526006602090815260408083208584528252808320548484528184208190558352600790915290208190555b5060009182526007602090815260408084208490556001600160a01b039094168352600681528383209183525290812055565b600854600090611d999060019061242d565b60008381526009602052604081205460088054939450909284908110611dc157611dc1612504565b906000526020600020015490508060088381548110611de257611de2612504565b6000918252602080832090910192909255828152600990915260408082208490558582528120556008805480611e1a57611e1a6124ee565b6001900381819060005260206000200160009055905550505050565b6000611e4183610ea7565b6001600160a01b039093166000908152600660209081526040808320868452825280832085905593825260079052919091209190915550565b828054611e8690612487565b90600052602060002090601f016020900481019282611ea85760008555611eee565b82601f10611ec157805160ff1916838001178555611eee565b82800160010185558215611eee579182015b82811115611eee578251825591602001919060010190611ed3565b50611efa929150611efe565b5090565b5b80821115611efa5760008155600101611eff565b600067ffffffffffffffff80841115611f2e57611f2e61251a565b604051601f8501601f19908116603f01168101908282118183101715611f5657611f5661251a565b81604052809350858152868686011115611f6f57600080fd5b858560208301376000602087830101525050509392505050565b80356001600160a01b0381168114611fa057600080fd5b919050565b80358015158114611fa057600080fd5b600082601f830112611fc657600080fd5b611c2583833560208501611f13565b600060208284031215611fe757600080fd5b611c2582611f89565b6000806040838503121561200357600080fd5b61200c83611f89565b915061201a60208401611f89565b90509250929050565b60008060006060848603121561203857600080fd5b61204184611f89565b925061204f60208501611f89565b9150604084013590509250925092565b6000806000806080858703121561207557600080fd5b61207e85611f89565b935061208c60208601611f89565b925060408501359150606085013567ffffffffffffffff8111156120af57600080fd5b8501601f810187136120c057600080fd5b6120cf87823560208401611f13565b91505092959194509250565b600080604083850312156120ee57600080fd5b6120f783611f89565b915061201a60208401611fa5565b6000806040838503121561211857600080fd5b61212183611f89565b91506020830135600b811061213557600080fd5b809150509250929050565b6000806040838503121561215357600080fd5b61215c83611f89565b946020939093013593505050565b60006020828403121561217c57600080fd5b611c2582611fa5565b60006020828403121561219757600080fd5b5035919050565b600080604083850312156121b157600080fd5b8235915061201a60208401611f89565b6000602082840312156121d357600080fd5b8135611c2581612530565b6000602082840312156121f057600080fd5b8151611c2581612530565b60006020828403121561220d57600080fd5b813567ffffffffffffffff81111561222457600080fd5b611a3c84828501611fb5565b600080600080600060a0868803121561224857600080fd5b85359450602086013567ffffffffffffffff8082111561226757600080fd5b61227389838a01611fb5565b9550604088013591508082111561228957600080fd5b5061229688828901611fb5565b9350506122a560608701611f89565b949793965091946080013592915050565b600081518084526122ce816020860160208601612444565b601f01601f19169290920160200192915050565b600082516122f4818460208701612444565b9190910192915050565b7f416363657373436f6e74726f6c3a206163636f756e7420000000000000000000815260008351612336816017850160208801612444565b7f206973206d697373696e6720726f6c65200000000000000000000000000000006017918401918201528351612373816028840160208801612444565b01602801949350505050565b60006001600160a01b038087168352808616602084015250836040830152608060608301526123b160808301846122b6565b9695505050505050565b60208101600b83106123dd57634e487b7160e01b600052602160045260246000fd5b91905290565b602081526000611c2560208301846122b6565b60008219821115612409576124096124c2565b500190565b6000816000190483118215151615612428576124286124c2565b500290565b60008282101561243f5761243f6124c2565b500390565b60005b8381101561245f578181015183820152602001612447565b8381111561108f5750506000910152565b60008161247f5761247f6124c2565b506000190190565b600181811c9082168061249b57607f821691505b602082108114156124bc57634e487b7160e01b600052602260045260246000fd5b50919050565b634e487b7160e01b600052601160045260246000fd5b634e487b7160e01b600052602160045260246000fd5b634e487b7160e01b600052603160045260246000fd5b634e487b7160e01b600052603260045260246000fd5b634e487b7160e01b600052604160045260246000fd5b6001600160e01b0319811681146107e057600080fdfea264697066735822122079082b55464f5a3c8cb372c38b7be66241ade5588d314d4e46ad38ce7d7a9f5b64736f6c63430008070033",
  "linkReferences": {},
  "deployedLinkReferences": {}
}