{
  "_format": "hh-sol-artifact-1",
  "contractName": "TalentNFT",
  "sourceName": "contracts/talent-nft/TalentNFT.sol",
  "abi": [
    {
      "inputs": [
        {
          "internalType": "address",
          "name": "_owner",
          "type": "address"
        },
        {
          "internalType": "string",
          "name": "_ticker",
          "type": "string"
        }
      ],
      "stateMutability": "nonpayable",
      "type": "constructor"
    },
    {
      "anonymous": false,
      "inputs": [
        {
          "indexed": true,
          "internalType": "address",
          "name": "owner",
          "type": "address"
        },
        {
          "indexed": true,
          "internalType": "address",
          "name": "approved",
          "type": "address"
        },
        {
          "indexed": true,
          "internalType": "uint256",
          "name": "tokenId",
          "type": "uint256"
        }
      ],
      "name": "Approval",
      "type": "event"
    },
    {
      "anonymous": false,
      "inputs": [
        {
          "indexed": true,
          "internalType": "address",
          "name": "owner",
          "type": "address"
        },
        {
          "indexed": true,
          "internalType": "address",
          "name": "operator",
          "type": "address"
        },
        {
          "indexed": false,
          "internalType": "bool",
          "name": "approved",
          "type": "bool"
        }
      ],
      "name": "ApprovalForAll",
      "type": "event"
    },
    {
      "anonymous": false,
      "inputs": [
        {
          "indexed": true,
          "internalType": "bytes32",
          "name": "role",
          "type": "bytes32"
        },
        {
          "indexed": true,
          "internalType": "bytes32",
          "name": "previousAdminRole",
          "type": "bytes32"
        },
        {
          "indexed": true,
          "internalType": "bytes32",
          "name": "newAdminRole",
          "type": "bytes32"
        }
      ],
      "name": "RoleAdminChanged",
      "type": "event"
    },
    {
      "anonymous": false,
      "inputs": [
        {
          "indexed": true,
          "internalType": "bytes32",
          "name": "role",
          "type": "bytes32"
        },
        {
          "indexed": true,
          "internalType": "address",
          "name": "account",
          "type": "address"
        },
        {
          "indexed": true,
          "internalType": "address",
          "name": "sender",
          "type": "address"
        }
      ],
      "name": "RoleGranted",
      "type": "event"
    },
    {
      "anonymous": false,
      "inputs": [
        {
          "indexed": true,
          "internalType": "bytes32",
          "name": "role",
          "type": "bytes32"
        },
        {
          "indexed": true,
          "internalType": "address",
          "name": "account",
          "type": "address"
        },
        {
          "indexed": true,
          "internalType": "address",
          "name": "sender",
          "type": "address"
        }
      ],
      "name": "RoleRevoked",
      "type": "event"
    },
    {
      "anonymous": false,
      "inputs": [
        {
          "indexed": true,
          "internalType": "address",
          "name": "from",
          "type": "address"
        },
        {
          "indexed": true,
          "internalType": "address",
          "name": "to",
          "type": "address"
        },
        {
          "indexed": true,
          "internalType": "uint256",
          "name": "tokenId",
          "type": "uint256"
        }
      ],
      "name": "Transfer",
      "type": "event"
    },
    {
      "inputs": [],
      "name": "DEFAULT_ADMIN_ROLE",
      "outputs": [
        {
          "internalType": "bytes32",
          "name": "",
          "type": "bytes32"
        }
      ],
      "stateMutability": "view",
      "type": "function"
    },
    {
      "inputs": [
        {
          "internalType": "address",
          "name": "_newOwner",
          "type": "address"
        }
      ],
      "name": "addOwner",
      "outputs": [],
      "stateMutability": "nonpayable",
      "type": "function"
    },
    {
      "inputs": [
        {
          "internalType": "address",
          "name": "to",
          "type": "address"
        },
        {
          "internalType": "uint256",
          "name": "tokenId",
          "type": "uint256"
        }
      ],
      "name": "approve",
      "outputs": [],
      "stateMutability": "nonpayable",
      "type": "function"
    },
    {
      "inputs": [
        {
          "internalType": "address",
          "name": "owner",
          "type": "address"
        }
      ],
      "name": "balanceOf",
      "outputs": [
        {
          "internalType": "uint256",
          "name": "",
          "type": "uint256"
        }
      ],
      "stateMutability": "view",
      "type": "function"
    },
    {
      "inputs": [
        {
          "internalType": "address",
          "name": "userWallet",
          "type": "address"
        }
      ],
      "name": "createMintingToken",
      "outputs": [
        {
          "internalType": "bytes32",
          "name": "",
          "type": "bytes32"
        }
      ],
      "stateMutability": "nonpayable",
      "type": "function"
    },
    {
      "inputs": [
        {
          "internalType": "uint256",
          "name": "tokenId",
          "type": "uint256"
        }
      ],
      "name": "getApproved",
      "outputs": [
        {
          "internalType": "address",
          "name": "",
          "type": "address"
        }
      ],
      "stateMutability": "view",
      "type": "function"
    },
    {
      "inputs": [],
      "name": "getPublicStageFlag",
      "outputs": [
        {
          "internalType": "bool",
          "name": "",
          "type": "bool"
        }
      ],
      "stateMutability": "view",
      "type": "function"
    },
    {
      "inputs": [
        {
          "internalType": "bytes32",
          "name": "role",
          "type": "bytes32"
        }
      ],
      "name": "getRoleAdmin",
      "outputs": [
        {
          "internalType": "bytes32",
          "name": "",
          "type": "bytes32"
        }
      ],
      "stateMutability": "view",
      "type": "function"
    },
    {
      "inputs": [
        {
          "internalType": "bytes32",
          "name": "role",
          "type": "bytes32"
        },
        {
          "internalType": "address",
          "name": "account",
          "type": "address"
        }
      ],
      "name": "grantRole",
      "outputs": [],
      "stateMutability": "nonpayable",
      "type": "function"
    },
    {
      "inputs": [
        {
          "internalType": "bytes32",
          "name": "role",
          "type": "bytes32"
        },
        {
          "internalType": "address",
          "name": "account",
          "type": "address"
        }
      ],
      "name": "hasRole",
      "outputs": [
        {
          "internalType": "bool",
          "name": "",
          "type": "bool"
        }
      ],
      "stateMutability": "view",
      "type": "function"
    },
    {
      "inputs": [
        {
          "internalType": "address",
          "name": "owner",
          "type": "address"
        },
        {
          "internalType": "address",
          "name": "operator",
          "type": "address"
        }
      ],
      "name": "isApprovedForAll",
      "outputs": [
        {
          "internalType": "bool",
          "name": "",
          "type": "bool"
        }
      ],
      "stateMutability": "view",
      "type": "function"
    },
    {
      "inputs": [
        {
          "internalType": "string",
          "name": "combination",
          "type": "string"
        }
      ],
      "name": "isCombinationaAvailable",
      "outputs": [
        {
          "internalType": "bool",
          "name": "",
          "type": "bool"
        }
      ],
      "stateMutability": "view",
      "type": "function"
    },
    {
      "inputs": [
        {
          "internalType": "address",
          "name": "account",
          "type": "address"
        }
      ],
      "name": "isWhitelisted",
      "outputs": [
        {
          "internalType": "bool",
          "name": "",
          "type": "bool"
        }
      ],
      "stateMutability": "view",
      "type": "function"
    },
    {
      "inputs": [
        {
          "internalType": "string",
          "name": "combination",
          "type": "string"
        }
      ],
      "name": "mint",
      "outputs": [],
      "stateMutability": "nonpayable",
      "type": "function"
    },
    {
      "inputs": [],
      "name": "name",
      "outputs": [
        {
          "internalType": "string",
          "name": "",
          "type": "string"
        }
      ],
      "stateMutability": "view",
      "type": "function"
    },
    {
      "inputs": [
        {
          "internalType": "uint256",
          "name": "tokenId",
          "type": "uint256"
        }
      ],
      "name": "ownerOf",
      "outputs": [
        {
          "internalType": "address",
          "name": "",
          "type": "address"
        }
      ],
      "stateMutability": "view",
      "type": "function"
    },
    {
      "inputs": [
        {
          "internalType": "bytes32",
          "name": "role",
          "type": "bytes32"
        },
        {
          "internalType": "address",
          "name": "account",
          "type": "address"
        }
      ],
      "name": "renounceRole",
      "outputs": [],
      "stateMutability": "nonpayable",
      "type": "function"
    },
    {
      "inputs": [
        {
          "internalType": "bytes32",
          "name": "role",
          "type": "bytes32"
        },
        {
          "internalType": "address",
          "name": "account",
          "type": "address"
        }
      ],
      "name": "revokeRole",
      "outputs": [],
      "stateMutability": "nonpayable",
      "type": "function"
    },
    {
      "inputs": [
        {
          "internalType": "address",
          "name": "from",
          "type": "address"
        },
        {
          "internalType": "address",
          "name": "to",
          "type": "address"
        },
        {
          "internalType": "uint256",
          "name": "tokenId",
          "type": "uint256"
        }
      ],
      "name": "safeTransferFrom",
      "outputs": [],
      "stateMutability": "nonpayable",
      "type": "function"
    },
    {
      "inputs": [
        {
          "internalType": "address",
          "name": "from",
          "type": "address"
        },
        {
          "internalType": "address",
          "name": "to",
          "type": "address"
        },
        {
          "internalType": "uint256",
          "name": "tokenId",
          "type": "uint256"
        },
        {
          "internalType": "bytes",
          "name": "data",
          "type": "bytes"
        }
      ],
      "name": "safeTransferFrom",
      "outputs": [],
      "stateMutability": "pure",
      "type": "function"
    },
    {
      "inputs": [
        {
          "internalType": "address",
          "name": "operator",
          "type": "address"
        },
        {
          "internalType": "bool",
          "name": "approved",
          "type": "bool"
        }
      ],
      "name": "setApprovalForAll",
      "outputs": [],
      "stateMutability": "nonpayable",
      "type": "function"
    },
    {
      "inputs": [
        {
          "internalType": "string",
          "name": "baseURI_",
          "type": "string"
        }
      ],
      "name": "setBaseURI",
      "outputs": [],
      "stateMutability": "nonpayable",
      "type": "function"
    },
    {
      "inputs": [
        {
          "internalType": "bool",
          "name": "newFlagValue",
          "type": "bool"
        }
      ],
      "name": "setPublicStageFlag",
      "outputs": [],
      "stateMutability": "nonpayable",
      "type": "function"
    },
    {
      "inputs": [
        {
          "internalType": "uint256",
          "name": "tokenId",
          "type": "uint256"
        },
        {
          "internalType": "string",
          "name": "tokenURI_",
          "type": "string"
        }
      ],
      "name": "setTokenURI",
      "outputs": [],
      "stateMutability": "nonpayable",
      "type": "function"
    },
    {
      "inputs": [
        {
          "internalType": "bytes4",
          "name": "interfaceId",
          "type": "bytes4"
        }
      ],
      "name": "supportsInterface",
      "outputs": [
        {
          "internalType": "bool",
          "name": "",
          "type": "bool"
        }
      ],
      "stateMutability": "view",
      "type": "function"
    },
    {
      "inputs": [],
      "name": "symbol",
      "outputs": [
        {
          "internalType": "string",
          "name": "",
          "type": "string"
        }
      ],
      "stateMutability": "view",
      "type": "function"
    },
    {
      "inputs": [
        {
          "internalType": "uint256",
          "name": "index",
          "type": "uint256"
        }
      ],
      "name": "tokenByIndex",
      "outputs": [
        {
          "internalType": "uint256",
          "name": "",
          "type": "uint256"
        }
      ],
      "stateMutability": "view",
      "type": "function"
    },
    {
      "inputs": [
        {
          "internalType": "address",
          "name": "owner",
          "type": "address"
        },
        {
          "internalType": "uint256",
          "name": "index",
          "type": "uint256"
        }
      ],
      "name": "tokenOfOwnerByIndex",
      "outputs": [
        {
          "internalType": "uint256",
          "name": "",
          "type": "uint256"
        }
      ],
      "stateMutability": "view",
      "type": "function"
    },
    {
      "inputs": [
        {
          "internalType": "uint256",
          "name": "tokenId",
          "type": "uint256"
        }
      ],
      "name": "tokenURI",
      "outputs": [
        {
          "internalType": "string",
          "name": "",
          "type": "string"
        }
      ],
      "stateMutability": "view",
      "type": "function"
    },
    {
      "inputs": [],
      "name": "totalSupply",
      "outputs": [
        {
          "internalType": "uint256",
          "name": "",
          "type": "uint256"
        }
      ],
      "stateMutability": "view",
      "type": "function"
    },
    {
      "inputs": [
        {
          "internalType": "address",
          "name": "from",
          "type": "address"
        },
        {
          "internalType": "address",
          "name": "to",
          "type": "address"
        },
        {
          "internalType": "uint256",
          "name": "tokenId",
          "type": "uint256"
        }
      ],
      "name": "transferFrom",
      "outputs": [],
      "stateMutability": "pure",
      "type": "function"
    },
    {
      "inputs": [
        {
          "internalType": "address",
          "name": "_to",
          "type": "address"
        },
        {
          "internalType": "enum TIERS",
          "name": "tier",
          "type": "uint8"
        }
      ],
      "name": "whitelistAddress",
      "outputs": [],
      "stateMutability": "nonpayable",
      "type": "function"
    }
  ],
  "bytecode": "0x6080604052600f805460ff191690553480156200001b57600080fd5b50604051620027d3380380620027d38339810160408190526200003e916200020f565b60408051808201909152601e8082527f54616c656e742050726f746f636f6c204e465420436f6c6c656374696f6e0000602083019081528391620000859160009162000169565b5080516200009b90600190602084019062000169565b50620000ad91506000905083620000b5565b505062000362565b620000c18282620000c5565b5050565b6000828152600a602090815260408083206001600160a01b038516845290915290205460ff16620000c1576000828152600a602090815260408083206001600160a01b03851684529091529020805460ff19166001179055620001253390565b6001600160a01b0316816001600160a01b0316837f2f8788117e7eff1d82e926ec794901d17c78024a50270940304540a733656f0d60405160405180910390a45050565b82805462000177906200030f565b90600052602060002090601f0160209004810192826200019b5760008555620001e6565b82601f10620001b657805160ff1916838001178555620001e6565b82800160010185558215620001e6579182015b82811115620001e6578251825591602001919060010190620001c9565b50620001f4929150620001f8565b5090565b5b80821115620001f45760008155600101620001f9565b600080604083850312156200022357600080fd5b82516001600160a01b03811681146200023b57600080fd5b602084810151919350906001600160401b03808211156200025b57600080fd5b818601915086601f8301126200027057600080fd5b8151818111156200028557620002856200034c565b604051601f8201601f19908116603f01168101908382118183101715620002b057620002b06200034c565b816040528281528986848701011115620002c957600080fd5b600093505b82841015620002ed5784840186015181850187015292850192620002ce565b82841115620002ff5760008684830101525b8096505050505050509250929050565b600181811c908216806200032457607f821691505b602082108114156200034657634e487b7160e01b600052602260045260246000fd5b50919050565b634e487b7160e01b600052604160045260246000fd5b61246180620003726000396000f3fe608060405234801561001057600080fd5b50600436106101f05760003560e01c806355f804b31161010f578063a217fddf116100a2578063c87b56dd11610071578063c87b56dd1461044c578063d547741f1461045f578063d85d3d2714610472578063e985e9c51461048557600080fd5b8063a217fddf14610410578063a22cb46514610418578063b430a5d91461042b578063b88d4fde1461043e57600080fd5b806370a08231116100de57806370a08231146103b157806391d14854146103c457806395d89b41146103fd5780639d0234fe1461040557600080fd5b806355f804b3146103655780636352211e146103785780636b9a5c6c1461038b5780637065cb481461039e57600080fd5b806329c450f41161018757806336568abe1161015657806336568abe146103195780633af32abf1461032c57806342842e0e1461033f5780634f6ccce71461035257600080fd5b806329c450f4146102cd5780632dd98776146102e05780632f2ff15d146102f35780632f745c591461030657600080fd5b8063162094c4116101c3578063162094c41461027257806318160ddd1461028557806323b872dd14610297578063248a9ca3146102aa57600080fd5b806301ffc9a7146101f557806306fdde031461021d578063081812fc14610232578063095ea7b31461025d575b600080fd5b610208610203366004612113565b6104c1565b60405190151581526020015b60405180910390f35b6102256104d2565b60405161021491906122ce565b6102456102403660046120d7565b610564565b6040516001600160a01b039091168152602001610214565b61027061026b366004612092565b61058b565b005b610270610280366004612182565b6106c2565b6008545b604051908152602001610214565b6102706102a5366004611f75565b61077c565b6102896102b83660046120d7565b6000908152600a602052604090206001015490565b6102896102db366004611f27565b6107c4565b6102086102ee36600461214d565b61084d565b6102706103013660046120f0565b610876565b610289610314366004612092565b61089b565b6102706103273660046120f0565b610943565b61020861033a366004611f27565b6109cf565b61027061034d366004611f75565b6109ff565b6102896103603660046120d7565b610a1a565b61027061037336600461214d565b610abe565b6102456103863660046120d7565b610adc565b610270610399366004612057565b610b41565b6102706103ac366004611f27565b610c12565b6102896103bf366004611f27565b610c28565b6102086103d23660046120f0565b6000918252600a602090815260408084206001600160a01b0393909316845291905290205460ff1690565b610225610cc2565b600f5460ff16610208565b610289600081565b61027061042636600461202d565b610cd1565b6102706104393660046120bc565b610cdc565b6102706102a5366004611fb1565b61022561045a3660046120d7565b610da0565b61027061046d3660046120f0565b610f3b565b61027061048036600461214d565b610f60565b610208610493366004611f42565b6001600160a01b03918216600090815260056020908152604080832093909416825291909152205460ff1690565b60006104cc82611137565b92915050565b6060600080546104e190612372565b80601f016020809104026020016040519081016040528092919081815260200182805461050d90612372565b801561055a5780601f1061052f5761010080835404028352916020019161055a565b820191906000526020600020905b81548152906001019060200180831161053d57829003601f168201915b5050505050905090565b600061056f82611175565b506000908152600460205260409020546001600160a01b031690565b600061059682610adc565b9050806001600160a01b0316836001600160a01b031614156106255760405162461bcd60e51b815260206004820152602160248201527f4552433732313a20617070726f76616c20746f2063757272656e74206f776e6560448201527f720000000000000000000000000000000000000000000000000000000000000060648201526084015b60405180910390fd5b336001600160a01b038216148061064157506106418133610493565b6106b35760405162461bcd60e51b815260206004820152603e60248201527f4552433732313a20617070726f76652063616c6c6572206973206e6f7420746f60448201527f6b656e206f776e6572206e6f7220617070726f76656420666f7220616c6c0000606482015260840161061c565b6106bd83836111d9565b505050565b60006106cd81611254565b6000838152600260205260409020546001600160a01b03166107575760405162461bcd60e51b815260206004820152602f60248201527f4552433732314d657461646174613a2055524920717565727920666f72206e6f60448201527f6e6578697374656e7420746f6b656e0000000000000000000000000000000000606482015260840161061c565b6000838152600d60209081526040909120835161077692850190611dcc565b50505050565b60405162461bcd60e51b815260206004820152601e60248201527f54616c656e74204e4654206973206e6f6e2d7472616e7366657261626c650000604482015260640161061c565b6000806107d081611254565b6040516bffffffffffffffffffffffff19606085901b16602082015260009060340160408051808303601f190181529181528151602092830120600081815260119093529120805473ffffffffffffffffffffffffffffffffffffffff19166001600160a01b038716178155426001909101559250505b50919050565b6000600e8260405161085f91906121f5565b908152604051908190036020019020541592915050565b6000828152600a602052604090206001015461089181611254565b6106bd838361125e565b60006108a683610c28565b821061091a5760405162461bcd60e51b815260206004820152602b60248201527f455243373231456e756d657261626c653a206f776e657220696e646578206f7560448201527f74206f6620626f756e6473000000000000000000000000000000000000000000606482015260840161061c565b506001600160a01b03919091166000908152600660209081526040808320938352929052205490565b6001600160a01b03811633146109c15760405162461bcd60e51b815260206004820152602f60248201527f416363657373436f6e74726f6c3a2063616e206f6e6c792072656e6f756e636560448201527f20726f6c657320666f722073656c660000000000000000000000000000000000606482015260840161061c565b6109cb8282611300565b5050565b6000806109db83611383565b60098111156109ec576109ec6123bd565b11806104cc5750600f5460ff1692915050565b6106bd8383836040518060200160405280600081525061077c565b6000610a2560085490565b8210610a995760405162461bcd60e51b815260206004820152602c60248201527f455243373231456e756d657261626c653a20676c6f62616c20696e646578206f60448201527f7574206f6620626f756e64730000000000000000000000000000000000000000606482015260840161061c565b60088281548110610aac57610aac6123e9565b90600052602060002001549050919050565b6000610ac981611254565b81516106bd90600c906020850190611dcc565b6000818152600260205260408120546001600160a01b0316806104cc5760405162461bcd60e51b815260206004820152601860248201527f4552433732313a20696e76616c696420746f6b656e2049440000000000000000604482015260640161061c565b6000610b4c81611254565b6001826009811115610b6057610b606123bd565b11610bd35760405162461bcd60e51b815260206004820152603a60248201527f546865207469657220676976656e206e6565647320746f20626520677265617460448201527f6572207468616e2054494552532e5055424c49435f5354414745000000000000606482015260840161061c565b6001600160a01b0383166000908152601060205260409020805483919060ff19166001836009811115610c0857610c086123bd565b0217905550505050565b6000610c1d81611254565b6109cb6000836113f3565b60006001600160a01b038216610ca65760405162461bcd60e51b815260206004820152602960248201527f4552433732313a2061646472657373207a65726f206973206e6f74206120766160448201527f6c6964206f776e65720000000000000000000000000000000000000000000000606482015260840161061c565b506001600160a01b031660009081526003602052604090205490565b6060600180546104e190612372565b6109cb3383836113fd565b6000610ce781611254565b600f5460ff1615158215151415610d8c5760405162461bcd60e51b815260206004820152605c60248201527f556e61626c6520746f206368616e6765205f7075626c69635374616765466c6160448201527f672076616c7565206265636175736520746865206e65772076616c756520697360648201527f207468652073616d65206173207468652063757272656e74206f6e6500000000608482015260a40161061c565b50600f805460ff1916911515919091179055565b6000818152600260205260409020546060906001600160a01b0316610e2d5760405162461bcd60e51b815260206004820152602f60248201527f4552433732314d657461646174613a2055524920717565727920666f72206e6f60448201527f6e6578697374656e7420746f6b656e0000000000000000000000000000000000606482015260840161061c565b6000610e376114cc565b9050805160001415610e8b5760405162461bcd60e51b815260206004820152601060248201527f4261736520555249206e6f742073657400000000000000000000000000000000604482015260640161061c565b6000838152600d602052604081208054610ea490612372565b80601f0160208091040260200160405190810160405280929190818152602001828054610ed090612372565b8015610f1d5780601f10610ef257610100808354040283529160200191610f1d565b820191906000526020600020905b815481529060010190602001808311610f0057829003601f168201915b505050505090508051600014610f34579392505050565b5092915050565b6000828152600a6020526040902060010154610f5681611254565b6106bd8383611300565b610f69336109cf565b610fdb5760405162461bcd60e51b815260206004820152602d60248201527f4d696e74696e67206e6f7420616c6c6f77656420776974682063757272656e7460448201527f2073656e64657220726f6c657300000000000000000000000000000000000000606482015260840161061c565b610fe433610c28565b156110575760405162461bcd60e51b815260206004820152602960248201527f416464726573732068617320616c7265616479206d696e746564206f6e65205460448201527f616c656e74204e46540000000000000000000000000000000000000000000000606482015260840161061c565b600e8160405161106791906121f5565b908152602001604051809103902054600014156110c65761108c600b80546001019055565b600b54600e8260405161109f91906121f5565b9081526040519081900360200190205560006110ba600b5490565b90506109cb33826114db565b60405162461bcd60e51b815260206004820152602360248201527f5468697320636f6d62696e6174696f6e2077617320616c7265616479206d696e60448201527f7465640000000000000000000000000000000000000000000000000000000000606482015260840161061c565b50565b60006001600160e01b031982167f7965db0b0000000000000000000000000000000000000000000000000000000014806104cc57506104cc826114f5565b6000818152600260205260409020546001600160a01b03166111345760405162461bcd60e51b815260206004820152601860248201527f4552433732313a20696e76616c696420746f6b656e2049440000000000000000604482015260640161061c565b6000818152600460205260409020805473ffffffffffffffffffffffffffffffffffffffff19166001600160a01b038416908117909155819061121b82610adc565b6001600160a01b03167f8c5be1e5ebec7d5bd14f71427d1e84f3dd0314c0f7b2291e5b200ac8c7c3b92560405160405180910390a45050565b6111348133611533565b6000828152600a602090815260408083206001600160a01b038516845290915290205460ff166109cb576000828152600a602090815260408083206001600160a01b03851684529091529020805460ff191660011790556112bc3390565b6001600160a01b0316816001600160a01b0316837f2f8788117e7eff1d82e926ec794901d17c78024a50270940304540a733656f0d60405160405180910390a45050565b6000828152600a602090815260408083206001600160a01b038516845290915290205460ff16156109cb576000828152600a602090815260408083206001600160a01b0385168085529252808320805460ff1916905551339285917ff6391f5c32d9c69d2a47ea670b442974b53935d1edc7fd64eb21e047a839171b9190a45050565b600f5460009060ff161561139957506001919050565b6001600160a01b03821660009081526010602052604081205460ff1660098111156113c6576113c66123bd565b14156113d457506000919050565b506001600160a01b031660009081526010602052604090205460ff1690565b6109cb828261125e565b816001600160a01b0316836001600160a01b0316141561145f5760405162461bcd60e51b815260206004820152601960248201527f4552433732313a20617070726f766520746f2063616c6c657200000000000000604482015260640161061c565b6001600160a01b03838116600081815260056020908152604080832094871680845294825291829020805460ff191686151590811790915591519182527f17307eab39ab6107e8899845ad3d59bd9653f200f220920489ca2b5937696c31910160405180910390a3505050565b6060600c80546104e190612372565b6109cb8282604051806020016040528060008152506115b3565b60006001600160e01b031982167f780e9d630000000000000000000000000000000000000000000000000000000014806104cc57506104cc8261163c565b6000828152600a602090815260408083206001600160a01b038516845290915290205460ff166109cb57611571816001600160a01b031660146116d7565b61157c8360206116d7565b60405160200161158d929190612211565b60408051601f198184030181529082905262461bcd60e51b825261061c916004016122ce565b6115bd83836118bf565b6115ca6000848484611a1a565b6106bd5760405162461bcd60e51b815260206004820152603260248201527f4552433732313a207472616e7366657220746f206e6f6e20455243373231526560448201527f63656976657220696d706c656d656e7465720000000000000000000000000000606482015260840161061c565b60006001600160e01b031982167f80ac58cd00000000000000000000000000000000000000000000000000000000148061169f57506001600160e01b031982167f5b5e139f00000000000000000000000000000000000000000000000000000000145b806104cc57507f01ffc9a7000000000000000000000000000000000000000000000000000000006001600160e01b03198316146104cc565b606060006116e68360026122f9565b6116f19060026122e1565b67ffffffffffffffff811115611709576117096123ff565b6040519080825280601f01601f191660200182016040528015611733576020820181803683370190505b5090507f30000000000000000000000000000000000000000000000000000000000000008160008151811061176a5761176a6123e9565b60200101906001600160f81b031916908160001a9053507f7800000000000000000000000000000000000000000000000000000000000000816001815181106117b5576117b56123e9565b60200101906001600160f81b031916908160001a90535060006117d98460026122f9565b6117e49060016122e1565b90505b6001811115611869577f303132333435363738396162636465660000000000000000000000000000000085600f1660108110611825576118256123e9565b1a60f81b82828151811061183b5761183b6123e9565b60200101906001600160f81b031916908160001a90535060049490941c936118628161235b565b90506117e7565b5083156118b85760405162461bcd60e51b815260206004820181905260248201527f537472696e67733a20686578206c656e67746820696e73756666696369656e74604482015260640161061c565b9392505050565b6001600160a01b0382166119155760405162461bcd60e51b815260206004820181905260248201527f4552433732313a206d696e7420746f20746865207a65726f2061646472657373604482015260640161061c565b6000818152600260205260409020546001600160a01b03161561197a5760405162461bcd60e51b815260206004820152601c60248201527f4552433732313a20746f6b656e20616c7265616479206d696e74656400000000604482015260640161061c565b61198660008383611b7e565b6001600160a01b03821660009081526003602052604081208054600192906119af9084906122e1565b9091555050600081815260026020526040808220805473ffffffffffffffffffffffffffffffffffffffff19166001600160a01b03861690811790915590518392907fddf252ad1be2c89b69c2b068fc378daa952ba7f163c4a11628f55a4df523b3ef908290a45050565b60006001600160a01b0384163b15611b7257604051630a85bd0160e11b81526001600160a01b0385169063150b7a0290611a5e903390899088908890600401612292565b602060405180830381600087803b158015611a7857600080fd5b505af1925050508015611aa8575060408051601f3d908101601f19168201909252611aa591810190612130565b60015b611b58573d808015611ad6576040519150601f19603f3d011682016040523d82523d6000602084013e611adb565b606091505b508051611b505760405162461bcd60e51b815260206004820152603260248201527f4552433732313a207472616e7366657220746f206e6f6e20455243373231526560448201527f63656976657220696d706c656d656e7465720000000000000000000000000000606482015260840161061c565b805181602001fd5b6001600160e01b031916630a85bd0160e11b149050611b76565b5060015b949350505050565b6106bd8383836001600160a01b038316611bdf57611bda81600880546000838152600960205260408120829055600182018355919091527ff3f7a9fe364faab93b216da50a3214154f22a0a2b415b23a84c8169e8b636ee30155565b611c02565b816001600160a01b0316836001600160a01b031614611c0257611c028382611c3c565b6001600160a01b038216611c19576106bd81611cd9565b826001600160a01b0316826001600160a01b0316146106bd576106bd8282611d88565b60006001611c4984610c28565b611c539190612318565b600083815260076020526040902054909150808214611ca6576001600160a01b03841660009081526006602090815260408083208584528252808320548484528184208190558352600790915290208190555b5060009182526007602090815260408084208490556001600160a01b039094168352600681528383209183525290812055565b600854600090611ceb90600190612318565b60008381526009602052604081205460088054939450909284908110611d1357611d136123e9565b906000526020600020015490508060088381548110611d3457611d346123e9565b6000918252602080832090910192909255828152600990915260408082208490558582528120556008805480611d6c57611d6c6123d3565b6001900381819060005260206000200160009055905550505050565b6000611d9383610c28565b6001600160a01b039093166000908152600660209081526040808320868452825280832085905593825260079052919091209190915550565b828054611dd890612372565b90600052602060002090601f016020900481019282611dfa5760008555611e40565b82601f10611e1357805160ff1916838001178555611e40565b82800160010185558215611e40579182015b82811115611e40578251825591602001919060010190611e25565b50611e4c929150611e50565b5090565b5b80821115611e4c5760008155600101611e51565b600067ffffffffffffffff80841115611e8057611e806123ff565b604051601f8501601f19908116603f01168101908282118183101715611ea857611ea86123ff565b81604052809350858152868686011115611ec157600080fd5b858560208301376000602087830101525050509392505050565b80356001600160a01b0381168114611ef257600080fd5b919050565b80358015158114611ef257600080fd5b600082601f830112611f1857600080fd5b6118b883833560208501611e65565b600060208284031215611f3957600080fd5b6118b882611edb565b60008060408385031215611f5557600080fd5b611f5e83611edb565b9150611f6c60208401611edb565b90509250929050565b600080600060608486031215611f8a57600080fd5b611f9384611edb565b9250611fa160208501611edb565b9150604084013590509250925092565b60008060008060808587031215611fc757600080fd5b611fd085611edb565b9350611fde60208601611edb565b925060408501359150606085013567ffffffffffffffff81111561200157600080fd5b8501601f8101871361201257600080fd5b61202187823560208401611e65565b91505092959194509250565b6000806040838503121561204057600080fd5b61204983611edb565b9150611f6c60208401611ef7565b6000806040838503121561206a57600080fd5b61207383611edb565b91506020830135600a811061208757600080fd5b809150509250929050565b600080604083850312156120a557600080fd5b6120ae83611edb565b946020939093013593505050565b6000602082840312156120ce57600080fd5b6118b882611ef7565b6000602082840312156120e957600080fd5b5035919050565b6000806040838503121561210357600080fd5b82359150611f6c60208401611edb565b60006020828403121561212557600080fd5b81356118b881612415565b60006020828403121561214257600080fd5b81516118b881612415565b60006020828403121561215f57600080fd5b813567ffffffffffffffff81111561217657600080fd5b611b7684828501611f07565b6000806040838503121561219557600080fd5b82359150602083013567ffffffffffffffff8111156121b357600080fd5b6121bf85828601611f07565b9150509250929050565b600081518084526121e181602086016020860161232f565b601f01601f19169290920160200192915050565b6000825161220781846020870161232f565b9190910192915050565b7f416363657373436f6e74726f6c3a206163636f756e742000000000000000000081526000835161224981601785016020880161232f565b7f206973206d697373696e6720726f6c6520000000000000000000000000000000601791840191820152835161228681602884016020880161232f565b01602801949350505050565b60006001600160a01b038087168352808616602084015250836040830152608060608301526122c460808301846121c9565b9695505050505050565b6020815260006118b860208301846121c9565b600082198211156122f4576122f46123a7565b500190565b6000816000190483118215151615612313576123136123a7565b500290565b60008282101561232a5761232a6123a7565b500390565b60005b8381101561234a578181015183820152602001612332565b838111156107765750506000910152565b60008161236a5761236a6123a7565b506000190190565b600181811c9082168061238657607f821691505b6020821081141561084757634e487b7160e01b600052602260045260246000fd5b634e487b7160e01b600052601160045260246000fd5b634e487b7160e01b600052602160045260246000fd5b634e487b7160e01b600052603160045260246000fd5b634e487b7160e01b600052603260045260246000fd5b634e487b7160e01b600052604160045260246000fd5b6001600160e01b03198116811461113457600080fdfea2646970667358221220509c170286e5ab28456fc7e7e67ff6d2fc431221c33b905d54259fb8007bcfa164736f6c63430008070033",
  "linkReferences": {},
  "deployedLinkReferences": {}
}